:020000040800F2
:10000000A0370020E1010008493C00082D37000816
:10001000453C0008510D0008614D0008000000003B
:10002000000000000000000000000000490100087E
:1000300041100008000000008D0100081544000870
:10004000FB010008FB010008FB010008FB010008A0
:10005000FB010008FB010008FB0100084310000839
:10006000FB0100084D10000857100008FB010008B4
:10007000FB010008FB010008FB010008FB01000870
:10008000F50F000805100008FB010008FB0100083F
:10009000FB010008FB010008FB010008FB01000850
:1000A000FB010008B1440008FB010008FB01000847
:1000B000FB010008C1440008D1440008FB0100080E
:1000C000FB010008FB010008FB010008FB01000820
:1000D000FB010008FB010008514D0008FB0100086E
:1000E000FB010008FB010008FB010008FB01000800
:1000F000FB010008FB010008FB010008FB010008F0
:10010000FB010008FB010008FB010008FB010008DF
:10011000FB010008FB010008FB010008FB010008CF
:10012000FB010008FB010008FB010008FB010008BF
:10013000DFF810D000F016FD0048004745760008B3
:10014000AFF30080A0370020224B19680868B0E8A0
:10015000F00F80F30988BFF36F8F4FF0000080F33A
:1001600011884EF00D0E7047000000000648006830
:10017000006880F3088862B661B6BFF34F8FBFF3A3
:100180006F8F00DF00BF00BF08ED00E0EFF30980D4
:10019000BFF36F8F0F4B1A6820E9F00F106008B59E
:1001A0004FF0500080F31188BFF34F8FBFF36F8F74
:1001B00009F008FB4FF0000080F31188BDE808400B
:1001C00019680868B0E8F00F80F30988BFF36F8FF3
:1001D000704700BFF0000020EFF30580704700007B
:1001E0000648804706480047FEE7FEE7FEE7FEE7D1
:1001F000FEE7FEE7FEE7FEE7FEE7FEE7AD440008A8
:10020000310100082DE9F0410024061B254671F15B
:10021000000605DA01240027D0EB070067EB010197
:10022000161E73F1000605DA0027D2EB070201253E
:1002300067EB030300F02AFB86460E4617469C46F2
:10024000AC4204D00025D0EB050E65EB010624B1CD
:100250000020D2EB000760EB030C704631463A46B3
:100260006346BDE8F081202A04DB203A21FA02F03F
:100270000021704721FA02F3D040C2F120029140E0
:1002800008431946704740EA01039B0703D009E081
:1002900008C9121F08C0042AFAD203E011F8013B72
:1002A00000F8013B521EF9D27047D2B201E000F8CB
:1002B000012B491EFBD270470022F6E710B513460A
:1002C0000A4604461946FFF7F0FF204610BD30B538
:1002D00004460020034600E05B1C934203D2E05C2E
:1002E000CD5C401BF8D030BDF0B480EA0102D40FE1
:1002F0004200B2EB410F02D20246084611464A00C4
:1003000042D0C30DDDB2C1F3C752AD1A202D35DA8C
:10031000C1F3160141F4000204B15242C5F12006B6
:1003200002FA06F12A411044B3EBD05F23D0C4B1E6
:10033000012DA0EBC35009DCF0BC4FF0004202EAF3
:10034000C352DBB200F5000000F0FBBA400000F140
:10035000807000EBC350A0F1807040EAD17049007A
:1003600009E0490841EAC071A0EBC35000F5000064
:10037000400800EBC350F0BC00F0DABA6142012241
:1003800002EB4101001BF6E7F0BC704781F0004131
:10039000AAE780F00040A7E780EA010210B502F06A
:1003A0000043400022D04A001FD0010E01EB126131
:1003B000C0F35600C2F3560240F4000042F40002BB
:1003C000A0FB022000047F39140400D0401C50EA36
:1003D000124001D44000491EC2B20C0604EBD010FA
:1003E000401C4008802A02D003E0002010BD20F00D
:1003F0000100002900DA0020184310BD30B480EA63
:10040000010202F0004530F0004221F0004013D01C
:1004100090B1C30DD40DC2F31601C0F31600E41A57
:1004200041F4000140F400027D34914201D3641C88
:1004300000E04900002C02DA30BC002070474FF485
:1004400000000023914201D3891A034340084FEA78
:100450004101F7D151B1914202D14FF0004105E085
:1004600002D24FF0010101E06FF0010103EBC45033
:10047000284430BC00F05CBA2DE9FE4F804681EA8A
:100480000300C00F0C46009021F0004123F000450E
:10049000B8EB0200A94105D24046214690461C46D1
:1004A0000B46024623F00040104347D0270DC7F308
:1004B0000A00C3F30A510290401A019040286BDAF7
:1004C000C3F3130040F4801B0098924620B1002330
:1004D000D2EB030A63EB0B0B01985946C0F14002C3
:1004E000504600F004FA06460D4650465946019A19
:1004F00000F00CFA10EB08006141002487EA115269
:1005000084EAE7731A4340D0009A62B3019A012A41
:100510004FEA075215DC001B61EB02014FF000426D
:1005200002EA0752CDE90042001C41F58011324633
:100530002B4600F043FA03B0BDE8F08F4046214659
:10054000F9E7001B61EB0201001C41F58013001864
:100550005B412018A2F5001747EB030140EAD57074
:10056000B6196D4111E06D084FEA360645EAC075CF
:100570004FEA0752001B61EB0201001C41F580119C
:1005800049084FEA30000019514132462B4603B06A
:10059000BDE8F04F00F003BA0098012240000023AC
:1005A000D0EB020263EBE073009821464FEAE0745F
:1005B000B8EB000061EB0401E9E783F000435BE77F
:1005C00081F0004158E72DE9FE4F81EA030404F071
:1005D000004421F0004100944FF0000B23F0004351
:1005E00050EA01045ED052EA03045BD0C3F30A541C
:1005F000C1F30A552C44A4F2F3340194A0FB025435
:10060000C1F3130141F48011C3F3130343F48013C6
:1006100001FB024400FB034E840A970A44EA81541A
:1006200047EA8357A4FB076802958D0A05FB0785F7
:100630004FEA932C04FB0C542705029D4FEA065801
:1006400047EA1637B5EB08056EEB070C870E920EDE
:1006500047EA811742EA8312A7FB0201B6EB0B01BE
:1006600064EB00042B0D43EA0C335E1844EB1C5082
:10067000DA465146E7FB0201C5F313044FEA0B3398
:1006800043EA14534FEA0432019C43EA0603A4F1FF
:100690000C040294009CCDE900B400F08FF903B083
:1006A000BDE8F08F00200146F9E7C10F80EAE07055
:1006B0000844CA079623002100F043B9962300227C
:1006C000114600F03EB90EB540F2334102910021CF
:1006D000CDE900110A460B4600F070F903B000BDE9
:1006E00000F0004220F00040C10DC0F3160040F4BD
:1006F00000007F2901DA00207047962903DCC1F150
:100700009601C84001E096398840002AF4D0404262
:10071000704720F00040C10DC0F3160040F4000007
:100720007F2901DA00207047962903DCC1F1960188
:10073000C840704796398840704770B5C1F30A5277
:1007400001F000450024C1F3130140F2FF3341F4EE
:1007500080119A4201DA002070BD40F233439A4280
:10076000A2F2334203DC5242FFF77DFD00E09040ED
:100770002C43F1D0404270BD00F0004230F0004008
:100780000AD0C10D01F56071C0F3160042EA0151B3
:10079000C20840071143704700200146704700001F
:1007A00030B5041E71F1000404DB4FF000444042F8
:1007B00064EB0101141E73F1000405DB1C464FF0CD
:1007C0000043524263EB04038B4208BF824230BDB8
:1007D00030B5041E71F1000404DB4FF000444042C8
:1007E00064EB0101141E73F1000405DB1C464FF09D
:1007F0000043524263EB0403994208BF904230BD6C
:1008000001F0004330B421F0004150EA010206D06B
:100810000A0DA2F56072C1F31301002A02DC30BC9C
:1008200000207047440F44EAC104C100E01830BC06
:1008300000EBC25000F07CB8002801DBC0F10040A2
:10084000002901DBC1F1004181427047002801DB32
:10085000C0F10040002901DBC1F10041884270472E
:1008600030B50B46014600202022012409E021FA80
:1008700002F59D4205D303FA02F5491B04FA02F57D
:100880002844151EA2F10102F1DC30BD2DE9F05F14
:100890000546002092469B468846064681464024EF
:1008A0001BE02846414647462246FFF7DCFC5346FC
:1008B0005A46C01A914110D311461846224600F0FC
:1008C00016F82D1A67EB01084F4622460120002139
:1008D00000F00DF817EB00094E41201EA4F10104B1
:1008E000DFDC484631462A464346BDE8F09F202AD1
:1008F00004DB203A00FA02F1002070479140C2F177
:10090000200320FA03F3194390407047202A06DBA6
:10091000CB17203A41FA02F043EAE07306E041FACD
:1009200002F3D040C2F120029140084319467047BB
:100930000029A8BF7047401C490008BF20F00100F3
:10094000704710B4B0FA80FC00FA0CF050EA0104D1
:1009500004BF10BC704749B1CCF1200421FA04F463
:1009600011FA0CF118BF012121430843A3EB0C013C
:10097000CB1D4FEA00614FEA102042BF002010BC9F
:10098000704700EBC35010440029A4BF10BC70474F
:10099000401C490008BF20F0010010BC704710B592
:1009A000141E73F1000408DA401C41F10001921892
:1009B0005B411A4301D120F0010010BD2DE9F04D3B
:1009C00092469B4611B1B1FA81F202E0B0FA80F290
:1009D00020329046FFF78BFF04460F4640EA0A009C
:1009E00041EA0B0153465A46084313D0114653EAD5
:1009F000010019D0C8F140025046FFF734FC05460B
:100A00000E46504659464246FFF771FF084305D04F
:100A1000012004E020463946BDE8F08D0020054362
:100A200046EAE0762C4337430A986305E40AA0EBD4
:100A300008000022FD0A44EA47540A3002D500208B
:100A40000146E9E7010510196941DDE9084500198A
:100A50006941BDE8F04DA2E72DE9F04D81EA0304BC
:100A600004F0004B21F0004514464FF0000A23F03B
:100A7000004150EA050220D054EA01021DD0C5F31E
:100A80000A570246C5F31303C1F31300C1F30A5614
:100A900040F4801543F48013A7EB0608101BD646DC
:100AA00008F2FD3873EB050002D308F1010801E0FC
:100AB00092185B41B8F1000F03DA00200146BDE84F
:100AC000F08D00204FF48011064684460EE0171B7F
:100AD00073EB050705D3121B63EB050306434CEAD2
:100AE000010C49084FEA300092185B4150EA0107B7
:100AF000EDD152EA030012D082EA040083EA050134
:100B0000084305D0101BAB4106D20122002306E0AA
:100B100000224FF0004302E06FF0010253101AEB85
:100B200006004CEB085110EB0A0041EB0B01BDE84D
:100B3000F04DFFF734BF70B521F0004303430CD0F4
:100B4000C1F30A550024D5EB040564EB0403D61762
:100B5000AD1AB34102DB0020014670BD201841EB05
:100B6000025170BD064C074D06E0E06840F00103FD
:100B700094E8070098471034AC42F6D3FFF7DCFA4C
:100B800018B7000838B700082DE9F04D00231A46C1
:100B90001B1A8A4103DB00200146BDE8F08DC1F33A
:100BA0000A52C1F3130141F480154FF0000BD10735
:100BB00002D100186D41521E0027044640F2FF1179
:100BC000384601EB620A3E468046024600204FF45A
:100BD0008011FFF748FBC2197141BB1846EB0100B9
:100BE000B4EB030C75EB000C04D3E41A65EB0005C1
:100BF00017460E46241908F101006D41804634283D
:100C0000E3DDF91946EB0600091BA84103D24FF0BA
:100C1000FF32134601E0002213461BEB070046EBB0
:100C20000A51BDE8F04DFFF7BABE30B58C1810F888
:100C3000012B12F00F0301D110F8013B120906D16C
:100C400010F8012B03E010F8015B01F8015B5B1E5B
:100C5000F9D101E001F8013B521EFBD1A142E6D3DC
:100C6000002030BD70B5044600252068806800F083
:100C7000010018B32068806820F0010021688860B6
:100C800000F0F8FF054613E000F0F4FF401B0228D7
:100C90000ED92068806800F0010048B1A06A40F0D9
:100CA0001000A062E06A40F00100E062012070BD27
:100CB0002068806800F001000028E5D10020F6E7F8
:100CC00038B504460025002000902068806800F0B8
:100CD000010078BB2068806840F0010021688860CE
:100CE000194800681949B0FBF1F0009002E0009843
:100CF000401E009000980028F9D100F0BBFF054687
:100D000019E000F0B7FF401B022814D92068806862
:100D100000F0010078B9A06A40F01000A062E06A1B
:100D200040F00100E06200BF002084F8240000BF12
:100D3000012038BD05E02068806800F0010000282F
:100D4000DFD00020F5E700002800002040420F001F
:100D500000BFFEE710B5124A111F081F04F0A0FDE6
:100D600004460F4A103A911E881E04F0F5FE2044F6
:100D7000C4B20B4A0A3A911E881E04F01FFF204499
:100D8000C4B234B91822064914390648FFF77BFA71
:100D900005E01822034902481438FFF774FA10BD21
:100DA000780600207C06002010B502F0ADFC012082
:100DB00003F072FA404270490860022003F06CFAB6
:100DC0006E490860084602686B4801686CA004F030
:100DD00095F87449B1F90800FFF767FC04467149BA
:100DE000C868214603F0BEFF6F4908606F4800687D
:100DF00020B96F4800686F4908603AE06B480068A6
:100E000002280FD16C4800680C2807DA6A4800688D
:100E1000022803DD6948674908602AE06848654997
:100E2000086026E061480068012822D16248006815
:100E30000F2803DA01206349087002E062485D4927
:100E4000086060480078012813D160480088401C81
:100E500080B25E490880322803DA5D48554908604F
:100E600007E000205349086058490880022055498E
:100E700008704C48C2684F480368404801683E48C3
:100E8000006803F09BFF534908604848006848B970
:100E90004448B0F90A105048008800B204F008F83D
:100EA0004E49086041480068012822D14548007831
:100EB000022816D145480088401C80B2434908806A
:100EC0003C2808DA3748B0F90A10122003F0F0FF86
:100ED000424908600DE000203C490880394908700B
:100EE00007E03048B0F90A10002003F0E1FF3B4969
:100EF00008602D480068374909680844374909687F
:100F0000084437490860284800683249096808449D
:100F100032490968401A33490860314803F0F4F84F
:100F20002049B1F90400FFF7C0FB04461D48C16821
:100F30001248036810480268204603F0FFF810B119
:100F40000120294908701749C8680C490A680A49EC
:100F5000096803F035F910B10020234908701149E0
:100F6000C86803F001FC28B91E4801681C480068E5
:100F700003F0AEF910BD000044000020480000203E
:100F8000456E636F6465725F6C6566743A25642CA8
:100F9000456E636F6465725F72696768743A256451
:100FA0000D0A000064060020300000202C00002004
:100FB000600000204C000020B8000020000048C263
:100FC00000004842650000200000F041660000205B
:100FD0000000F0C134000020500000203800002044
:100FE0003C000020400000206400002010B502F00A
:100FF0004BFF10BD10B5024800F0D2FA10BD000042
:10100000DC05002010B5024800F0CAFA10BD00004F
:101010002006002030B590F840500124AC40C56B4C
:101020006C60046863604468102C04D10468A2609A
:101030000468E16003E00468A1600468E26030BD18
:10104000704710B5022000F069FC10BD10B50820F3
:1010500000F064FC10BD10B5102000F05FFC10BD66
:1010600072B600BFFEE70000F8B504460026002077
:10107000009000BF94F82400012801D10220F8BD9F
:10108000012084F8240000BF2046FFF7EBFD064650
:101090002046FFF715FE0646002E69D1A06A20F40F
:1010A000885040F00200A062022000F0C1FE3449E6
:1010B0000968B1FBF0F04000009002E00098401E8B
:1010C000009000980028F9D12068806840F008005E
:1010D0002168886000F0CEFD054616E000F0CAFDEC
:1010E000401B0A2811D92068806800F0080060B110
:1010F000A06A20F0020040F01000A06200BF0020B3
:1011000084F8240000BF0120B9E72068806800F05F
:1011100008000028E2D12068806840F004002168BF
:10112000886000F0A7FD054616E000F0A3FD401B17
:101130000A2811D92068806800F0040060B1A06A14
:1011400020F0020040F01000A06200BF002084F8F0
:10115000240000BF012092E72068806800F00400AE
:101160000028E2D1A06A20F0020040F00100A06255
:1011700000BF002084F8240000BF30467FE7000055
:101180002800002038B5024600230020009000BF50
:1011900092F82400012801D1022038BD012082F8F4
:1011A000240000BF4868072812D21068406B0C79F1
:1011B000641E04EB84051F24AC40A0430D796D1E12
:1011C00005EB85050C68AC4020431468606327E09C
:1011D00048680D2812D21068006B0C79E41F04EBEC
:1011E00084051F24AC40A0430D79ED1F05EB850558
:1011F0000C68AC4020431468206311E01068C06A9A
:101200000C790D3C04EB84051F24AC40A0430D7900
:101210000D3D05EB85050C68AC4020431468E06289
:1012200008680A2812D31068C0680C780A3C04EBDE
:1012300044050724AC40A0430D780A3D05EB450565
:101240008C68AC4020431468E0600FE010680069CF
:101250000C7804EB44050724AC40A0430D7805EB63
:1012600045058C68AC40204314682061086810284C
:1012700002D00868112827D1174C1068A0421ED14F
:101280001068806800F40000F0B91068806840F4CD
:1012900000001468A0600868102815D10F48006885
:1012A0000F4CB0FBF4F000EB80004000009002E037
:1012B0000098401E009000980028F9D104E0906A40
:1012C00040F020009062012300BF002082F824003B
:1012D00000BF184661E700000024014028000020FC
:1012E00040420F002DE9F04104460027002500266A
:1012F000A84614B90120BDE8F081A06810B1207D96
:1013000000B100BFA06A30B90020E06284F8240078
:10131000204600F089F82046FFF7A4FC0746A06AA3
:1013200000F01000002873D1002F71D1A06A20F4C2
:10133000885040F00200A062E16960680843217BA8
:1013400040EA41000643A068B0F5807F02D0A06863
:10135000012802D14FF4807000E000200543207D79
:10136000012811D1207B38B9A069401E4FF40061DB
:1013700041EA4030054307E0A06A40F02000A06247
:10138000E06A40F00100E0622068406820F46940B3
:10139000284321684860206880682149084030431C
:1013A00021688860A068B0F5807F02D0A06801281D
:1013B00002D14FF4807000E00020B0F5807F03D1AF
:1013C000208A401E4FEA00582068C06A20F470004E
:1013D00040EA08002168C862206880681149084016
:1013E000B04208D10020E062A06A20F0020040F084
:1013F0000100A06211E0A06A20F0020040F010009D
:10140000A062E06A40F00100E062012705E0FFE72A
:10141000A06A40F01000A062012738466BE7000088
:10142000FDF7E1FFFE0E1FFF10B586B00446002059
:10143000029003900490059014492068884222D1BC
:1014400000BF1348806940F4007011498861084664
:10145000806900F40070019000BF00BF00BF084623
:10146000806940F0040088610846806900F004004B
:10147000019000BF00BF022002900320039002A948
:10148000044800F059FA06B010BD000000240140E5
:1014900000100240000801400146002291F821009E
:1014A000022808D00420886300BF002081F82000B3
:1014B00000BF012070470868006820F00E000B682C
:1014C00018600868006820F001000B68186091F847
:1014D000403001209840CB6B5860012081F82100FA
:1014E00000BF002081F8200000BF1046E2E70000A6
:1014F00070B50446002594F82100022803D004208A
:10150000A063012548E02068006820F00E002168F3
:1015100008602068006820F00100216808601F4909
:101520002068884201D1012026E01C49143120683E
:10153000884201D110201FE01849283120688842D4
:1015400001D1801518E015493C312068884201D14D
:10155000801411E0114950312068884202D14FF4C3
:10156000803009E00D4964312068884202D14FF48F
:10157000801001E04FF08070084908394860012070
:1015800084F8210000BF002084F8200000BF606BB9
:1015900010B12046616B8847284670BD08000240A4
:1015A00070B50446E06B05682068066894F8401042
:1015B000042088402840002846D006F00400002877
:1015C00042D02068006800F0200028B92068006838
:1015D00020F004002168086057492068884201D142
:1015E000042027E0544914312068884201D140206A
:1015F00020E0514928312068884201D1001519E0C6
:101600004D493C312068884202D14FF4804011E0BE
:10161000494950312068884202D14FF4802009E0C6
:10162000454964312068884202D14FF4800001E0CE
:101630004FF08060404908394860E06A00287AD05D
:101640002046E16A884776E094F8401002208840FE
:101650002840A0B306F0020088B32068006800F0BC
:10166000200040B92068006820F00A002168086066
:10167000012084F8210030492068884201D10220ED
:1016800028E02D4914312068884201D1202021E032
:10169000294928312068884201D140151AE026499D
:1016A0003C312068884202D14FF4005012E02249B8
:1016B00050312068884203D14FF400300AE017E02F
:1016C0001D4964312068884202D14FF4001001E0C6
:1016D0004FF0007018490839486000BF002084F8B6
:1016E000200000BFA06A30B32046A16A884722E0EC
:1016F00094F84010082088402840E0B106F0080027
:10170000C8B12068006820F00E002168086094F8D5
:10171000401001208840E16B48600120A06384F8FC
:10172000210000BF002084F8200000BF206B10B112
:101730002046216B884770BD080002400146002208
:1017400009B901207047164B0868C01A1423B0FB72
:10175000F3F08000086412480838C863022081F85A
:1017600021000868026843F6F0708243D1E9010362
:101770001843CB6818430B6918434B6918438B69AE
:101780001843CB691843024308680260002088634D
:10179000012081F82100002081F8200000BFD1E75E
:1017A000080002402DE9F04104460D4616461F464A
:1017B0004FF0000800BF94F82000012802D1022059
:1017C000BDE8F081012084F8200000BF94F82100DA
:1017D00001282CD1022084F821000020A063206879
:1017E000006820F00100216808603B463246294627
:1017F0002046FFF70FFCE06A30B12068006840F037
:101800000E00216808600BE02068006820F00400EA
:10181000216808602068006840F00A0021680860BC
:101820002068006840F001002168086006E000BF01
:10183000002084F8200000BF4FF002084046BFE7B8
:1018400070B5044600F016FA06462546681C10B12D
:1018500004480078054400BF00F00CFA801BA84241
:10186000FAD370BD240000202DE9F04704464FF064
:101870000009022C42D12248007858B901202049A1
:10188000087000201F4908701F4908601F4801F0B8
:1018900003F833E000201A4908701C4801F038F8BA
:1018A0001948006841F28831884203D9002016495E
:1018B00008600EE014490868FEF705FF07464FF080
:1018C0003332134BFEF77FFE0546FEF736FF114914
:1018D000086010480068B0F5967F03DD4FF49670FD
:1018E0000C4908600B48006820B90B48006809499A
:1018F000086003E00748006807490860BDE8F08712
:101900001400002015000020242C01402C0400208D
:101910003333FB3FB80000201800002010B5044608
:1019200004480068204020B1024804602046FFF7C8
:101930009BFF10BD140401402DE9F8470346002227
:1019400094466EE14FF0010808FA02F4D1F80080E5
:1019500008EA0400A0427DD1DFF8DCA2D1F80480BF
:10196000A8EB0A09D0453AD014DCB8F1030F50D0E7
:1019700009DCB8F1000F31D0B8F1010F1CD0B8F17B
:10198000020F49D120E0B8F1110F18D0B8F1120FB1
:1019900042D11EE0B9F5881F25D006DCB9F5803F9D
:1019A00020D0B9F5801F37D11AE0B9F5001F18D043
:1019B000B9F5041F30D117E0D1F80CC02DE0D1F8F3
:1019C0000C8008F1040C28E0D1F80C8008F1080C18
:1019D00023E0D1F80C8008F10C0C1EE000BF00BF22
:1019E00000BF00BF00BF00BFD1F80880B8F1000FF2
:1019F00002D14FF0040C0BE0D1F80880B8F1010FD0
:101A000003D14FF0080C1C6102E04FF0080C5C6140
:101A100003E04FF0000C00E000BF00BFFF2801D83A
:101A2000984601E003F104084646FF2802D84FEA31
:101A3000820803E0A2F108084FEA88084746D6F872
:101A400000804FF00F0909FA07F928EA09080CFA93
:101A500007F900E088E048EA0908C6F80080D1F8F4
:101A6000048008F08058B8F1805F7DD100BFDFF8B6
:101A7000CC81D8F8188048F00108DFF8C091C9F887
:101A80001880C846D8F8188008F00108CDF8008002
:101A900000BF00BF4FEAB9384FEA920958F8295001
:101AA0004FEA82784FEA18794FF00F0808FA09F8E0
:101AB00025EA0805DFF88881434502D14FF0000888
:101AC00016E0DFF88081434502D14FF001080FE0B6
:101AD000DFF87481434502D14FF0020808E0DFF8D7
:101AE0006C81434502D14FF0030801E04FF0040838
:101AF0004FEA82794FEA197908FA09F848EA0505A8
:101B0000DFF84C814FEA920948F82950D1F8048057
:101B100008F48018B8F5801F0AD1DFF83881D8F8AA
:101B2000008048EA0008DFF82C91C9F8008009E03D
:101B3000DFF82081D8F8008028EA0008DFF8149147
:101B4000C9F80080D1F8048008F40018B8F5001F27
:101B500010D1DFF8008108F10408D8F8008048EAC5
:101B60000008DFF8F09000E05AE009F10409C9F834
:101B700000800DE0DFF8DC8008F10408D8F8008070
:101B800028EA0008DFF8CC9009F10409C9F80080C0
:101B9000D1F8048008F40038B8F5003F0ED1DFF822
:101BA000B480A8F10408D8F8008048EA0008DFF8FB
:101BB000A490A9F10409C9F800800DE0DFF8948031
:101BC000A8F10408D8F8008028EA0008DFF884901B
:101BD000A9F10409C9F80080D1F8048008F480381C
:101BE000B8F5803F0ED1DFF86C80A8F10808D8F86E
:101BF000008048EA0008DFF85C90A9F10809C9F8FC
:101C000000800DE0DFF84C80A8F10808D8F80080CB
:101C100028EA0008DFF83C90A9F10809C9F800801B
:101C2000521CD1F8008028FA02F8B8F1000F7FF4B6
:101C300089AEBDE8F88700000000111000100240D6
:101C400000080140000C0140001001400014014058
:101C50000800014008040140024693680B400BB1A4
:101C6000012000E0002070470AB1016101E00B048F
:101C70000361704701480068704700001C000020A5
:101C8000034800680349097808440149086070471F
:101C90001C0000202400002010B50848006840F017
:101CA000100006490860032000F0AEF80F2000F095
:101CB00007F800F02BF8002010BD000000200240C3
:101CC00070B504460E4800784FF47A71B1FBF0F01D
:101CD0000C490968B1FBF0F5284600F029FD08B170
:101CE000012070BD102C07D200222146501E00F0AA
:101CF0004DF80548046001E00120F2E70020F0E71C
:101D000024000020280000202000002008B500BF8B
:101D10001448806940F001001249886108468069D2
:101D200000F00100009000BF00BF00BF0846C0697E
:101D300040F08050C8610846C06900F080500090B3
:101D400000BF00BF00220F21901E00F01FF800BF4F
:101D50000549486820F0E06040F00070486000BF2E
:101D600008BD000000100240000001400146084686
:101D7000002809DB00F01F0301229A4043099B0061
:101D800003F1E023C3F8002100BF70472DE9F05FA5
:101D900080460D461646002703F0D4F8074639461C
:101DA0002A46334601F00700C0F1070ABAF1040FD2
:101DB00002D94FF0040A01E0C0F1070AD14600F150
:101DC000040ABAF1070F02D24FF0000A01E0A0F1B5
:101DD000030AD4464FF0010A0AFA09FAAAF1010AE5
:101DE0000AEA020A0AFA0CFA4FF0010B0BFA0CFB92
:101DF000ABF1010B0BEA030B4AEA0B042146404608
:101E000003F0A8F8BDE8F09F00BF00F00702064B02
:101E100019684FF6FF031940044B0B4343EA0221B4
:101E2000014B196000BF70470CED00E00000FA059F
:101E30002DE9F04706464FF0000800250027002452
:101E4000A146012E31D0022E56D0102E5FD132483D
:101E50004468006800F0807008B33048C4F38341E0
:101E6000475C04F4803078B12B484068C0F34040B0
:101E70002B4911F8008004F4803040B12948B0FBB0
:101E8000F8F000FB07F502E0274807FB00F52248C1
:101E9000406800F48000B0F5800F01D1A94603E04E
:101EA00068000321B0FBF1F932E01B48046A04F436
:101EB0004070B0F5807F05D104F0020010B14FF4FE
:101EC000004918E004F44070B0F5007F07D11248D3
:101ED000406A00F0020010B149F640490BE004F4FA
:101EE0004070B0F5407F06D10B48006800F4003028
:101EF00008B14FF224490BE000F08CF9064949681B
:101F0000C1F38131491C4900B0FBF1F900E000BF89
:101F100000BF4846BDE8F08700100240EEA200086E
:101F2000FEA2000800127A0000093D00F8B5044640
:101F300000260025207800F0010000286BD0002743
:101F40004348C06900F0805070B900BF4048C06984
:101F500040F080503E49C8610846C06900F080509A
:101F6000009000BF00BF01273A48006800F480706D
:101F7000B0B93848006840F4807036490860FFF70F
:101F800079FE064606E0FFF775FE801B642801D93E
:101F90000320F8BD2F48006800F480700028F2D0BC
:101FA0002B48006A00F440752DB3A08800F44070FF
:101FB000A84220D02648006A20F440750120264916
:101FC0000860002008602248056205F0010090B119
:101FD000FFF750FE064608E0FFF74CFE801B41F27B
:101FE0008831884201D90320D3E71948006A00F0FC
:101FF00002000028F0D01648006A20F440706168A2
:10200000084313490862012F04D10846C06920F033
:102010008050C86100BF207800F00200022807D17C
:102020000B48406820F44040A168084308494860D4
:10203000207800F01000102807D10548406820F4EF
:102040008000E1680843024948600020A1E70000E1
:1020500000100240007000404004424270B5044647
:102060000D460CB9012070BD5A48006800F0070009
:10207000A8420ED25748006820F00700284355496F
:1020800008600846006800F00700A84201D001205F
:10209000E9E7207800F0020002281DD1207800F046
:1020A0000400042805D14C48406840F4E0604A49E7
:1020B0004860207800F00800082805D146484068AC
:1020C00040F46050444948604348406820F0F000C4
:1020D000A168084340494860207800F0010078B3C7
:1020E0006068012806D13C48006800F4003090B9CF
:1020F0000120B8E76068022806D13748006800F080
:10210000007040B90120AEE73348006800F00200DB
:1021100008B90120A7E73048406820F00300616853
:1021200008432D494860FFF7A5FD064609E0FFF783
:10213000A1FD801B41F28831884202D9032092E739
:1021400007E02548406800F00C006168B0EB810FA3
:10215000EDD12048006800F00700A8420ED91D48C4
:10216000006820F0070028431A4908600846006804
:1021700000F00700A84201D0012074E7207800F0A9
:102180000400042807D11448406820F4E060E168A6
:10219000084311494860207800F00800082808D159
:1021A0000D48406820F46050216940EAC1000A49A6
:1021B000486000F03FF808494968C1F30311074A35
:1021C000515CC8400649086006480068FFF778FD82
:1021D000002048E7002002400010024000A3000851
:1021E00028000020200000200148006870470000FF
:1021F0002800002000B5FFF7F7FF04494968C1F344
:102200000221034A515CC84000BD0000001002409A
:1022100010A3000800B5FFF7E7FF04494968C1F3C0
:10222000C221034A515CC84000BD000000100240BA
:1022300010A3000870B50021002200240023002014
:10224000134D696801F00C05F5B1042D02D0082D7D
:1022500019D101E00F4819E00F4DC1F38346AB5D82
:1022600001F4803555B10A4D6D68C5F340450B4EFC
:10227000725D084D5D43B5FBF2F402E0084D03FBCF
:1022800005F4204602E000BF024800BF00BF70BD59
:102290000010024000127A00DCA20008ECA2000844
:1022A00000093D00F8B504460CB90120F8BD2078BE
:1022B00000F00100002878D0F848406800F00C00D9
:1022C00004280CD0F548406800F00C00082811D113
:1022D000F248406800F48030B0F5803F0AD1EF4802
:1022E000006800F4003000285FD0606800285CD1EE
:1022F0000120DBE700BF6068B0F5803F06D1E7480A
:10230000006840F48030E549086028E0606858B90A
:10231000E248006820F48030E04908600846006820
:1023200020F4802008601AE06068B0F5A02F0BD17F
:10233000DA48006840F48020D84908600846006800
:1023400040F4803008600AE0D448006820F480300F
:10235000D24908600846006820F48020086000BF69
:10236000606888B1FFF786FC054606E0FFF782FC4F
:10237000401B642801D9032098E7C848006800F48E
:1023800000300028F2D010E0FFF774FC054606E0AC
:10239000FFF770FC401B642801D9032086E7BF4883
:1023A000006800F400300028F2D1207800F002002C
:1023B000022857D1B948406800F00C0050B1B74826
:1023C000406800F00C00082818D1B448406800F4B8
:1023D000803098B9B148006800F0020020B120694F
:1023E000012801D0012061E7AC48006820F0F80026
:1023F000616940EAC100A949086033E02069E8B199
:102400000120A7490860FFF735FC054606E0FFF705
:1024100031FC401B022801D9032047E79F48006890
:1024200000F002000028F2D09C48006820F0F8007C
:10243000616940EAC1009949086013E000209849A9
:102440000860FFF717FC054606E0FFF713FC401B8A
:10245000022801D9032029E79048006800F0020013
:102460000028F2D1207800F0080008282DD1A069BA
:10247000B8B101208B490860FFF7FCFB054606E078
:10248000FFF7F8FB401B022801D903200EE7834821
:10249000406A00F002000028F2D0012001F0E8FEBE
:1024A00013E000207F490860FFF7E4FB054606E0E3
:1024B000FFF7E0FB401B022801D90320F6E677482E
:1024C000406A00F002000028F2D1207800F00400F9
:1024D000042873D100277148C06900F0805070B99A
:1024E00000BF6E48C06940F080506C49C861084622
:1024F000C06900F08050009000BF00BF01276A480B
:10250000006800F48070B0B96748006840F48070DB
:1025100065490860FFF7AEFB054606E0FFF7AAFB3A
:10252000401B642801D90320C0E65F48006800F41E
:1025300080700028F2D000BFE068012806D157481B
:10254000006A40F001005549086227E0E06858B988
:102550005248006A20F00100504908620846006AAB
:1025600020F00400086219E0E06805280BD14B4810
:10257000006A40F00400494908620846006A40F0D9
:10258000010008620AE04548006A20F00100434962
:1025900008620846006A20F00400086200BFE06894
:1025A000A0B1FFF767FB054609E0FFF763FB401B9F
:1025B00041F28831884202D9032077E622E0374889
:1025C000006A00F002000028EFD012E0FFF752FB93
:1025D000054608E0FFF74EFB401B41F28831884278
:1025E00001D9032062E62D48006A00F002000028AD
:1025F000F0D1012F05D12948C06920F0805027492A
:10260000C86100BFE069C8B32448406800F00C000E
:10261000082860D0E069022848D1002020490866D7
:10262000FFF728FB054606E0FFF724FB401B0228C6
:1026300001D903203AE61948006800F0007000282C
:10264000F2D1206AB0F5803F07D11448406820F4E9
:102650000030A168084311494860D4E908010843E3
:102660000E49496821F4741108430C49486001205F
:102670000B490866FFF7FEFA054607E03DE0FFF765
:10268000F9FA401B022801D903200FE6034800682D
:1026900000F000700028F2D02FE00000001002408F
:1026A0000000424280044242007000400020144971
:1026B0000866FFF7DFFA054606E0FFF7DBFA401B86
:1026C000022801D90320F1E50E48006800F00070EF
:1026D0000028F2D111E0E069012800D1E6E50948BF
:1026E000466806F48031206A814204D106F47011F4
:1026F000606A814201D00120D8E50020D6E50000C3
:102700000000424200100240042808D14FF0E021AE
:10271000096941F004014FF0E022116107E04FF038
:10272000E021096921F004014FF0E02211617047B6
:1027300070B504462546681EB0F1807F01D30120A4
:102740000FE0681E4FF0E02148610F214FF0FF308D
:1027500002F000FC00204FF0E021886107200861B2
:10276000002070BD7047704730B502460B4600BF71
:1027700092F83C00012801D1022030BD012082F8EE
:102780003C0000BF022082F83D00106844681068D9
:10279000816824F070041868044310684460104D88
:1027A0001068A8420BD01068B0F1804F07D00D4DD3
:1027B0001068A84203D00C4D1068A84205D121F042
:1027C00080015868014310688160012082F83D0053
:1027D00000BF002082F83C0000BF00BFCDE7000032
:1027E000002C0140000400400008004010B50446E1
:1027F0000CB9012010BD94F83D0028B9002084F8E0
:102800003C00204600F026F8022084F83D00211DFF
:10281000206801F065FE012084F8460000BF84F8BE
:102820003E0001213F200155402001554120015526
:1028300000BF00BF012084F842004320015544201E
:1028400001554520015500BF012084F83D000020BE
:10285000D0E7000038B504460D492068884215D1FC
:1028600000BF0C48806940F400600A49886108464E
:10287000806900F40060009000BF00BF00220521C5
:102880001920FFF783FA1920FFF770FA38BD00000E
:10289000002C014000100240014691F83D00012843
:1028A00001D001207047022081F83D000868C0680F
:1028B00040F001000B68D860124B086898420BD0BA
:1028C0000868B0F1804F07D00F4B0868984203D0DA
:1028D0000E4B086898420CD10868806800F0070227
:1028E000062A0CD00868006840F001000B681860E8
:1028F00005E00868006840F001000B6818600020DF
:10290000D0E70000002C0140000400400008004017
:1029100001460868C06820F001000A68D06000BF66
:102920000868006A41F21112104050B90868006A44
:102930009210104028B90868006820F001000A6869
:10294000106000BF012081F83D00002070472DE994
:10295000F04104460D46002700BF94F83C000128D2
:1029600002D10220BDE8F081012084F83C0000BFC4
:10297000022084F83D002068866826F0770626F459
:102980007F46206886602868502833D00CDC2028D9
:1029900050D004DC00284BD0102851D149E0302819
:1029A00049D040284CD139E060282DD0702807D07C
:1029B000B0F5805F03D0B0F5005F41D10DE041E09C
:1029C000D5E902136A68206801F0D5FD20688668A1
:1029D00046F077062068866034E0D5E902136A681D
:1029E000206801F0C8FD2068806840F480402168BC
:1029F000886027E0EA686968206801F08DFE502150
:102A0000206801F0C3FD1DE0EA686968206801F0F4
:102A100096FE6021206801F0B9FD13E0EA6869685C
:102A2000206801F079FE4021206801F0AFFD09E047
:102A300000BF00BF00BF2968206801F0A7FD01E0CA
:102A4000012700BF00BF012084F83D0000BF002027
:102A500084F83C0000BF384684E72DE9F041044685
:102A60000D4614B90120BDE8F08194F83D0028B965
:102A7000002084F83C00204600F052F8022084F840
:102A80003D002068806844F207018843216888601F
:102A9000211D206801F024FD2068D0F808802068FE
:102AA00086692068076A286840EA080840F203300F
:102AB0008643A969A86840EA0120064340F60C4015
:102AC00086434FF2F0008643E969E86840EA012056
:102AD000064328690001296A40EA0130064327F0CD
:102AE00022076969686840EA011007432068C0F856
:102AF00008802068866120680762012084F846000B
:102B000084F83E0001213F200155012084F8420055
:102B100043200155012084F83D000020A3E7000078
:102B200010B586B0044600200290039004900590F2
:102B30003149206888422CD100BF3048C06940F03C
:102B400002002E49C8610846C06900F002000190E9
:102B500000BF00BF00BF0846806940F004008861E4
:102B60000846806900F00400019000BF00BFC0204B
:102B7000029000200390049002A92148FEF7DCFE99
:102B8000002205211D20FFF701F91D20FFF7EEF8B7
:102B90002FE01C49206888422BD100BF1748C0692C
:102BA00040F004001549C8610846C06900F00400FF
:102BB000019000BF00BF00BF0846806940F00800D8
:102BC00088610846806900F00800019000BF00BFDE
:102BD000C020029000200390049002A90A48FEF74A
:102BE000ABFE002205211E20FFF7D0F81E20FFF7C4
:102BF000BDF806B010BD0000000400400010024007
:102C00000008014000080040000C01402DE9F0439D
:102C100004460D4694F83E603F20075D94F84280DC
:102C2000432010F804906DB9012E02D1B8F1010FC4
:102C300002D00120BDE8F083022084F83E0084F831
:102C4000420025E0042D0CD1012F02D1B9F1010F72
:102C500001D00120EEE702213F200155432001551C
:102C600016E0012E07D1012F05D1B8F1010F02D1D5
:102C7000B9F1010F01D00120DCE7022084F83E0009
:102C800002213F200155022084F8420043200155D3
:102C900015B1042D0CD105E001220021206801F0BE
:102CA00059FC10E001220421206801F053FC0AE0E5
:102CB00001220021206801F04DFC0122042120683E
:102CC00001F048FC00BF00BF2068006840F0010030
:102CD000216808600020ADE7704710B50446206801
:102CE0000069C0F34000D8B12068C068C0F340005C
:102CF000B0B16FF0020021680861012020772068E0
:102D0000806900F0030018B12046FFF7E5FF05E0F9
:102D1000204600F0E5F8204600F0AEF900202077CC
:102D200020680069C0F38000D8B12068C068C0F393
:102D30008000B0B16FF004002168086102202077A4
:102D40002068806900F4407018B12046FFF7C4FF86
:102D500005E0204600F0C4F8204600F08DF9002080
:102D6000207720680069C0F3C000D8B12068C0682F
:102D7000C0F3C000B0B16FF0080021680861042002
:102D800020772068C06900F0030018B12046FFF7E3
:102D9000A3FF05E0204600F0A3F8204600F06CF900
:102DA0000020207720680069C0F30010D8B12068A7
:102DB000C068C0F30010B0B16FF010002168086166
:102DC000082020772068C06900F4407018B12046C0
:102DD000FFF782FF05E0204600F082F8204600F071
:102DE0004BF9002020772068006900F0010058B1FD
:102DF0002068C06800F0010030B16FF00100216868
:102E00000861204600F0A4F920680069C0F3C010F2
:102E100058B12068C068C0F3C01030B16FF08000B6
:102E2000216808612046FFF79DFC20680069C0F317
:102E3000801058B12068C068C0F3801030B16FF0C6
:102E4000400021680861204600F08EF92068006982
:102E5000C0F3401058B12068C068C0F3401030B1D2
:102E60006FF02000216808612046FFF77CFC10BD50
:102E700010B586B00446002002900390049005909F
:102E80002068B0F1804F22D100BF1248806940F025
:102E90000800104988610846806900F00800019028
:102EA00000BF00BF4FF440600290022003900590E5
:102EB00002A90948FEF740FD00BF0849486820F410
:102EC000407040F0E06040F40070486000BF06B021
:102ED00010BD000000100240000C01400000014045
:102EE00070472DE9F04104460D461646002700BF05
:102EF00094F83C00012802D10220BDE8F0810120B5
:102F000084F83C0000BF36B1042E1BD0082E31D00F
:102F10000C2E5ED145E02946206801F041FB206877
:102F2000806940F00800216888612068806920F08D
:102F30000400216888612068806929690843216844
:102F4000886148E02946206801F05AFB20688069C2
:102F500040F40060216888612068806920F4806006
:102F60002168886120688069296940EA0120216818
:102F7000886130E02946206801F076FB2068C0694E
:102F800040F008002168C8612068C06920F0040092
:102F90002168C8612068C069296908432168C8613F
:102FA00019E02946206801F093FB2068C06940F4CD
:102FB00000602168C8612068C06920F480602168D1
:102FC000C8612068C069296940EA01202168C86198
:102FD00001E0012700BF00BF00BF002084F83C00D3
:102FE00000BF384689E710B504460CB9012010BD72
:102FF00094F83D0028B9002084F83C00204600F0F9
:1030000025F8022084F83D00211D206801F068FAAF
:10301000012084F8460000BF84F83E0001213F20D3
:103020000155402001554120015500BF00BF01203E
:1030300084F84200432001554420015545200155A4
:1030400000BF012084F83D000020D0E708B50168EA
:10305000B1F1804F0DD100BF0649C96941F00101AE
:10306000044AD1611146C96901F00101009100BF14
:1030700000BF08BD001002407047000070B5044654
:103080000D4615B994F83E000BE0042D02D13F2007
:10309000005D06E0082D02D14020005D01E04120E6
:1030A000005D012801D0012070BD1DB9022084F807
:1030B0003E000EE0042D03D102213F20015508E01F
:1030C000082D03D102214020015502E002214120B8
:1030D000015501222946206801F03CFA194920686F
:1030E000884201D1012000E0002028B12068406C16
:1030F00040F40040216848641249206888420BD09F
:103100002068B0F1804F07D00F492068884203D073
:103110000E49206888420CD12068806800F00706BC
:10312000062E0CD02068006840F00100216808607D
:1031300005E02068006840F0010021680860002078
:10314000B2E70000002C01400004004000080040ED
:1031500010B5044603492068884201D1FEF790FD6E
:1031600010BD0000002C0140704770477047000000
:103170002DE9F84F0446206805682068C668206875
:1031800047694FF00009CA4605F00F09B9F1000F71
:103190000AD105F0200038B106F0200020B1204609
:1031A00001F046FCBDE8F88FB9F1000F7BD007F0C5
:1031B000010018B906F49070002874D005F00100E1
:1031C00030B106F4807018B1606C40F001006064AA
:1031D00005F0040030B107F0010018B1606C40F058
:1031E0000200606405F0020030B107F0010018B180
:1031F000606C40F00400606405F0080048B106F01F
:10320000200010B907F0010018B1606C40F0080010
:103210006064606C002845D005F0200028B106F0FD
:10322000200010B1204601F003FC20684069C0F383
:10323000801A606C00F0080010B9BAF1000F2CD0B1
:10324000204601F09CFB2068406900F0400000B37C
:1032500000BF00BF2168143151E8001F21F0400079
:103260002168143141E80002002AF3D100BFE06B6D
:1032700050B17748E16B4863E06BFEF739F988B1EC
:10328000E06B416B88470DE02046FFF76FFF09E0D8
:1032900009E02046FFF76AFF04E02046FFF766FFDB
:1032A000002060647EE7206B012877D105F01000D4
:1032B000002873D006F010000028FAD000BF0020CC
:1032C000009020680068009020684068009000BF6F
:1032D00000BF2068406900F0400000285FD0E06B2C
:1032E000006840681FFA80F8B8F1000F55D0A08D33
:1032F000404552DDA4F82E80E06B8069202843D041
:1033000000BF00BF21680C3151E8001F21F480701C
:1033100021680C3141E80002002AF3D100BF00BF50
:1033200000BF2168143151E8001F21F0010021681D
:10333000143141E80002002AF3D100BF00BF00BFF2
:103340002168143151E8001F21F040002168143138
:1033500041E80002002AF3D100BF202084F8420097
:103360000020206300BF00BF21680C3151E8001F1E
:1033700021F0100021680C3141E80002002AF3D14D
:1033800000BFE06BFEF788F802206063A08DE28D3D
:10339000801A81B22046FFF7E8FE03E742E0A08DE5
:1033A000E18D401A1FFA80F8E08DD0B3B8F1000F1C
:1033B00037D000BF00BF21680C3151E8001F21F455
:1033C000907021680C3141E80002002AF3D100BF5F
:1033D00000BF00BF2168143151E8001F21F0010037
:1033E0002168143141E80002002AF3D100BF2020F7
:1033F00084F842000020206300BF00BF21680C3128
:1034000051E8001F21F0100021680C3141E8000252
:10341000002AF3D100BF0220606341462046FFF737
:10342000A4FEBFE605F0800030B106F0800018B1C0
:10343000204601F05DFCB5E605F0400030B106F035
:10344000400018B1204601F0D0FAABE600BFA9E673
:10345000DD47000810B504460CB9012010BDA06975
:1034600000B100E000BF94F8410028B9002084F8C2
:103470004000204600F02AF8242084F8410020680B
:10348000C06820F400502168C860204601F04EFB5F
:103490002068006920F49040216808612068406934
:1034A00020F02A00216848612068C06840F400507C
:1034B0002168C86000206064202084F8410084F8FE
:1034C00042000020606300BFC8E7000010B586B06E
:1034D0000446002002900390049005905349206810
:1034E00088422FD100BF5248806940F48040504943
:1034F00088610846806900F48040019000BF00BFE9
:1035000000BF0846806940F0040088610846806971
:1035100000F00400019000BF00BF48150290022097
:1035200003900320059002A94248FEF705FA4FF4E4
:103530008060029000200390049002A93D48FEF7AD
:10354000FBF970E03C49206888426CD100BF3848E4
:10355000C06940F400303649C8610846C06900F4CB
:103560000030019000BF00BF00BF0846806940F0F6
:10357000040088610846806900F00400019000BFE3
:1035800000BF04200290022003900320059002A9AE
:103590002848FEF7D1F908200290002003900490FB
:1035A00002A92448FEF7C8F92448254908600020EC
:1035B00048600021224881608021C16000210161B2
:1035C0004161202181610021C161FEF7B7F808B196
:1035D000FDF746FD00BF1A48E063446200BF17488C
:1035E0001430184908601020486000211548816097
:1035F0008021C160002101614161202181610021A0
:10360000C161FEF79BF808B1FDF72AFD00BF0D4828
:10361000A063446200BF002205212620FEF7B6FB0E
:103620002620FEF7A3FB06B010BD000000380140C5
:103630000010024000080140004400406C000240BD
:10364000DC0500202006002070B504460D46164615
:1036500094F8420020280BD105B10EB9012070BDAD
:103660000020206332462946204601F0DDFAF6E7C5
:103670000220F4E770477047F7B50446154694F802
:103680004100202836D1019800B10DB90120FEBDBE
:1036900001982062A584E58400206064212084F8DC
:1036A00041001548A16B88621448A16BC862144898
:1036B000A16B08630020A16B486301AE23681A1D4B
:1036C00031682B46A06BFEF76DF86FF04000216863
:1036D000086000BF00BF2168143151E8001F41F0AD
:1036E00080002168143141E80002002AF3D100BFB4
:1036F0000020CCE70220CAE71949000871490008F8
:10370000F14700087047704710B50122114606487E
:10371000FEF7AAFA142002F047FE00220121024817
:10372000FEF7A2FA10BD0000000C014000BFFEE74A
:103730000EB50020009001900290114811490860D8
:10374000002110488160017301754FF46021C1614F
:1037500000200C49486001210A480161FDF7C2FDC3
:1037600008B1FDF77DFC012000900190002002903F
:1037700069460448FDF706FD08B1FDF771FC0EBD72
:1037800000240140FC03002008B500BF0E4840693A
:1037900040F001000C4948610846406900F0010012
:1037A000009000BF00BF002205211020FEF7EEFAB6
:1037B0001020FEF7DBFA002205211120FEF7E6FAC1
:1037C0001120FEF7D3FA08BD0010024000B59FB0EB
:1037D00000201D901E9001211DA804F070FF1B49C0
:1037E00008601C221A4916A8FCF74DFD002116A8F6
:1037F00004F08AFF174908601C2215491C310FA8E4
:10380000FCF741FD00210FA804F07EFF124908607B
:103810001C220F49383108A8FCF735FD002108A803
:1038200004F072FF0D4908601C220949543101A8B7
:10383000FCF729FD002101A804F066FF0849086093
:103840000548006805F03CFF1FB000BD10000020D7
:103850006CA20008000000200400002008000020E6
:103860000C00002000B585B000200190029003906C
:10387000049000BF5548806940F0100053498861AA
:103880000846806900F01000009000BF00BF00BF34
:103890000846806940F0200088610846806900F091
:1038A0002000009000BF00BF00BF0846806940F0C4
:1038B000040088610846806900F00400009000BFA1
:1038C00000BF00BF0846806940F0080088610846D4
:1038D000806900F00800009000BF00BF00224FF494
:1038E000C0413B48FEF7C0F9012241F6300139489A
:1038F000FEF7BAF900224FF201013748FEF7B4F99A
:1039000001224FF440713448FEF7AEF94FF4C04045
:10391000019001200290002003900220049001A950
:103920002B48FEF709F841F6300001900120029083
:10393000002003900320049001A92648FDF7FCFF16
:103940004FF20130019001200290002003900220EC
:10395000049001A92048FDF7EFFF022001901F48C5
:1039600002900020039001A91B48FDF7E5FF4FF4EA
:10397000014001901A4802900020039001A91548C7
:10398000FDF7DAFF382001901548029000200390DF
:1039900001A91148FDF7D0FF002205210720FEF7FD
:1039A000F5F90720FEF7E2F9002206210920FEF7CB
:1039B000EDF90920FEF7DAF9002206210A20FEF7C8
:1039C000E5F90A20FEF7D2F905B000BD001002406B
:1039D0000010014000080140000C014000003110BF
:1039E0000000111000B587B00020039004900590EE
:1039F00006900190029015481549086041F61F4055
:103A0000486000211248816041F28831C160002184
:103A1000016141618161FEF7E9FE08B1FDF720FB1C
:103A20004FF48050039003A90948FEF790FF08B1B6
:103A3000FDF716FB00200190029001A90448FEF753
:103A400093FE08B1FDF70CFB07B000BD002C014050
:103A50002C04002000B589B00020079008901C219C
:103A60006846FCF729FC4FF080401B49086047205E
:103A7000486000211848816040F2E731C1600021B0
:103A800001618161FFF7AFFA08B1FDF7E9FA0020A3
:103A90000790089007A91048FEF766FE08B1FDF7E9
:103AA000DFFA60200090002001900290049008222C
:103AB00069460948FFF715FA08B1FDF7D1FA0C225B
:103AC00069460548FFF70DFA08B1FDF7C9FA024843
:103AD000FFF7CEF909B000BD7404002000B58BB02B
:103AE000242102A8FCF7E8FB002000900190184870
:103AF00018490860002048600021164881604FF690
:103B0000FF71C160002101618161032002900020EA
:103B1000039001200490002005900690079001205A
:103B20000890002009900A9002A90A48FEF795FF24
:103B300008B1FDF795FA002000900190694605480C
:103B4000FEF712FE08B1FDF78BFA0BB000BD0000C6
:103B500000040040BC04002000B58BB0242102A862
:103B6000FCF7AAFB00200090019018481849086053
:103B7000002048600021164881604FF6FF71C16047
:103B80000021016181610320029000200390012047
:103B900004900020059006900790012008900020D6
:103BA00009900A9002A90A48FEF757FF08B1FDF7ED
:103BB00057FA00200090019069460548FEF7D4FDB1
:103BC00008B1FDF74DFA0BB000BD00000008004041
:103BD0000405002010B50B480B4908604FF4E13094
:103BE0004860002108488160C16001610C21416189
:103BF00000218161C161FFF72DFC08B1FDF730FAAA
:103C000010BD0000003801404C05002010B50B48E5
:103C10000B4908604FF41650486000210848816045
:103C2000C16001610C21416100218161C161FFF727
:103C300011FC08B1FDF714FA10BD0000004400406B
:103C40009405002000BFFEE700BFFEE770B500242A
:103C50000EE00021204600F006F9002504E00020D7
:103C600000F042FA681CC5B2802DF8DB601CC4B2BB
:103C7000082CEEDB70BD000000B585B0002001907F
:103C800002900390049000BF1548806940F0040042
:103C9000134988610846806900F00400009000BF65
:103CA00000BF01224FF4C0510E48FDF7DDFF4FF475
:103CB000C050019011200290002003900320049036
:103CC00001A90848FDF738FE012211030548FDF758
:103CD000CBFF0122D1020348FDF7C6FF05B000BDAE
:103CE000001002400008014070B50546002415E0B0
:103CF0008020204100EA05024FF400611148FDF7E1
:103D0000B3FF012211030F48FDF7AEFF00224FF46D
:103D100080510C48FDF7A8FF601CC4B2082CE7DBFB
:103D20000122D1020748FDF79FFF01221103054838
:103D3000FDF79AFF00224FF480510248FDF794FFEF
:103D400070BD00000008014010B50122D1020A48F0
:103D5000FDF78AFF012211030748FDF785FF0022C6
:103D60004FF400610448FDF77FFF00224FF48051BB
:103D70000148FDF779FF10BD0008014010B5002291
:103D80004FF400610648FDF76FFF0122110304485C
:103D9000FDF76AFF0122D1020148FDF765FF10BD62
:103DA0000008014070B5002406E0002500E06D1C0D
:103DB000B5F57A7FFBD3641CB4F57A7FF5D3FFF7B2
:103DC0005BFFAE2000F080F9D52000F07DF9802067
:103DD00000F07AF9A82000F077F93F2000F074F99C
:103DE000D32000F071F9002000F06EF9402000F0BF
:103DF0006BF9A12000F068F9C82000F065F9DA201D
:103E000000F062F9122000F05FF9812000F05CF907
:103E1000CF2000F059F9D92000F056F9F12000F038
:103E200053F9DB2000F050F9302000F04DF9A420C8
:103E300000F04AF9A62000F047F98D2000F044F97F
:103E4000142000F041F9AF2000F03EF9FFF7FEFE2C
:103E500070BD10B50246012000E050430B1EA1F1D9
:103E60000101FAD110BD70B505460C4645F0B00011
:103E700000F02AF9102141EA141000F025F904F0AD
:103E80000F0000F021F970BD10B546A201210846CF
:103E900000F006F94548006828B945A2062101202E
:103EA00000F0FEF80DE041480068012804D142A26C
:103EB000062100F0F5F804E041A20621012000F0FF
:103EC000EFF841A20121022000F0EAF80323414863
:103ED0000A210268022000F0C1F83FA2012103205C
:103EE00000F0DEF83DA20721032000F0D9F83CA243
:103EF0000B21032000F0D4F83A49C8680021FCF7F0
:103F0000A5FC10D22B220321084600F06DF835499C
:103F1000C868FCF7FEFB0446022322460421032066
:103F200000F09CF80FE02D220321084600F05CF819
:103F30002C49C868FCF7EDFB044602232246042105
:103F4000032000F08BF827490869FCF7E2FB0446E0
:103F5000022322460921032000F080F82149486904
:103F6000FCF7D7FB0446022322460D21032000F074
:103F700075F81C48B0F9062002230121042000F046
:103F80006DF81848B0F9082002230621042000F03B
:103F900065F81448B0F90A2002230C21042000F02F
:103FA0005DF810BD4D6F64653A0000002C000020E4
:103FB00052454D4F544500004155544F20200000BC
:103FC000464F4C4C4F57200064697374616E6365B3
:103FD0003A000000B8000020703A0000723A000079
:103FE00079000000640600202DE9F04105460E46E8
:103FF0001746721ED206110E6A1E5206100EFFF7E9
:1040000032FF002409E0A7F12001134A02EB01115D
:10401000085D00F069F8601CC4B2082CF3DB721E66
:10402000D206110E6A1E012303EB4202D0B2FFF743
:104030001AFF00240BE0A7F12001074A02EB01124E
:1040400004F10801505C00F04FF8601CC4B2082C69
:10405000F1DBBDE8F081000018A300082DE9F0476E
:1040600080460E4617461D46002415E0281B411EBB
:104070000A20FFF7EEFEB7FBF0F00A21B0FBF1F2E9
:1040800001FB120000F130093019C1B24A46404626
:10409000FFF7AAFF601CC4B2AC42E7DBBDE8F087C3
:1040A0002DE9F04107460E461546002407E02A5D3B
:1040B0003019C1B23846FFF797FF601CC4B2285DC3
:1040C0000028F4D1BDE8F08110B50446FFF73CFEAE
:1040D0007820FFF709FE0020FFF706FE2046FFF7D5
:1040E00003FEFFF74BFE10BD10B50446FFF72CFE94
:1040F0007820FFF7F9FD4020FFF7F6FD2046FFF797
:10410000F3FDFFF73BFE10BD10B502464FF47A6099
:1041100044421368A34201DA4342136013688342A6
:1041200000DD106044420B68A34201DA43420B6099
:104130000B68834200DD086010BD00002DE9F05FD0
:104140008346894614461D46B4F1000A01DB5046F9
:1041500001E0CAF100002E1E01DB314600E0714291
:104160000844782818DD4846FCF706FB07464FF060
:1041700066320F4BFCF72CFB0ED24846FCF7FCFADC
:1041800007460C4A0C4BFCF70BFB05D20B4800888A
:10419000401C0A49088002E00020084908800748BE
:1041A00000880A2802DD0120BDE8F09F0020FBE71F
:1041B00066E633C09A99999999193440AE00002067
:1041C0002DE9F04180460D4614462348007810B989
:1041D0000020BDE8F08121480088B8B94046FCF7CE
:1041E000CBFA06461E4A1F4BFCF7F2FA0ED24046A7
:1041F000FCF7C2FA06464FF033321B4BFCF7D0FAFD
:1042000004D21DB914B9012014490880134800884C
:1042100001281FD115480088401C80B2134908802E
:10422000192803DD002008800C4908802946201E3B
:1042300001DB024600E04242002901DB0B4600E0C0
:104240004B421A44052A05DD0020044908800880F5
:104250000120BEE70020BCE764000020B40000207D
:10426000CDCCCCCCCCCC23C033332440B600002002
:1042700008B508490968C9084FF47A72B1FBF2F130
:104280004143009100BF00BF00994A1E00920029DF
:10429000F9D108BD280000200146012902D00229D9
:1042A0000ED106E0084A126810B20022064B1A60CE
:1042B00008E0064A126810B20022044B1A6001E0BE
:1042C000002000BF00BF70472404004024080040C5
:1042D00070B504460D46002C0BDD0122D1032248A7
:1042E000FDF7C2FC00224FF480411F48FDF7BCFCE3
:1042F0000AE000224FF400411B48FDF7B5FC012203
:1043000091031948FDF7B0FC201E01DB014600E0D7
:104310004142164A126811444FF08042D163002D89
:104320000BDD012211031048FDF79EFC00224FF423
:1043300000510D48FDF798FC0AE000224FF480512F
:104340000948FDF791FC012251030748FDF78CFC59
:10435000281E01DB014600E04142044A1268114474
:104360004FF08042116470BD000C014068000020D5
:1043700000BFFCF719FD142004F090F9F9E70000E4
:1043800001F0DEFDC4B214B10AA000F0B7FD01F0E7
:1043900095FBC4B214B10EA000F0B0FD1448006843
:1043A00005F0EEF800BFFCF7D5FC022004F076F92A
:1043B000F9E7000041544B2D4D533630353020691C
:1043C0006E6974206661696C6564210D0A000000E5
:1043D00041544B2D4D533630353020444D502069DB
:1043E0006E6974206661696C6564210D0A000000C5
:1043F00004000020FFF7D6FC00BFFCF7F7FDC82043
:1044000004F04CF9F9E700BF01F014FF0A2004F0B2
:1044100045F9F9E710B5FDF733FC05F041FD01283A
:1044200001D005F091FA10BD00B593B0282109A87C
:10443000FBF742FF142104A8FBF73EFF0020009089
:104440000190029003900120099000040A9000203E
:104450000B9001200D9002201090C10311914FF498
:10446000E011129109A8FDF71DFF08B1FCF7F8FD56
:104470000F20049002200590002006904FF48060E9
:10448000079000200890022104A8FDF7E7FD08B17D
:10449000FCF7E6FD02200090800302906846FDF7DD
:1044A00045FD08B1FCF7DCFD13B000BD704700000E
:1044B00010B50248FEF711FC10BD00002C040020CE
:1044C00010B50248FEF709FC10BD0000BC04002036
:1044D00010B50248FEF701FC10BD000004050020E5
:1044E00010B50268184B984208D0B0F1804F05D043
:1044F000164B984202D0164B984203D122F070021C
:104500004B681A43104B984208D0B0F1804F05D049
:104510000E4B984202D00E4B984203D122F44072C7
:10452000CB681A4322F080034C6943EA040202601C
:104530008B68C3620B688362034B984201D10B699D
:1045400003630123436110BD002C014000040040BF
:104550000008004030B501F01F05012404FA05F3FE
:10456000046A9C430462046A01F01F0502FA05F51F
:104570002C43046230BD30B50C46816821F47F4184
:1045800042EA032525432943816030BD0A468168FC
:1045900021F0700142F00703194381607047000069
:1045A00030B5026A056A25F0010505624368846931
:1045B00024F0700424F003040D682C4322F002025E
:1045C0008D682A430D4DA84206D100BF22F0080293
:1045D000CD682A4322F00402084DA84207D123F4F3
:1045E000807323F400734D692B438D692B43436023
:1045F00084614D684563026230BD0000002C0140BB
:1046000030B5026A056A25F01005056243688469C1
:1046100024F4E04424F440740D6844EA052422F0B4
:1046200020028D6842EA05120E4DA84207D100BF54
:1046300022F08002CD6842EA051222F04002094DC4
:10464000A84209D123F4806323F400634D6943EA4F
:1046500085038D6943EA8503436084614D68856302
:10466000026230BD002C014030B5026A056A25F4B3
:10467000807505624368C46924F0700424F0030463
:104680000D682C4322F400728D6842EA05220F4D1A
:10469000A84207D100BF22F40062CD6842EA052299
:1046A00022F48062094DA84209D123F4805323F4F7
:1046B00000534D6943EA05138D6943EA05134360CE
:1046C000C4614D68C563026230BD0000002C01402A
:1046D00030B5036A056A25F4805505624468C269ED
:1046E00022F4E04222F440720D6842EA052223F4EB
:1046F00000538D6843EA0533064DA84204D124F4E3
:1047000080444D6944EA85144460C2614D68056483
:10471000036230BD002C014030B50B461446026ADE
:10472000056A25F001050562816921F0F00141EA81
:10473000041122F00A021A438161026230BD30B5D1
:104740000B461446026A056A25F010050562816968
:1047500021F4704141EA043122F0A00242EA03123E
:104760008161026230BD00002DE9F0410546284616
:10477000FCF702F821F0004106460022134BFCF73B
:1047800027F803D312480078012818D101201149D5
:10479000087001240022C1030F48FDF765FA0022CA
:1047A000A1030D48FDF760FA002221030A48FDF736
:1047B0005BFA002261030848FDF756FA00E0002486
:1047C0000020044908702046BDE8F0810000444004
:1047D0006400002094000020000C014070B50546E4
:1047E0006C6A0020E085E0842046FEF7BFFC70BDC7
:1047F00070B506460025746A20684069C0F3C0158C
:1048000094F84100212805D125B10020E0842046FC
:1048100000F0FBF820684069C0F3801594F842006E
:10482000222805D125B10020E085204600F0A7F818
:10483000606C40F0100060642046FEF797FC70BD8D
:1048400070B505466C6A2868006800F020000028F2
:1048500042D1E08500BF00BF21680C3151E8001F44
:1048600021F4807021680C3141E80002002AF3D164
:1048700000BF00BF00BF2168143151E8001F21F0C4
:1048800001002168143141E80002002AF3D100BF81
:1048900000BF00BF2168143151E8001F21F0400023
:1048A0002168143141E80002002AF3D100BF202022
:1048B00084F84200206B01280ED100BF00BF2168A0
:1048C0000C3151E8001F21F0100021680C3141E843
:1048D0000002002AF3D100BF00206063206B012892
:1048E00004D1A18D2046FEF740FC02E02046FEF7F1
:1048F000C1FE70BD70B505466C6A01206063206B17
:10490000012805D1A08D41082046FEF72EFC02E0CB
:104910002046FEF7B0FE70BD70B505466C6A28688B
:10492000006800F02000F8B90020E08400BF00BF5C
:104930002168143151E8001F21F0800021681431F2
:1049400041E80002002AF3D100BF00BF00BF216888
:104950000C3151E8001F41F0400021680C3141E862
:104960000002002AF3D102E02046FEF7CBFE70BD24
:1049700070B50446656A2846FEF7C5FE70BD00BFE7
:1049800000BF02680C3252E8002F22F490710268D6
:104990000C3242E80013002BF3D100BF00BF00BF70
:1049A0000268143252E8002F22F00101026814322A
:1049B00042E80013002BF3D100BF016B01290ED197
:1049C00000BF00BF02680C3252E8002F22F0100135
:1049D00002680C3242E80013002BF3D100BF202103
:1049E00080F8421000210163704710B5044620682A
:1049F000C06820F040002168C860202084F8410091
:104A00002046FEF77FFE002010BD00BF00BF0268F9
:104A10000C3252E8002F22F0C00102680C3242E84A
:104A20000013002BF3D100BF202180F84110704704
:104A3000F8B5044694F84200222875D1A068B0F574
:104A4000805F0CD1206950B90025A66A20684068B3
:104A5000C0F308003080A06A801CA06215E0A56A3F
:104A60000026A068B0F5805F03D0A06828B920694F
:104A700018B920684068287004E02068406800F099
:104A80007F002870A06A401CA062E08D401E80B2AA
:104A9000E085002846D12068C06820F02000216809
:104AA000C8602068C06820F480702168C8602068F1
:104AB000406920F0010021684861202084F842000C
:104AC00000206063206B012826D10020206300BFF6
:104AD00000BF21680C3151E8001F21F0100021684F
:104AE0000C3141E80002002AF3D100BF20680068C1
:104AF00000F0100010280AD100BF002000902068AC
:104B00000068009020684068009000BF00BFA18D41
:104B10002046FEF72AFB02E02046FEF7ABFD002010
:104B2000F8BD01E00020FBE70220F9E770B504467C
:104B30002168096921F44051E2681143226811613A
:104B40002269A1681143626941EA02052168C968C6
:104B500041F20C62914329432268D160216849697E
:104B600021F44071A2691143226851612D4A2168E4
:104B7000914202D1FDF74EFB01E0FDF73BFB00EB5C
:104B8000C00101EB001162689200B1FBF2F100EB91
:104B9000C00202EB001263689B00B2FBF3F26423D5
:104BA000B2FBF3F202EBC20303EB0212A1EB8201B0
:104BB000322202EB01116422B1FBF2F101F0F001AB
:104BC00000EBC00202EB001263689B00B2FBF3F241
:104BD0006423B2FBF3F201EB021200EBC00101EB24
:104BE000001163689B00B1FBF3F100EBC00303EB22
:104BF00000136668B600B3FBF6F36426B3FBF6F366
:104C000003EBC30606EB0313A1EB8301322303EB93
:104C100001116423B1FBF3F101F00F01114422688B
:104C2000916070BD0038014077B581B004461546EB
:104C30000298A062A58500206064222084F84200CA
:104C40002848E16B88622848E16BC8622748E16B1D
:104C500008630020E16B486302AE32682368191DC7
:104C60002B46E06BFCF79EFD00BF00200090206803
:104C70000068009020684068009000BF00BF206975
:104C800070B100BF00BF21680C3151E8001F41F432
:104C9000807021680C3141E80002002AF3D100BF86
:104CA00000BF00BF2168143151E8001F41F001002E
:104CB0002168143141E80002002AF3D100BF00BF8F
:104CC00000BF2168143151E8001F41F04000216805
:104CD000143141E80002002AF3D100BF002004B0E3
:104CE00070BD000041480008F5480008F147000881
:104CF000014691F84100212828D18868B0F5805FED
:104D00000BD1086948B90A6A1088C0F308000B681B
:104D10005860086A801C086205E00B6A581C08622B
:104D200018780B685860C88C401E80B2C88458B987
:104D30000868C06820F080000B68D8600868C06808
:104D400040F040000B68D860002070470220FCE76C
:104D500010B50248FEF70CFA10BD000094050020C3
:104D600000BFFEE72DE9F05F81460C464846FBF7A1
:104D700003FD07460E4A0F4BFBF71FFC0546FBF7EA
:104D80003FFD82460C4881682046FBF705FB06463E
:104D9000094908685146FBF7FFFA07463146FBF719
:104DA000A3FA0546FBF79CFC83465846BDE8F09FF6
:104DB0009A9999999999B93F700000202DE9F04787
:104DC00004460D4616461F4661190846FBF76DFC62
:104DD0002D4908602D492E480068FBF7DDFA2C4963
:104DE00008602C4928480068FBF7D6FA8046284816
:104DF00001684046FBF778FA2549086008460168D3
:104E000025480068FBF770FA2349086039462248B4
:104E10000068FBF7BBFA2049086020491E4800687B
:104E2000FBF714FD02D21D481B4908601C491A48B3
:104E30000068FBF701FD02D21948174908601948BC
:104E4000016915480068FBF7A7FA80461548C16854
:104E50000F480068FBF7A0FA81464146FBF744FA89
:104E6000114908603046FFF77FFC012803D00F4846
:104E70000078012802D10020074908600A4800682C
:104E8000FBF72EFCBDE8F0879C000020CDCC4C3F0A
:104E9000A0000020CDCC4C3EA400002000401C46C9
:104EA00000401CC670000020980000206400002014
:104EB0002DE9F04705460C462846FBF7F6FB07466A
:104EC0002046FBF7F2FB82460B48016A5046FBF78F
:104ED00063FA804687F0004A074881695046FBF72D
:104EE0005BFA81464146FBF751FA06463046FBF72E
:104EF000F7FBBDE8F0870000700000200FB4054B01
:104F000010B503A9044A029800F0B6F810BC5DF889
:104F100014FB0000A96F000888010020490050EA36
:104F2000C12018BF04204A0D18BF40F0010040F214
:104F3000FF72B2EB515F08BF40F00200012808BFCA
:104F40000520704702480068C0F302207047000047
:104F50000CED00E010B5002804DB0A07130E054A2B
:104F6000135406E00A07140E034A00F00F031B1F38
:104F7000D45410BD00E400E018ED00E02DE9F0414C
:104F80004F1E00EBC7010446D1E9000115461E463D
:104F900037F006020DD02A463346FBF714FB7F1E7E
:104FA00004EBC703D3E90023FBF766FA37F00602E8
:104FB000F1D1022F25D0042F13D0062F18BFBDE842
:104FC000F0812A463346FBF7FEFAD4E90A23FBF7C1
:104FD00053FA2A463346FBF7F6FAD4E90823FBF7DF
:104FE0004BFA2A463346FBF7EEFAD4E90623FBF7E1
:104FF00043FA2A463346FBF7E6FAD4E90423FBF7E3
:105000003BFA2A463346FBF7DEFAD4E90223FBF7E4
:1050100033FA2A463346FBF7D6FAD4E90023BDE833
:10502000F041FBF729BA0122FBF785BDFBF724BA53
:105030000022134610461146FBF70EBD024A00201F
:105040001107FBF778BD000001FDFFFF02E008C873
:10505000121F08C1002AFAD170477047002001E0F2
:1050600001C1121F002AFBD17047000001490860EE
:10507000704700008C0100202DE9FF4F89B09B464E
:105080000446002506E025280BD05A460B99904788
:10509000641C6D1C20780028F5D10DB02846BDE8B1
:1050A000F08F0027B8460122474900E0074314F873
:1050B000013F203B02FA03F00842F7D120782E2866
:1050C00019D114F8010F47F004072A280ED06FF009
:1050D0002F022078A0F1300109290CD808EB8801B3
:1050E00002EB410100EB0108641CF2E70A98641C22
:1050F00050F8048B0A9020780028CED0642808D07D
:10510000692806D075281ED05A460B9990476D1C09
:1051100058E00A994FF00A0901C90A91002802DAF9
:1051200040422D2102E0390504D52B218DF82010B5
:10513000012103E0F90704D02021F7E78A4608AEF1
:105140000DE00021FAE70A994FF00A0901C90A9116
:10515000F7E74946FBF784FB303106F8011D0028CC
:10516000F7D1ADEB060000F12009780701D44FF02C
:105170000108C84502DDA8EB090000E000208046D8
:10518000002706E008A85A46C05D0B9990476D1CA1
:105190007F1C5745F6DB04E030205A460B999047B8
:1051A0006D1CB8F10001A8F10108F5DC05E016F866
:1051B000010B5A460B9990476D1CB9F10001A9F1FA
:1051C0000109F4DC641C65E7092801002DE9FE4FA4
:1051D00006460F460025684601F0F4FE002442E032
:1051E00056F8240057F82410A0EB010ABAF1000F7A
:1051F00001DB514601E0CAF100010846FBF755FA10
:1052000083464FF08F41FBF7F9F880465DF82400A4
:105210000021FBF711FB16D05DF824104046FBF788
:10522000EDF882464FF07E51FBF7B0F8814629F049
:10523000004A0F48416A5046FBF708FB12D2012092
:10524000A04005430EE00A48C1694046FBF7F4FA66
:1052500005D30748016A4046FBF7F8FA02D201205D
:10526000A0400543641C032CBADB2846BDE8FE8F32
:10527000D0A900082DE9F04D8D4F21F0004A86B0ED
:1052800005460C46BA452ADBAAEB070028430AD09C
:105290008848824501DC1AD1CDB106B02846BDE868
:1052A000F04DFFF7C0BE844A844B2846FBF78BF9CC
:1052B00007460E46824A834B28462146FBF783F970
:1052C00006B03A463346BDE8F04DFBF7D5B80120AD
:1052D000FFF7CCFE06B0BDE8F04DFFF7A9BE7A4857
:1052E000824542DABAF1795F0BDA2846FFF716FEFB
:1052F000042808BFFFF7A2FE284606B02146BDE8F5
:10530000F08D2A460B461046FBF75DF983460246B0
:105310006E480E460B4606217844FFF72FFE5A468C
:105320003346FBF750F9804669488A465A46334669
:1053300004217844FFF722FE5A463346FBF743F92F
:1053400000223B46FBF798F802460B464046514682
:10535000FBF782FB2A462346FBF735F906B02A46BF
:105360002346BDE8F04DFBF787B8284624F00041FE
:1053700000223D463B46FBF723F94FF0FF32FBF797
:10538000DAFB0646024653480F460B460621784490
:10539000FFF7F4FD32463B46FBF715F9CDE9000176
:1053A0004D4832463B4604217844FFF7E7FD32463C
:1053B0003B46FBF708F900222B46FBF75DF88346D6
:1053C00002913046394603F05DFF804643480D4662
:1053D000504517DCDDE900015A46029BFBF73CFB18
:1053E00042462B46FBF7EFF842462B46FBF744F8C4
:1053F0000122FBF7A0FB304A304BFBF7DEF8304AC6
:10540000304B4CE04FF0000A52460B464046FBF74B
:1054100033F8CDE9031052462B4610461946FBF7E8
:10542000D2F832463B46FBF7CBF8DDE90332FBF717
:1054300013FB06460F46DDE900015A46029BFBF7C7
:105440000BFB83460091012230463946FBF773FB84
:10545000194A1A4BFBF7B4F806460F46012240469C
:105460002946FBF768FB5A46009BFBF7ACF832462F
:105470003B46FBF7A2F806460F4601225046294656
:10548000FBF759FB0E4DDFF858802A464346FBF7E1
:1054900097F832463B46FBF793F82A464346FBF71C
:1054A0008FF8002CD8BF81F0004106B0BDE8F08D28
:1054B0000000F03F0000F07F075C143326A6913C0B
:1054C000182D4454FB21F93F0000E03FD462000056
:1054D000EA6200005E620000746200003333EF3F56
:1054E000FB21E93F2DE9F84F04460D4621F000402D
:1054F00000917349814211DC7249884201DC06D176
:105500002CB120462946BDE8F84FFFF78CBD6E4808
:10551000002DCCBF6D496E49BDE8F88F6D498142C1
:1055200011DD6D498142D8BF4FF0FF366DDD204659
:105530002946FFF7F3FC042808BFFFF77FFD20464C
:105540002946BDE8F88F6549654F25F00045814241
:1055500033DD6449814219DD002632464FF0804335
:1055600020462946FAF788FF80468A4601222046CF
:105570002946FBF7E0FA00223B46FBF71EF84246BD
:105580005346FBF769FA04460D463EE00126002229
:10559000BA463B4620462946FAF76EFF80460F463C
:1055A0000022534620462946FBF707F842463B4671
:1055B000FBF752FA04460D4627E04B4981421BDDBA
:1055C000DFF828A102260022534620462946FAF792
:1055D000FAFF00223B46FAF74FFF80460F460022B3
:1055E000534620462946FAF7E8FF42463B46FBF77A
:1055F00033FA04460D4608E0032622462B460020D7
:105600003B49FBF729FA04460D4622462B46104635
:105610001946FAF7D8FF8B46824602460B46FAF740
:10562000D2FF07460246334888460B460621784497
:10563000FFF7A4FC52465B46FAF7C5FF82462E48A8
:105640008B463A46434605217844FFF797FC3A4695
:105650004346FAF7B8FF02460B46002E504659461D
:105660000CDAFAF709FF22462B46FAF7ACFF01B035
:1056700022462B46BDE8F04FFAF7A2BFFAF7FCFE30
:1056800022462B46FAF79FFF1C4A7A4402EBC603D8
:10569000D3E90023FAF791FF22462B46FAF78DFF54
:1056A000174A7A4402EBC603D3E90023FAF788FFCE
:1056B000009A002AB8BF81F00041BDE8F88F0000D1
:1056C000000010440000F07F182D4454FB21F93FE6
:1056D000FB21F9BF0000DC3F0000203E0000F33F4B
:1056E0000000F03F0000E63F008003400000F83F6C
:1056F0000000F0BF7660000034600000D25F000060
:105700009A5F00002DE9F04D9446CCF1000423F09F
:1057100000464CEA0404594F46EAD4749A46884637
:1057200021F00042BC4206D8454240EA050442EA64
:10573000D474BC4204D9BDE8F04D6246FFF776BC94
:10574000AAF14055A5F17F6555EA0C040BD002245F
:1057500004EAAA744A4DDFF82CE144EAD87452EA0C
:10576000000B04D00CE0BDE8F04DFFF7BBBE002CF1
:1057700014BF012CBDE8F08D022C30D0032C32D0A8
:1057800056EA0C0B0AD0BE4220D1BA4209D126F00B
:10579000804622F080423346114617E000291ADB8A
:1057A00025E0DFF8E4B0FB44002C04BFDBE9000196
:1057B000BDE8F08D012C02BFDBE9000181F0004162
:1057C000BDE8F08D022C0AD0032C0CD0BA4212D1C5
:1057D000B8F1000F0BDA2A482C49BDE8F08D2846B5
:1057E0002B49BDE8F08D28467146BDE8F08D244870
:1057F0002849BDE8F08D921B12153C2AC4BF204FEA
:10580000244E10DCBAF1000FBEBF12F13C0F00278E
:105810003E4608DB6246FBF71FF921F00041FFF727
:1058200061FE07460E4694B1012C08BF86F0004683
:105830000DD0194A194B022C3846314615D0FAF7CB
:10584000BCFE2A46BDE8F04D114BFAF7B6BE002269
:10585000134638463146FAF7A3FF04BF0220FFF78C
:1058600005FC38463146BDE8F08DFAF7A6FE2A461B
:10587000BDE8F04D064BFAF7A3BE00000000F07F34
:10588000182D4454FB2109C02E5F0000FB21F9BFF5
:10589000FB210940FB21F93F075C143326A6A13CFC
:1058A0002DE9F04F99B004460D4616460027B8463C
:1058B000B946BA4612A814A913AB0EAACDE9001036
:1058C00015A917A800F016FF18B1012019B0BDE8FE
:1058D000F08FBDF8500000F4807000287ED00E9844
:1058E000FAF7E3FE83464FF09D41FAF787FD07463E
:1058F0000F98FAF7DAFE83464FF09D41FAF77EFDE6
:1059000080461098FAF7D1FE83464FF09D41FAF792
:1059100075FD81461198FAF7C8FE83464FF09D4108
:10592000FAF76CFD824639464FF08040FAF734FDB5
:1059300049460590FAF730FD414607904FF0404048
:10594000FAF72AFD51460590FAF726FD06900799C9
:10595000FAF7CAFC8346FAF70FFFCDE90801FFF713
:1059600089FC4FF06632544BCDE90A01FAF72BFE61
:10597000CDE90C01FAF744FF206049464FF0804022
:10598000FAF70AFD49460290FAF706FD41460490EF
:105990004FF04040FAF700FD41460290FAF7FCFC58
:1059A00003900499FAF7F2FC83464FF07E51FAF720
:1059B0009BFC0590FAF7E0FECDE9080139464FF06F
:1059C0008040FAF7E9FC41460390FAF7E5FC4946C6
:1059D00004904FF08040FAF7DFFC00E068E05146A9
:1059E0000390FAF7D9FC83460499FAF77DFC0590F9
:1059F000FAF7C2FECDE90601DDE90823FFF782FED2
:105A00004FF066322C4BCDE90A01FAF7DCFDCDE907
:105A10000C01FAF7F5FE286051465046FAF7BCFC37
:105A2000494604904846FAF7B7FC41460390404681
:105A3000FAF7B2FC394601903846FAF7ADFC00900F
:105A40000199FAF751FC02900399FAF79FFC8346FB
:105A50000499FAF79BFC0590FAF78EFECDE9080150
:105A600051463846FAF798FC494604904046FAF702
:105A700093FC03900499FAF737FC4FF080410590AE
:105A8000FAF78AFC8346FAF777FECDE90601DDE9ED
:105A90000823FFF737FE4FF06632074BCDE90A01C6
:105AA000FAF791FDCDE90C01FAF7AAFE306001E0AA
:105AB00001200BE7002009E766A64C402DE9F041E4
:105AC000002001F057FFC4B2782002F03FFD2044CF
:105AD000C4B2782001F03CFE2044C4B2642002F03D
