:020000040800F2
:1000000048410020E1010008213A00084D35000870
:100010001D3A0008E90C0008554A000800000000DD
:10002000000000000000000000000000490100087E
:10003000710E0008000000008D0100080741000853
:10004000FB010008FB010008FB010008FB010008A0
:10005000FB010008FB010008FB010008730E00080B
:10006000FB010008FB010008FB010008FB01000880
:10007000FB010008FB010008150E0008FB01000849
:10008000250E0008350E0008FB010008FB010008E2
:10009000FB010008FB010008FB010008FB01000850
:1000A000FB010008A1410008FB010008FB0100085A
:1000B000FB010008B1410008C1410008FB01000834
:1000C000FB010008FB010008FB010008FB01000820
:1000D000FB010008354A0008454A0008FB010008FA
:1000E000FB010008FB010008FB010008FB01000800
:1000F000FB010008FB010008FB010008FB010008F0
:10010000FB010008FB010008FB010008FB010008DF
:10011000FB010008FB010008FB010008FB010008CF
:10012000FB010008FB010008FB010008FB010008BF
:10013000DFF810D000F0D4FC004800471D71000823
:10014000AFF3008048410020224B19680868B0E8EE
:10015000F00F80F30988BFF36F8F4FF0000080F33A
:1001600011884EF00D0E7047000000000648006830
:10017000006880F3088862B661B6BFF34F8FBFF3A3
:100180006F8F00DF00BF00BF08ED00E0EFF30980D4
:10019000BFF36F8F0F4B1A6820E9F00F106008B59E
:1001A0004FF0500080F31188BFF34F8FBFF36F8F74
:1001B00009F0B2F94FF0000080F31188BDE8084063
:1001C00019680868B0E8F00F80F30988BFF36F8FF3
:1001D000704700BFA4000020EFF3058070470000C7
:1001E0000648804706480047FEE7FEE7FEE7FEE7D1
:1001F000FEE7FEE7FEE7FEE7FEE7FEE79F410008B9
:10020000310100082DE9F0410024061B254671F15B
:10021000000605DA01240027D0EB070067EB010197
:10022000161E73F1000605DA0027D2EB070201253E
:1002300067EB030300F0D0FA86460E4617469C464D
:10024000AC4204D00025D0EB050E65EB010624B1CD
:100250000020D2EB000760EB030C704631463A46B3
:100260006346BDE8F081202A04DB203A21FA02F03F
:100270000021704721FA02F3D040C2F120029140E0
:1002800008431946704740EA01039B0703D009E081
:1002900008C9121F08C0042AFAD203E011F8013B72
:1002A00000F8013B521EF9D27047D2B201E000F8CB
:1002B000012B491EFBD270470022F6E710B513460A
:1002C0000A4604461946FFF7F0FF204610BD30B538
:1002D00004460020034600E05B1C934203D2E05C2E
:1002E000CD5C401BF8D030BDF0B480EA0102D40FE1
:1002F0004200B2EB410F02D20246084611464A00C4
:1003000042D0C30DDDB2C1F3C752AD1A202D35DA8C
:10031000C1F3160141F4000204B15242C5F12006B6
:1003200002FA06F12A411044B3EBD05F23D0C4B1E6
:10033000012DA0EBC35009DCF0BC4FF0004202EAF3
:10034000C352DBB200F5000000F0A1BA400000F19A
:10035000807000EBC350A0F1807040EAD17049007A
:1003600009E0490841EAC071A0EBC35000F5000064
:10037000400800EBC350F0BC00F080BA614201229B
:1003800002EB4101001BF6E7F0BC704781F0004131
:10039000AAE780F00040A7E780EA010210B502F06A
:1003A0000043400022D04A001FD0010E01EB126131
:1003B000C0F35600C2F3560240F4000042F40002BB
:1003C000A0FB022000047F39140400D0401C50EA36
:1003D000124001D44000491EC2B20C0604EBD010FA
:1003E000401C4008802A02D003E0002010BD20F00D
:1003F0000100002900DA0020184310BD30B480EA63
:10040000010202F0004530F0004221F0004013D01C
:1004100090B1C30DD40DC2F31601C0F31600E41A57
:1004200041F4000140F400027D34914201D3641C88
:1004300000E04900002C02DA30BC002070474FF485
:1004400000000023914201D3891A034340084FEA78
:100450004101F7D151B1914202D14FF0004105E085
:1004600002D24FF0010101E06FF0010103EBC45033
:10047000284430BC00F002BA2DE9FE4F804681EAE4
:100480000300C00F0C46009021F0004123F000450E
:10049000B8EB0200A94105D24046214690461C46D1
:1004A0000B46024623F00040104347D0270DC7F308
:1004B0000A00C3F30A510290401A019040286BDAF7
:1004C000C3F3130040F4801B0098924620B1002330
:1004D000D2EB030A63EB0B0B01985946C0F14002C3
:1004E000504600F0AAF906460D4650465946019A74
:1004F00000F0B2F910EB08006141002487EA1152C4
:1005000084EAE7731A4340D0009A62B3019A012A41
:100510004FEA075215DC001B61EB02014FF000426D
:1005200002EA0752CDE90042001C41F58011324633
:100530002B4600F0E9F903B0BDE8F08F40462146B4
:10054000F9E7001B61EB0201001C41F58013001864
:100550005B412018A2F5001747EB030140EAD57074
:10056000B6196D4111E06D084FEA360645EAC075CF
:100570004FEA0752001B61EB0201001C41F580119C
:1005800049084FEA30000019514132462B4603B06A
:10059000BDE8F04F00F0A9B9009801224000002307
:1005A000D0EB020263EBE073009821464FEAE0745F
:1005B000B8EB000061EB0401E9E783F000435BE77F
:1005C00081F0004158E72DE9FE4F81EA030404F071
:1005D000004421F0004100944FF0000B23F0004351
:1005E00050EA01045ED052EA03045BD0C3F30A541C
:1005F000C1F30A552C44A4F2F3340194A0FB025435
:10060000C1F3130141F48011C3F3130343F48013C6
:1006100001FB024400FB034E840A970A44EA81541A
:1006200047EA8357A4FB076802958D0A05FB0785F7
:100630004FEA932C04FB0C542705029D4FEA065801
:1006400047EA1637B5EB08056EEB070C870E920EDE
:1006500047EA811742EA8312A7FB0201B6EB0B01BE
:1006600064EB00042B0D43EA0C335E1844EB1C5082
:10067000DA465146E7FB0201C5F313044FEA0B3398
:1006800043EA14534FEA0432019C43EA0603A4F1FF
:100690000C040294009CCDE900B400F035F903B0DD
:1006A000BDE8F08F00200146F9E7C10F80EAE07055
:1006B0000844CA079623002100F0E9B896230022D7
:1006C000114600F0E4B800F0004220F00040C10DF7
:1006D000C0F3160040F400007F2901DA00207047C3
:1006E000962903DCC1F19601C84001E096398840A3
:1006F000002AF4D04042704720F00040C10DC0F302
:10070000160040F400007F2901DA00207047962986
:1007100003DCC1F19601C8407047963988407047A4
:1007200000F0004230F000400AD0C10D01F56071C8
:10073000C0F3160042EA0151C20840071143704756
:10074000002001467047000030B5041E71F100041E
:1007500004DB4FF00044404264EB0101141E73F1CE
:10076000000405DB1C464FF00043524263EB0403D8
:10077000994208BF904230BD01F0004330B421F0EF
:10078000004150EA010206D00A0DA2F56072C1F3E1
:100790001301002A02DC30BC00207047440F44EAF9
:1007A000C104C100E01830BC00EBC25000F066B8D4
:1007B000002801DBC0F10040002901DBC1F100414C
:1007C00081427047002801DBC0F10040002901DBB5
:1007D000C1F10041884270472DE9F05F05460020D5
:1007E00092469B4688460646814640241BE02846A2
:1007F000414647462246FFF736FD53465A46C01A41
:10080000914110D311461846224600F016F82D1AD1
:1008100067EB01084F4622460120002100F00DF849
:1008200017EB00094E41201EA4F10104DFDC48460D
:1008300031462A464346BDE8F09F202A04DB203A91
:1008400000FA02F1002070479140C2F1200320FA23
:1008500003F3194390407047202A06DBCB17203A58
:1008600041FA02F043EAE07306E041FA02F3D040B5
:10087000C2F1200291400843194670470029A8BFE1
:100880007047401C490008BF20F00100704710B4B9
:10089000B0FA80FC00FA0CF050EA010404BF10BC6E
:1008A000704749B1CCF1200421FA04F411FA0CF19B
:1008B00018BF012121430843A3EB0C01CB1D4FEAD4
:1008C00000614FEA102042BF002010BC704700EBCF
:1008D000C35010440029A4BF10BC7047401C4900FD
:1008E00008BF20F0010010BC704710B5141E73F152
:1008F000000408DA401C41F1000192185B411A43E0
:1009000001D120F0010010BD2DE9F04D92469B462B
:1009100011B1B1FA81F202E0B0FA80F220329046D1
:10092000FFF78BFF04460F4640EA0A0041EA0B013D
:1009300053465A46084313D0114653EA010019D0D2
:10094000C8F140025046FFF78EFC05460E46504661
:1009500059464246FFF771FF084305D0012004E0E5
:1009600020463946BDE8F08D0020054346EAE07692
:100970002C4337430A986305E40AA0EB08000022E1
:10098000FD0A44EA47540A3002D500200146E9E74F
:10099000010510196941DDE9084500196941BDE803
:1009A000F04DA2E72DE9F04D81EA030404F0004B7D
:1009B00021F0004514464FF0000A23F0004150EAB0
:1009C000050220D054EA01021DD0C5F30A570246A1
:1009D000C5F31303C1F31300C1F30A5640F48015A5
:1009E00043F48013A7EB0608101BD64608F2FD3827
:1009F00073EB050002D308F1010801E092185B4196
:100A0000B8F1000F03DA00200146BDE8F08D0020A8
:100A10004FF48011064684460EE0171B73EB050762
:100A200005D3121B63EB050306434CEA010C49088E
:100A30004FEA300092185B4150EA0107EDD152EACB
:100A4000030012D082EA040083EA0501084305D0BE
:100A5000101BAB4106D20122002306E000224FF01A
:100A6000004302E06FF0010253101AEB06004CEB5A
:100A7000085110EB0A0041EB0B01BDE8F04DFFF708
:100A800034BF70B521F0004303430CD0C1F30A55C5
:100A90000024D5EB040564EB0403D617AD1AB3416B
:100AA00002DB0020014670BD201841EB025170BDF1
:100AB00030B5041E71F1000404DB4FF000444042E5
:100AC00064EB0101141E73F1000405DB1C464FF0BA
:100AD0000043524263EB04038B4208BF824230BDA5
:100AE000064C074D06E0E06840F0010394E807007B
:100AF00098471034AC42F6D3FFF71EFB74B70008DA
:100B000094B700082DE9F04D00231A461B1A8A41BC
:100B100003DB00200146BDE8F08DC1F30A52C1F3AA
:100B2000130141F480154FF0000BD10702D10018DA
:100B30006D41521E0027044640F2FF11384601EB7A
:100B4000620A3E468046024600204FF48011FFF7BD
:100B50008AFBC2197141BB1846EB0100B4EB030CD0
:100B600075EB000C04D3E41A65EB000517460E463E
:100B7000241908F101006D4180463428E3DDF9199C
:100B800046EB0600091BA84103D24FF0FF32134683
:100B900001E0002213461BEB070046EB0A51BDE8BB
:100BA000F04DFFF7A2BE70B58C1810F8015B15F080
:100BB000070301D110F8013B2A1106D110F8012BCF
:100BC00003E010F8016B01F8016B5B1EF9D12B07F4
:100BD00005D40023521E0DD401F8013BFAE710F8AA
:100BE000013BCB1A921C03E013F8015B01F8015B97
:100BF000521EF9D5A142D8D3002070BD70B504466D
:100C000000252068806800F0010018B32068806823
:100C100020F001002168886000F028FF054613E0FD
:100C200000F024FF401B02280ED92068806800F0E5
:100C3000010048B1A06A40F01000A062E06A40F0F4
:100C40000100E062012070BD2068806800F00100B2
:100C50000028E5D10020F6E738B50446002500203D
:100C600000902068806800F0010078BB20688068F0
:100C700040F0010021688860194800681949B0FBFC
:100C8000F1F0009002E00098401E009000980028CB
:100C9000F9D100F0EBFE054619E000F0E7FE401B3D
:100CA000022814D92068806800F0010078B9A06A91
:100CB00040F01000A062E06A40F00100E06200BF76
:100CC000002084F8240000BF012038BD05E0206822
:100CD000806800F001000028DFD00020F5E7000068
:100CE0002400002040420F0000BFFEE710B5124A6A
:100CF000111F081F04F0B2FB04460F4A103A911E60
:100D0000881E04F007FD2044C4B20B4A0A3A911E23
:100D1000881E04F031FD2044C4B234B918220649BB
:100D200014390648FFF7AFFA05E0182203490248D4
:100D30001438FFF7A8FA10BD3C040020400400203E
:100D400010B5012003F0F6F8404226490860022061
:100D500003F0F0F8244908602449B1F90800FFF7CE
:100D6000A4FC04462149C868214603F075FE2049C9
:100D700008601E48C2681F4803681B48016819487C
:100D8000006803F095FE1C490860184AB2F90A1081
:100D90001A4A107803F000FF1949086014480068E7
:100DA0001549096808441649096808441549086046
:100DB0000F48006810490968084411490968401A39
:100DC000114908600F4803F087F80849C86803F024
:100DD00043FB28B90C4801680A48006803F0C6F8CC
:100DE00010BD000040000020440000202804002026
:100DF0002C00002048000020300000204C00002083
:100E000034000020380000203C00002010B502F023
:100E100027FF10BD10B5024800F0D0FA10BD000049
:100E20005C03002010B5024800F0C8FA10BD0000B5
:100E3000A003002010B5024800F0C0FA10BD000069
:100E4000E403002030B590F840500124AC40C56B5D
:100E50006C60046863604468102C04D10468A2606C
:100E60000468E16003E00468A1600468E26030BDEA
:100E7000704710B5022000F04DFC10BD72B600BFE7
:100E8000FEE70000F8B5044600260020009000BFF1
:100E900094F82400012801D10220F8BD012084F833
:100EA000240000BF2046FFF7A9FE06462046FFF7B4
:100EB000D3FE0646002E69D1A06A20F4885040F087
:100EC0000200A062022000F0AFFE34490968B1FBC5
:100ED000F0F04000009002E00098401E0090009862
:100EE0000028F9D12068806840F0080021688860F7
:100EF00000F0BCFD054616E000F0B8FD401B0A28D6
:100F000011D92068806800F0080060B1A06A20F064
:100F1000020040F01000A06200BF002084F824000E
:100F200000BF0120B9E72068806800F008000028B1
:100F3000E2D12068806840F004002168886000F0F9
:100F400095FD054616E000F091FD401B0A2811D9D9
:100F50002068806800F0040060B1A06A20F0020000
:100F600040F01000A06200BF002084F8240000BF01
:100F7000012092E72068806800F004000028E2D198
:100F8000A06A20F0020040F00100A06200BF002033
:100F900084F8240000BF30467FE7000024000020D2
:100FA00038B5024600230020009000BF92F82400CC
:100FB000012801D1022038BD012082F8240000BFA1
:100FC0004868072812D21068406B0C79641E04EB45
:100FD00084051F24AC40A0430D796D1E05EB8505EB
:100FE0000C68AC4020431468606327E048680D2813
:100FF00012D21068006B0C79E41F04EB84051F24E7
:10100000AC40A0430D79ED1F05EB85050C68AC40A5
:1010100020431468206311E01068C06A0C790D3C0D
:1010200004EB84051F24AC40A0430D790D3D05EB76
:1010300085050C68AC4020431468E06208680A2803
:1010400012D31068C0680C780A3C04EB44050724EE
:10105000AC40A0430D780A3D05EB45058C68AC40DB
:1010600020431468E0600FE0106800690C7804EB1E
:1010700044050724AC40A0430D7805EB45058C687A
:10108000AC402043146820610868102802D008682A
:10109000112827D1174C1068A0421ED11068806813
:1010A00000F40000F0B91068806840F40000146893
:1010B000A0600868102815D10F4800680F4CB0FBDD
:1010C000F4F000EB80004000009002E00098401E29
:1010D000009000980028F9D104E0906A40F02000C8
:1010E0009062012300BF002082F8240000BF184650
:1010F00061E70000002401402400002040420F006E
:101100002DE9F0410446002700250026A84614B921
:101110000120BDE8F081A06810B1207D00B100BFC2
:10112000A06A30B90020E06284F82400204600F074
:1011300089F82046FFF762FD0746A06A00F010001C
:10114000002873D1002F71D1A06A20F4885040F09C
:101150000200A062E16960680843217B40EA410027
:101160000643A068B0F5807F02D0A068012802D1B4
:101170004FF4807000E000200543207D012811D14C
:10118000207B38B9A069401E4FF4006141EA40302D
:10119000054307E0A06A40F02000A062E06A40F04A
:1011A0000100E0622068406820F46940284321681B
:1011B0004860206880682149084030432168886081
:1011C000A068B0F5807F02D0A068012802D14FF45A
:1011D000807000E00020B0F5807F03D1208A401E9F
:1011E0004FEA00582068C06A20F4700040EA080006
:1011F0002168C8622068806811490840B04208D15F
:101200000020E062A06A20F0020040F00100A0622D
:1012100011E0A06A20F0020040F01000A062E06A35
:1012200040F00100E062012705E0FFE7A06A40F01E
:101230001000A062012738466BE70000FDF7E1FFD0
:10124000FE0E1FFF10B586B00446002002900390EA
:101250000490059014492068884222D100BF1348A9
:10126000806940F40070114988610846806900F483
:101270000070019000BF00BF00BF0846806940F0C9
:10128000040088610846806900F00400019000BFF6
:1012900000BF022002900320039002A9044800F03E
:1012A00047FA06B010BD00000024014000100240C3
:1012B000000801400146002291F82100022808D0D0
:1012C0000420886300BF002081F8200000BF0120B7
:1012D00070470868006820F00E000B681860086806
:1012E000006820F001000B68186091F84030012080
:1012F0009840CB6B5860012081F8210000BF00208E
:1013000081F8200000BF1046E2E7000070B50446F7
:10131000002594F82100022803D00420A0630125B1
:1013200048E02068006820F00E002168086020680E
:10133000006820F00100216808601F492068884289
:1013400001D1012026E01C4914312068884201D1D6
:1013500010201FE0184928312068884201D18015EB
:1013600018E015493C312068884201D1801411E011
:10137000114950312068884202D14FF4803009E091
:101380000D4964312068884202D14FF4801001E099
:101390004FF08070084908394860012084F8210026
:1013A00000BF002084F8200000BF606B10B1204611
:1013B000616B8847284670BD0800024070B504463E
:1013C000E06B05682068066894F8401004208840A7
:1013D0002840002846D006F00400002842D02068AB
:1013E000006800F0200028B92068006820F00400A0
:1013F0002168086057492068884201D1042027E00D
:10140000544914312068884201D1402020E05149DC
:1014100028312068884201D1001519E04D493C313E
:101420002068884202D14FF4804011E04949503190
:101430002068884202D14FF4802009E04549643198
:101440002068884202D14FF4800001E04FF08060B4
:10145000404908394860E06A00287AD02046E16AAD
:10146000884776E094F84010022088402840A0B3D6
:1014700006F0020088B32068006800F0200040B940
:101480002068006820F00A0021680860012084F8C4
:10149000210030492068884201D1022028E02D49EE
:1014A00014312068884201D1202021E029492831C7
:1014B0002068884201D140151AE026493C31206855
:1014C000884202D14FF4005012E022495031206886
:1014D000884203D14FF400300AE017E01D4964311F
:1014E0002068884202D14FF4001001E04FF00070F4
:1014F00018490839486000BF002084F8200000BF68
:10150000A06A30B32046A16A884722E094F84010D0
:10151000082088402840E0B106F00800C8B12068E3
:10152000006820F00E002168086094F84010012047
:101530008840E16B48600120A06384F8210000BF6F
:10154000002084F8200000BF206B10B12046216BE2
:10155000884770BD080002400146002209B90120F9
:101560007047164B0868C01A1423B0FBF3F08000D4
:10157000086412480838C863022081F8210008680E
:10158000026843F6F0708243D1E901031843CB6847
:1015900018430B6918434B6918438B691843CB698F
:1015A000184302430868026000208863012081F824
:1015B0002100002081F8200000BFD1E70800024090
:1015C0002DE9F04104460D4616461F464FF000082F
:1015D00000BF94F82000012802D10220BDE8F0816C
:1015E000012084F8200000BF94F8210001282CD1AC
:1015F000022084F821000020A0632068006820F009
:101600000100216808603B46324629462046FFF724
:1016100019FCE06A30B12068006840F00E002168D3
:1016200008600BE02068006820F004002168086072
:101630002068006840F00A0021680860206800689F
:1016400040F001002168086006E000BF002084F837
:10165000200000BF4FF002084046BFE770B50446C7
:1016600000F004FA06462546681C10B104480078CC
:10167000054400BF00F0FAF9801BA842FAD370BD00
:101680002000002070B504460025022C32D11A48F3
:10169000007858B9012018490870002017490870CF
:1016A00017490860174800F0F3FF23E000201249B3
:1016B0000870144801F028F8114800680F490978AB
:1016C00001EB4102C2EBC11100EBC100450848F239
:1016D000D04068430C4990FBF1F00C490860084683
:1016E000006818B90A480068086003E00748006805
:1016F0000749086070BD00001000002011000020A4
:10170000242C0140AC01002040420F009C0000202E
:101710001400002010B5044604480068204020B1A1
:10172000024804602046FFF7ADFF10BD14040140DD
:101730002DE9F8470346002294466EE14FF0010878
:1017400008FA02F4D1F8008008EA0400A0427DD132
:10175000DFF8DCA2D1F80480A8EB0A09D0453AD022
:1017600014DCB8F1030F50D009DCB8F1000F31D010
:10177000B8F1010F1CD0B8F1020F49D120E0B8F147
:10178000110F18D0B8F1120F42D11EE0B9F5881F21
:1017900025D006DCB9F5803F20D0B9F5801F37D1C0
:1017A0001AE0B9F5001F18D0B9F5041F30D117E0C1
:1017B000D1F80CC02DE0D1F80C8008F1040C28E021
:1017C000D1F80C8008F1080C23E0D1F80C8008F166
:1017D0000C0C1EE000BF00BF00BF00BF00BF00BF79
:1017E000D1F80880B8F1000F02D14FF0040C0BE0E3
:1017F000D1F80880B8F1010F03D14FF0080C1C613B
:1018000002E04FF0080C5C6103E04FF0000C00E0D8
:1018100000BF00BFFF2801D8984601E003F104088B
:101820004646FF2802D84FEA820803E0A2F10808E2
:101830004FEA88084746D6F800804FF00F0909FAAA
:1018400007F928EA09080CFA07F900E088E048EAF5
:101850000908C6F80080D1F8048008F08058B8F173
:10186000805F7DD100BFDFF8CC81D8F8188048F0C8
:101870000108DFF8C091C9F81880C846D8F8188068
:1018800008F00108CDF8008000BF00BF4FEAB9386A
:101890004FEA920958F829504FEA82784FEA1879AE
:1018A0004FF00F0808FA09F825EA0805DFF88881E3
:1018B000434502D14FF0000816E0DFF88081434530
:1018C00002D14FF001080FE0DFF87481434502D1E7
:1018D0004FF0020808E0DFF86C81434502D14FF079
:1018E000030801E04FF004084FEA82794FEA1979C2
:1018F00008FA09F848EA0505DFF84C814FEA920931
:1019000048F82950D1F8048008F48018B8F5801FF1
:101910000AD1DFF83881D8F8008048EA0008DFF8FB
:101920002C91C9F8008009E0DFF82081D8F8008008
:1019300028EA0008DFF81491C9F80080D1F8048083
:1019400008F40018B8F5001F10D1DFF8008108F185
:101950000408D8F8008048EA0008DFF8F09000E0BA
:101960005AE009F10409C9F800800DE0DFF8DC80D5
:1019700008F10408D8F8008028EA0008DFF8CC90C5
:1019800009F10409C9F80080D1F8048008F400388E
:10199000B8F5003F0ED1DFF8B480A8F10408D8F8FC
:1019A000008048EA0008DFF8A490A9F10409C9F80A
:1019B00000800DE0DFF89480A8F10408D8F80080DA
:1019C00028EA0008DFF88490A9F10409C9F800802A
:1019D000D1F8048008F48038B8F5803F0ED1DFF8E4
:1019E0006C80A8F10808D8F8008048EA0008DFF801
:1019F0005C90A9F10809C9F800800DE0DFF84C807F
:101A0000A8F10808D8F8008028EA0008DFF83C9020
:101A1000A9F10809C9F80080521CD1F8008028FA01
:101A200002F8B8F1000F7FF489AEBDE8F887000036
:101A3000000011100010024000080140000C01409D
:101A4000001001400014014008000140080401405A
:101A5000024693680B400BB1012000E00020704764
:101A60000AB1016101E00B0403617047014800689D
:101A700070470000180000200348006803490978F7
:101A80000844014908607047180000202000002029
:101A900010B50848006840F01000064908600320AF
:101AA00000F0AEF80F2000F007F800F02BF800204F
:101AB00010BD00000020024070B504460E480078BA
:101AC0004FF47A71B1FBF0F00C490968B1FBF0F505
:101AD000284600F029FD08B1012070BD102C07D266
:101AE00000222146501E00F04DF80548046001E038
:101AF0000120F2E70020F0E7200000202400002071
:101B00001C00002008B500BF1448806940F00100A7
:101B1000124988610846806900F00100009000BF0A
:101B200000BF00BF0846C06940F08050C861084649
:101B3000C06900F08050009000BF00BF00220F215C
:101B4000901E00F01FF800BF0549486820F0E060D3
:101B500040F00070486000BF08BD00000010024067
:101B60000000014001460846002809DB00F01F0381
:101B700001229A4043099B0003F1E023C3F80021AE
:101B800000BF70472DE9F05F80460D4616460027DE
:101B900003F044F8074639462A46334601F0070069
:101BA000C0F1070ABAF1040F02D94FF0040A01E0AC
:101BB000C0F1070AD14600F1040ABAF1070F02D2B8
:101BC0004FF0000A01E0A0F1030AD4464FF0010AE9
:101BD0000AFA09FAAAF1010A0AEA020A0AFA0CFA4E
:101BE0004FF0010B0BFA0CFBABF1010B0BEA030BF3
:101BF0004AEA0B042146404603F018F8BDE8F09F7E
:101C000000BF00F00702064B19684FF6FF031940AA
:101C1000044B0B4343EA0221014B196000BF70479C
:101C20000CED00E00000FA052DE9F04706464FF004
:101C30000008002500270024A146012E31D0022EE5
:101C400056D0102E5FD132484468006800F0807092
:101C500008B33048C4F38341475C04F4803078B162
:101C60002B484068C0F340402B4911F8008004F431
:101C7000803040B12948B0FBF8F000FB07F502E0E6
:101C8000274807FB00F52248406800F48000B0F5C3
:101C9000800F01D1A94603E068000321B0FBF1F9F0
:101CA00032E01B48046A04F44070B0F5807F05D12F
:101CB00004F0020010B14FF4004918E004F4407041
:101CC000B0F5007F07D11248406A00F0020010B161
:101CD00049F640490BE004F44070B0F5407F06D16E
:101CE0000B48006800F4003008B14FF224490BE0C3
:101CF00000F08CF906494968C1F38131491C49005B
:101D0000B0FBF1F900E000BF00BF4846BDE8F08736
:101D1000001002404AA300085AA3000800127A00EB
:101D200000093D00F8B5044600260025207800F0A3
:101D3000010000286BD000274348C06900F08050A4
:101D400070B900BF4048C06940F080503E49C8614A
:101D50000846C06900F08050009000BF00BF012716
:101D60003A48006800F48070B0B93848006840F420
:101D7000807036490860FFF779FE064606E0FFF7F7
:101D800075FE801B642801D90320F8BD2F48006828
:101D900000F480700028F2D02B48006A00F44075EF
:101DA0002DB3A08800F44070A84220D02648006AD5
:101DB00020F4407501202649086000200860224870
:101DC000056205F0010090B1FFF750FE064608E0FD
:101DD000FFF74CFE801B41F28831884201D9032075
:101DE000D3E71948006A00F002000028F0D0164836
:101DF000006A20F440706168084313490862012FAB
:101E000004D10846C06920F08050C86100BF207826
:101E100000F00200022807D10B48406820F440403F
:101E2000A168084308494860207800F01000102895
:101E300007D10548406820F48000E1680843024962
:101E400048600020A1E70000001002400070004040
:101E50004004424270B504460D460CB9012070BDE5
:101E60005A48006800F00700A8420ED257480068A0
:101E700020F007002843554908600846006800F034
:101E80000700A84201D00120E9E7207800F0020015
:101E900002281DD1207800F00400042805D14C4808
:101EA000406840F4E0604A494860207800F008004B
:101EB000082805D14648406840F4605044494860CD
:101EC0004348406820F0F000A1680843404948605A
:101ED000207800F0010078B36068012806D13C4802
:101EE000006800F4003090B90120B8E7606802286B
:101EF00006D13748006800F0007040B90120AEE715
:101F00003348006800F0020008B90120A7E7304814
:101F1000406820F00300616808432D494860FFF7DE
:101F2000A5FD064609E0FFF7A1FD801B41F28831BF
:101F3000884202D9032092E707E02548406800F074
:101F40000C006168B0EB810FEDD12048006800F013
:101F50000700A8420ED91D48006820F0070028435A
:101F60001A4908600846006800F00700A84201D03E
:101F7000012074E7207800F00400042807D11448F9
:101F8000406820F4E060E168084311494860207827
:101F900000F00800082808D10D48406820F460507F
:101FA000216940EAC1000A49486000F03FF8084949
:101FB0004968C1F30311074A515CC84006490860EB
:101FC00006480068FFF778FD002048E7002002403F
:101FD000001002405CA30008240000201C00002028
:101FE00001480068704700002400002000B5FFF79A
:101FF000F7FF04494968C1F30221034A515CC84014
:1020000000BD0000001002406CA3000800B5FFF7FF
:10201000E7FF04494968C1F3C221034A515CC84043
:1020200000BD0000001002406CA3000870B5002144
:102030000022002400230020134D696801F00C05E4
:10204000F5B1042D02D0082D19D101E00F4819E097
:102050000F4DC1F38346AB5D01F4803555B10A4D98
:102060006D68C5F340450B4E725D084D5D43B5FB91
:10207000F2F402E0084D03FB05F4204602E000BF45
:10208000024800BF00BF70BD0010024000127A007D
:1020900038A3000848A3000800093D00F8B504462D
:1020A0000CB90120F8BD207800F00100002878D09C
:1020B000F848406800F00C0004280CD0F54840684F
:1020C00000F00C00082811D1F248406800F480307C
:1020D000B0F5803F0AD1EF48006800F400300028D6
:1020E0005FD0606800285CD10120DBE700BF60683A
:1020F000B0F5803F06D1E748006840F48030E549FC
:10210000086028E0606858B9E248006820F4803030
:10211000E04908600846006820F4802008601AE062
:102120006068B0F5A02F0BD1DA48006840F4802039
:10213000D84908600846006840F4803008600AE02A
:10214000D448006820F48030D2490860084600680E
:1021500020F48020086000BF606888B1FFF786FC2B
:10216000054606E0FFF782FC401B642801D90320E6
:1021700098E7C848006800F400300028F2D010E06A
:10218000FFF774FC054606E0FFF770FC401B64286F
:1021900001D9032086E7BF48006800F4003000281A
:1021A000F2D1207800F00200022857D1B9484068E7
:1021B00000F00C0050B1B748406800F00C0008284F
:1021C00018D1B448406800F4803098B9B14800682C
:1021D00000F0020020B12069012801D0012061E750
:1021E000AC48006820F0F800616940EAC100A949E4
:1021F000086033E02069E8B10120A7490860FFF7D3
:1022000035FC054606E0FFF731FC401B022801D9EA
:10221000032047E79F48006800F002000028F2D042
:102220009C48006820F0F800616940EAC1009949C3
:10223000086013E0002098490860FFF717FC054686
:1022400006E0FFF713FC401B022801D9032029E711
:102250009048006800F002000028F2D1207800F0D9
:10226000080008282DD1A069B8B101208B49086069
:10227000FFF7FCFB054606E0FFF7F8FB401B0228D2
:1022800001D903200EE78348406A00F002000028CD
:10229000F2D0012001F03AFE13E000207F490860EF
:1022A000FFF7E4FB054606E0FFF7E0FB401B0228D2
:1022B00001D90320F6E67748406A00F002000028C2
:1022C000F2D1207800F00400042873D1002771486F
:1022D000C06900F0805070B900BF6E48C06940F01E
:1022E00080506C49C8610846C06900F08050009079
:1022F00000BF00BF01276A48006800F48070B0B9D1
:102300006748006840F4807065490860FFF7AEFBDD
:10231000054606E0FFF7AAFB401B642801D903200D
:10232000C0E65F48006800F480700028F2D000BF6B
:10233000E068012806D15748006A40F0010055497D
:10234000086227E0E06858B95248006A20F00100AE
:10235000504908620846006A20F00400086219E04B
:10236000E06805280BD14B48006A40F00400494959
:1023700008620846006A40F0010008620AE0454829
:10238000006A20F00100434908620846006A20F014
:102390000400086200BFE068A0B1FFF767FB0546D4
:1023A00009E0FFF763FB401B41F28831884202D904
:1023B000032077E622E03748006A00F00200002898
:1023C000EFD012E0FFF752FB054608E0FFF74EFBA7
:1023D000401B41F28831884201D9032062E62D4832
:1023E000006A00F002000028F0D1012F05D1294831
:1023F000C06920F080502749C86100BFE069C8B3B8
:102400002448406800F00C00082860D0E0690228E9
:1024100048D1002020490866FFF728FB054606E062
:10242000FFF724FB401B022801D903203AE6194894
:10243000006800F000700028F2D1206AB0F5803FFB
:1024400007D11448406820F40030A16808431149BE
:102450004860D4E9080108430E49496821F4741121
:1024600008430C49486001200B490866FFF7FEFA53
:10247000054607E03DE0FFF7F9FA401B022801D9C5
:1024800003200FE60348006800F000700028F2D037
:102490002FE000000010024000004242800442424F
:1024A00000700040002014490866FFF7DFFA054677
:1024B00006E0FFF7DBFA401B022801D90320F1E513
:1024C0000E48006800F000700028F2D111E0E069C9
:1024D000012800D1E6E50948466806F48031206A03
:1024E000814204D106F47011606A814201D001205A
:1024F000D8E50020D6E5000000004242001002406E
:10250000042808D14FF0E021096941F004014FF09F
:10251000E022116107E04FF0E021096921F0040198
:102520004FF0E0221161704770B504462546681EE1
:10253000B0F1807F01D301200FE0681E4FF0E02151
:1025400048610F214FF0FF3002F070FB00204FF088
:10255000E021886107200861002070BD7047704746
:1025600030B502460B4600BF92F83C00012801D16D
:10257000022030BD012082F83C0000BF022082F81A
:102580003D00106844681068816824F07004186881
:10259000044310684460104D1068A8420BD01068C6
:1025A000B0F1804F07D00D4D1068A84203D00C4DFC
:1025B0001068A84205D121F08001586801431068D5
:1025C0008160012082F83D0000BF002082F83C00BD
:1025D00000BF00BFCDE70000002C01400004004018
:1025E0000008004010B504460CB9012010BD94F855
:1025F0003D0028B9002084F83C00204600F026F871
:10260000022084F83D00211D206801F0E1FD012039
:1026100084F8460000BF84F83E0001213F200155A8
:10262000402001554120015500BF00BF012084F822
:10263000420043200155442001554520015500BF6B
:10264000012084F83D000020D0E7000038B50446A2
:102650000D492068884215D100BF0C48806940F4BC
:1026600000600A4988610846806900F400600090B3
:1026700000BF00BF002205211920FFF783FA1920AF
:10268000FFF770FA38BD0000002C01400010024036
:10269000014691F83D00012801D001207047022039
:1026A00081F83D000868C06840F001000B68D86000
:1026B000124B086898420BD00868B0F1804F07D0E1
:1026C0000F4B0868984203D00E4B086898420CD113
:1026D0000868806800F00702062A0CD008680068C5
:1026E00040F001000B68186005E00868006840F0E1
:1026F00001000B6818600020D0E70000002C0140AA
:10270000000400400008004001460868C06820F04E
:1027100001000A68D06000BF0868006A41F2111227
:10272000104050B90868006A9210104028B9086833
:10273000006820F001000A68106000BF012081F8E5
:102740003D00002070472DE9F04104460D4600276A
:1027500000BF94F83C00012802D10220BDE8F081BE
:10276000012084F83C0000BF022084F83D0020686E
:10277000866826F0770626F47F46206886602868FB
:10278000502833D00CDC202850D004DC00284BD05B
:10279000102851D149E0302849D040284CD139E0A7
:1027A00060282DD0702807D0B0F5805F03D0B0F539
:1027B000005F41D10DE041E0D5E902136A6820686D
:1027C00001F051FD2068866846F077062068866033
:1027D00034E0D5E902136A68206801F044FD2068FE
:1027E000806840F480402168886027E0EA68696872
:1027F000206801F009FE5021206801F03FFD1DE036
:10280000EA686968206801F012FE6021206801F022
:1028100035FD13E0EA686968206801F0F5FD4021A4
:10282000206801F02BFD09E000BF00BF00BF296850
:10283000206801F023FD01E0012700BF00BF012057
:1028400084F83D0000BF002084F83C0000BF3846FB
:1028500084E72DE9F04104460D4614B90120BDE896
:10286000F08194F83D0028B9002084F83C0020460F
:1028700000F052F8022084F83D002068806844F29D
:102880000701884321688860211D206801F0A0FCB1
:102890002068D0F80880206886692068076A286860
:1028A00040EA080840F203308643A969A86840EA74
:1028B0000120064340F60C4086434FF2F000864369
:1028C000E969E86840EA0120064328690001296AAD
:1028D00040EA0130064327F022076969686840EA48
:1028E000011007432068C0F80880206886612068CE
:1028F0000762012084F8460084F83E0001213F2051
:102900000155012084F8420043200155012084F83C
:102910003D000020A3E7000010B586B0044600206B
:1029200002900390049005903149206888422CD190
:1029300000BF3048C06940F002002E49C861084617
:10294000C06900F00200019000BF00BF00BF084650
:10295000806940F0040088610846806900F0040046
:10296000019000BF00BFC02002900020039004909F
:1029700002A92148FEF7DCFE002205211D20FFF7F9
:1029800001F91D20FFF7EEF82FE01C49206888426E
:102990002BD100BF1748C06940F004001549C86139
:1029A0000846C06900F00400019000BF00BF00BFEE
:1029B0000846806940F0080088610846806900F098
:1029C0000800019000BF00BFC020029000200390CB
:1029D000049002A90A48FEF7ABFE002205211E2042
:1029E000FFF7D0F81E20FFF7BDF806B010BD0000BD
:1029F00000040040001002400008014000080040B0
:102A0000000C01402DE9F04304460D4694F83E6069
:102A10003F20075D94F84280432010F804906DB980
:102A2000012E02D1B8F1010F02D00120BDE8F083E0
:102A3000022084F83E0084F8420025E0042D0CD1E9
:102A4000012F02D1B9F1010F01D00120EEE70221DF
:102A50003F2001554320015516E0012E07D1012FDB
:102A600005D1B8F1010F02D1B9F1010F01D0012058
:102A7000DCE7022084F83E0002213F2001550220BD
:102A800084F842004320015515B1042D0CD105E016
:102A900001220021206801F0D5FB10E00122042171
:102AA000206801F0CFFB0AE001220021206801F03C
:102AB000C9FB01220421206801F0C4FB00BF00BF54
:102AC0002068006840F00100216808600020ADE740
:102AD000704710B5044620680069C0F34000D8B1C3
:102AE0002068C068C0F34000B0B16FF002002168F8
:102AF0000861012020772068806900F0030018B188
:102B00002046FFF7E5FF05E0204600F0E5F8204607
:102B100000F0AEF90020207720680069C0F3800043
:102B2000D8B12068C068C0F38000B0B16FF0040075
:102B300021680861022020772068806900F44070D5
:102B400018B12046FFF7C4FF05E0204600F0C4F8A6
:102B5000204600F08DF90020207720680069C0F33E
:102B6000C000D8B12068C068C0F3C000B0B16FF039
:102B7000080021680861042020772068C06900F0FF
:102B8000030018B12046FFF7A3FF05E0204600F040
:102B9000A3F8204600F06CF9002020772068006937
:102BA000C0F30010D8B12068C068C0F30010B0B105
:102BB0006FF0100021680861082020772068C06944
:102BC00000F4407018B12046FFF782FF05E0204670
:102BD00000F082F8204600F04BF9002020772068B2
:102BE000006900F0010058B12068C06800F00100E1
:102BF00030B16FF0010021680861204600F0A4F9AF
:102C000020680069C0F3C01058B12068C068C0F3E4
:102C1000C01030B16FF08000216808612046FFF7D6
:102C20009DFC20680069C0F3801058B12068C0681E
:102C3000C0F3801030B16FF0400021680861204679
:102C400000F08EF920680069C0F3401058B1206888
:102C5000C068C0F3401030B16FF0200021680861F7
:102C60002046FFF77CFC10BD10B586B0044600205E
:102C700002900390049005902068B0F1804F22D11B
:102C800000BF1248806940F008001049886108467A
:102C9000806900F00800019000BF00BF4FF4406061
:102CA000029002200390059002A90948FEF740FD1A
:102CB00000BF0849486820F4407040F0E06040F4EC
:102CC0000070486000BF06B010BD00000010024058
:102CD000000C01400000014070472DE9F04104461E
:102CE0000D461646002700BF94F83C00012802D18B
:102CF0000220BDE8F081012084F83C0000BF36B11D
:102D0000042E1BD0082E31D00C2E5ED145E0294672
:102D1000206801F0BDFA2068806940F00800216851
:102D200088612068806920F004002168886120683B
:102D30008069296908432168886148E0294620683C
:102D400001F0D6FA2068806940F40060216888614B
:102D50002068806920F4806021688861206880692B
:102D6000296940EA01202168886130E0294620680D
:102D700001F0F2FA2068C06940F008002168C861DB
:102D80002068C06920F004002168C8612068C0691B
:102D9000296908432168C86119E02946206801F0C3
:102DA0000FFB2068C06940F400602168C86120689A
:102DB000C06920F480602168C8612068C069296901
:102DC00040EA01202168C86101E0012700BF00BF7F
:102DD00000BF002084F83C0000BF384689E710B5EA
:102DE00004460CB9012010BD94F83D0028B900201C
:102DF00084F83C00204600F025F8022084F83D00CD
:102E0000211D206801F0E4F9012084F8460000BF8C
:102E100084F83E0001213F2001554020015541200A
:102E2000015500BF00BF012084F842004320015536
:102E3000442001554520015500BF012084F83D0084
:102E40000020D0E708B50168B1F1804F0DD100BF77
:102E50000649C96941F00101044AD1611146C969B5
:102E600001F00101009100BF00BF08BD0010024049
:102E70007047000070B504460D4615B994F83E0041
:102E80000BE0042D02D13F20005D06E0082D02D1A9
:102E90004020005D01E04120005D012801D00120BB
:102EA00070BD1DB9022084F83E000EE0042D03D150
:102EB00002213F20015508E0082D03D102214020C6
:102EC000015502E0022141200155012229462068D6
:102ED00001F0B8F919492068884201D1012000E0C9
:102EE000002028B12068406C40F40040216848640C
:102EF0001249206888420BD02068B0F1804F07D07B
:102F00000F492068884203D00E49206888420CD1BE
:102F10002068806800F00706062E0CD02068006844
:102F200040F001002168086005E02068006840F07A
:102F30000100216808600020B2E70000002C014079
:102F4000000400400008004010B504460349206812
:102F5000884201D1FEF790FD10BD0000002C014019
:102F600070477047704700002DE9F84F044620680D
:102F700005682068C668206847694FF00009CA469E
:102F800005F00F09B9F1000F0AD105F0200038B1A2
:102F900006F0200020B1204601F0BCFBBDE8F88F10
:102FA000B9F1000F7BD007F0010018B906F490705A
:102FB000002874D005F0010030B106F4807018B11B
:102FC000606C40F00100606405F0040030B107F06F
:102FD000010018B1606C40F00200606405F002006E
:102FE00030B107F0010018B1606C40F0040060647B
:102FF00005F0080048B106F0200010B907F0010004
:1030000018B1606C40F008006064606C002845D026
:1030100005F0200028B106F0200010B1204601F094
:1030200079FB20684069C0F3801A606C00F00800EA
:1030300010B9BAF1000F2CD0204601F012FB206825
:10304000406900F0400000B300BF00BF21681431A8
:1030500051E8001F21F040002168143141E80002CE
:10306000002AF3D100BFE06B50B17748E16B4863B1
:10307000E06BFEF74BF988B1E06B416B88470DE0E0
:103080002046FFF76FFF09E009E02046FFF76AFFDF
:1030900004E02046FFF766FF002060647EE7206BB7
:1030A000012877D105F01000002873D006F0100039
:1030B0000028FAD000BF002000902068006800902F
:1030C00020684068009000BF00BF2068406900F0A1
:1030D000400000285FD0E06B006840681FFA80F86D
:1030E000B8F1000F55D0A08D404552DDA4F82E80D8
:1030F000E06B8069202843D000BF00BF21680C31FD
:1031000051E8001F21F4807021680C3141E8000271
:10311000002AF3D100BF00BF00BF2168143151E87D
:10312000001F21F001002168143141E80002002A4B
:10313000F3D100BF00BF00BF2168143151E8001F68
:1031400021F040002168143141E80002002AF3D147
:1031500000BF202084F842000020206300BF00BF91
:1031600021680C3151E8001F21F0100021680C315A
:1031700041E80002002AF3D100BFE06BFEF79AF8A5
:1031800002206063A08DE28D801A81B22046FFF795
:10319000E8FE03E742E0A08DE18D401A1FFA80F8B7
:1031A000E08DD0B3B8F1000F37D000BF00BF216869
:1031B0000C3151E8001F21F4907021680C3141E876
:1031C0000002002AF3D100BF00BF00BF2168143104
:1031D00051E8001F21F001002168143141E800028C
:1031E000002AF3D100BF202084F842000020206391
:1031F00000BF00BF21680C3151E8001F21F0100012
:1032000021680C3141E80002002AF3D100BF0220FE
:10321000606341462046FFF7A4FEBFE605F080004C
:1032200030B106F0800018B1204601F0D3FBB5E6BE
:1032300005F0400030B106F0400018B1204601F022
:1032400046FAABE600BFA9E6C144000810B5044643
:103250000CB9012010BDA06900B100E000BF94F8D6
:10326000410028B9002084F84000204600F02AF8E8
:10327000242084F841002068C06820F400502168B0
:10328000C860204601F0C4FA2068006920F490402C
:10329000216808612068406920F02A00216848619F
:1032A0002068C06840F400502168C8600020606455
:1032B000202084F8410084F842000020606300BFB1
:1032C000C8E7000010B586B00446002002900390C5
:1032D0000490059065492068884252D100BF644837
:1032E000806940F48040624988610846806900F442
:1032F0008040019000BF00BF00BF0846806940F0D9
:10330000040088610846806900F00400019000BF55
:1033100000BF48150290022003900320059002A9E7
:103320005448FEF705FA4FF48060029000200390A5
:10333000049002A94F48FEF7FBF94F484F49086037
:103340001020486000214D4881608021C16000212B
:103350000161416181614FF40051C161FEF7FCF8E8
:1033600008B1FDF78BFD00BF4448A063446200BF75
:10337000002205212520FEF705FC2520FEF7F2FBA3
:1033800071E03F49206888426DD100BF3848C0696C
:1033900040F400303649C8610846C06900F4003086
:1033A000019000BF00BF00BF0846806940F00400E4
:1033B00088610846806900F00400019000BF00BFEA
:1033C00004200290022003900320059002A92948BE
:1033D000FEF7AEF90820029000200390049002A9A5
:1033E0002448FEF7A5F92448283026490860002023
:1033F00048600021234881608021C1600021016173
:10340000416120218161C901C161FEF7A5F808B1C0
:10341000FDF734FD00BF1B48E063446200BF16485F
:103420003C3019490860102048600021164881602E
:103430008021C16000210161416181614FF48051AF
:10344000C161FEF789F808B1FDF718FD00BF0E480D
:10345000A063446200BF002205212620FEF792FBF4
:103460002620FEF77FFB06B010BD000000380140AB
:103470000010024000080140440002405C030020AC
:1034800000440040A0030020E403002070B504467F
:103490000D46164694F8420020280BD105B10EB90E
:1034A000012070BD0020206332462946204601F0ED
:1034B0002DFAF6E70220F4E770477047F7B50446A7
:1034C000154694F84100202836D1019800B10DB975
:1034D0000120FEBD01982062A584E584002060647F
:1034E000212084F841001548A16B88621448A16B23
:1034F000C8621448A16B08630020A16B486301AE49
:1035000023681A1D31682B46A06BFEF759F86FF03F
:1035100040002168086000BF00BF2168143151E8F5
:10352000001F41F080002168143141E80002002AA8
:10353000F3D100BF0020CCE70220CAE7FD45000818
:1035400055460008D54400087047704700BFFEE7A5
:103550000EB50020009001900290114811490860BA
:10356000002110488160017301754FF46021C16131
:1035700000200C49486001210A480161FDF7C0FDA7
:1035800008B1FDF77BFC0120009001900020029023
:1035900069460448FDF704FD08B1FDF76FFC0EBD58
:1035A000002401407C01002008B500BF124840699A
:1035B00040F00100104948610846406900F00100F0
:1035C000009000BF00BF002205210E20FEF7DAFAAE
:1035D0000E20FEF7C7FA002205211020FEF7D2FACE
:1035E0001020FEF7BFFA002205211120FEF7CAFACB
:1035F0001120FEF7B7FA08BD0010024010B5104ABE
:103600000021104804F0DEFD0F4908600F4A002138
:103610000F4804F0D7FD0F4908600F4A00210F48FA
:1036200004F0D0FD0E4908600E4A00210E4804F057
:10363000C9FD0E4908600748006805F001FF10BD8C
:10364000A8A20008F540000800000020CCA2000855
:103650007140000804000020F0A20008814000082A
:103660000800002014A300080D4000080C000020F2
:1036700000B585B00020019002900390049000BF37
:103680004848806940F010004649886108468069D2
:1036900000F01000009000BF00BF00BF0846806926
:1036A00040F0200088610846806900F0200000900A
:1036B00000BF00BF00BF0846806940F00400886179
:1036C0000846806900F00400009000BF00BF00BF02
:1036D0000846806940F0080088610846806900F06B
:1036E0000800009000BF00BF00224FF4C0412E48E8
:1036F000FEF7B6F9012241F630012C48FEF7B0F989
:1037000000224FF201012A48FEF7AAF901224FF4E4
:1037100040712748FEF7A4F94FF4C0400190012002
:103720000290002003900220049001A91E48FDF79A
:10373000FFFF41F63000019001200290002003902D
:103740000320049001A91948FDF7F2FF4FF2013060
:10375000019001200290002003900220049001A912
:103760001348FDF7E5FF0220019012480290002067
:10377000039001A90E48FDF7DBFF4FF48070019024
:103780000D4802900020039001A90848FDF7D0FFE2
:10379000002205210720FEF7F5F90720FEF7E2F9E0
:1037A00005B000BD001002400010014000080140BB
:1037B000000C0140000031100000111000B587B06E
:1037C0000020039004900590069001900290154807
:1037D000154908604720486000211348816040F285
:1037E000E731C1600021016141618161FEF7FAFEAC
:1037F00008B1FDF743FB4FF48050039003A90A483A
:10380000FEF7A1FF08B1FDF739FB002001900290FF
:1038100001A90548FEF7A4FE08B1FDF72FFB07B08C
:1038200000BD0000002C0140AC01002000B589B0B3
:103830000020079008901C216846FCF73DFD4FF0E2
:1038400080401B490860472048600021184881607B
:1038500040F2E731C160002101618161FFF7BFFAE9
:1038600008B1FDF70BFB00200790089007A910484E
:10387000FEF776FE08B1FDF701FB60200090002006
:10388000019002900490082269460948FFF725FA42
:1038900008B1FDF7F3FA0C2269460548FFF71DFA57
:1038A00008B1FDF7EBFA0248FFF7DEF909B000BDF9
:1038B000F401002000B58BB0242102A8FCF7FCFC29
:1038C00000200090019018481849086000204860C6
:1038D0000021164881604FF6FF71C160002101612F
:1038E00081610320029000200390012004900020B9
:1038F00005900690079001200890002009900A90FA
:1039000002A90A48FEF7A5FF08B1FDF7B7FA0020A3
:103910000090019069460548FEF722FE08B1FDF7C8
:10392000ADFA0BB000BD0000000400403C020020D6
:1039300000B58BB0242102A8FCF7BEFC002000904B
:103940000190184818490860002048600021164876
:1039500081604FF6FF71C160002101618161032028
:103960000290002003900120049000200590069012
:10397000079001200890002009900A9002A90A48A7
:10398000FEF767FF08B1FDF779FA0020009001907B
:1039900069460548FEF7E4FD08B1FDF76FFA0BB084
:1039A00000BD0000000800408402002010B50B4854
:1039B0000B4908604FF4E1304860002108488160FD
:1039C000C16001610C21416100218161C161FFF78A
:1039D0003DFC08B1FDF752FA10BD0000003801406F
:1039E000CC02002010B50B480B4908604FF416506C
:1039F0004860002108488160C16001610C2141617B
:103A000000218161C161FFF721FC08B1FDF736FAA1
:103A100010BD0000004400401403002000BFFEE77A
:103A200000BFFEE770B500240EE00021204600F044
:103A300006F9002504E0002000F03EFA681CC5B23B
:103A4000802DF8DB601CC4B2082CEEDB70BD0000DA
:103A500000B585B00020019002900390049000BF53
:103A60001548806940F00400134988610846806960
:103A700000F00400009000BF00BF01224FF4C051CD
:103A80000E48FDF7EDFF4FF4C05001901120029059
:103A9000002003900320049001A90848FDF748FE88
:103AA000012211030548FDF7DBFF0122D102034883
:103AB000FDF7D6FF05B000BD001002400008014030
:103AC00070B50546002415E08020204100EA05027B
:103AD0004FF400611148FDF7C3FF012211030F48A5
:103AE000FDF7BEFF00224FF480510C48FDF7B8FFF0
:103AF000601CC4B2082CE7DB0122D1020748FDF7A5
:103B0000AFFF012211030548FDF7AAFF00224FF481
:103B100080510248FDF7A4FF70BD0000000801407D
:103B200010B50122D1020A48FDF79AFF01221103C4
:103B30000748FDF795FF00224FF400610448FDF7A8
:103B40008FFF00224FF480510148FDF789FF10BD1F
:103B50000008014010B500224FF400610648FDF74F
:103B60007FFF012211030448FDF77AFF0122D102F1
:103B70000148FDF775FF10BD0008014070B5002435
:103B800006E0002500E06D1CB5F57A7FFBD3641CD0
:103B9000B4F57A7FF5D3FFF75BFFAE2000F07CF938
:103BA000D52000F079F9802000F076F9A82000F007
:103BB00073F93F2000F070F9D32000F06DF9002078
:103BC00000F06AF9402000F067F9A12000F064F9E4
:103BD000C82000F061F9DA2000F05EF9122000F050
:103BE0005BF9812000F058F9CF2000F055F9D92079
:103BF00000F052F9F12000F04FF9DB2000F04CF911
:103C0000302000F049F9A42000F046F9A62000F089
:103C100043F98D2000F040F9142000F03DF9AF2069
:103C200000F03AF9FFF7FEFE70BD10B50246012024
:103C300000E050430B1EA1F10101FAD110BD70B597
:103C400005460C4645F0B00000F026F9102141EA87
:103C5000141000F021F904F00F0000F01DF970BD00
:103C600010B54AA20121022000F002F903234A48BC
:103C70000A210268022000F0D9F848A2012103209D
:103C800000F0F6F846A20721032000F0F1F845A263
:103C90000B21032000F0ECF84349C8680021FCF731
:103CA00091FD10D22B220321084600F085F83E49F1
:103CB000C868FCF721FD04460223224604210320A4
:103CC00000F0B4F80FE02D220321084600F074F84C
:103CD0003549C868FCF710FD04460223224604213A
:103CE000032000F0A3F830490869FCF705FD0446FD
:103CF000022322460921032000F098F82A49486946
:103D0000FCF7FAFC0446022322460D21032000F0B2
:103D10008DF82548B0F9062002230121042000F087
:103D200085F82148B0F9082002230621042000F07C
:103D30007DF81D48B0F90A2002230C21042000F070
:103D400075F81AA20121084600F092F814A2082181
:103D5000012000F08DF816480468002C01DB204695
:103D600000E06042024604231946012000F05EF89C
:103D700010480468002C01DB204600E06042024647
:103D800004230B21012000F051F810BD6469737405
:103D9000616E63653A0000009C000020703A0000EC
:103DA000723A000079000000280400206C3A0000FC
:103DB00040000020440000202DE9F04105460E4659
:103DC0001746721ED206110E6A1E5206100EFFF71B
:103DD00036FF002409E0A7F12001134A02EB01118C
:103DE000085D00F069F8601CC4B2082CF3DB721E99
:103DF000D206110E6A1E012303EB4202D0B2FFF776
:103E00001EFF00240BE0A7F12001074A02EB01127C
:103E100004F10801505C00F04FF8601CC4B2082C9B
:103E2000F1DBBDE8F081000074A300082DE9F04744
:103E300080460E4617461D46002415E0281B411EED
:103E40000A20FFF7F2FEB7FBF0F00A21B0FBF1F217
:103E500001FB120000F130093019C1B24A46404658
:103E6000FFF7AAFF601CC4B2AC42E7DBBDE8F087F5
:103E70002DE9F04107460E461546002407E02A5D6D
:103E80003019C1B23846FFF797FF601CC4B2285DF5
:103E90000028F4D1BDE8F08110B50446FFF740FEDC
:103EA0007820FFF70DFE0020FFF70AFE2046FFF7FF
:103EB00007FEFFF74FFE10BD10B50446FFF730FEBA
:103EC0007820FFF7FDFD4020FFF7FAFD2046FFF7C1
:103ED000F7FDFFF73FFE10BD10B502464FF47A60C4
:103EE00044421368A34201DA4342136013688342D9
:103EF00000DD106044420B68A34201DA43420B60CC
:103F00000B68834200DD086010BD000008B5084959
:103F10000968C9084FF47A72B1FBF2F1414300918C
:103F200000BF00BF00994A1E00920029F9D108BDC8
:103F3000240000200146012902D002290ED106E00A
:103F4000084A126810B20022064B1A6008E0064ABE
:103F5000126810B20022044B1A6001E0002000BF7A
:103F600000BF7047240400402408004070B5044698
:103F70000D46002C0BDD0122D1032248FDF770FD18
:103F800000224FF480411F48FDF76AFD0AE000223D
:103F90004FF400411B48FDF763FD012291031948CE
:103FA000FDF75EFD201E01DB014600E04142164A9E
:103FB000126811444FF08042D163002D0BDD0122C5
:103FC00011031048FDF74CFD00224FF400510D483D
:103FD000FDF746FD0AE000224FF480510948FDF745
:103FE0003FFD012251030748FDF73AFD281E01DB82
:103FF000014600E04142044A126811444FF08042F9
:10400000116470BD000C01405C00002090B04022A3
:1040100006A16846FCF737F900BF3F2269461348FE
:10402000FFF74CFA642004F06FF8F6E70D0A2A2A2D
:104030002A2A2053657269616C204F7574707574FB
:10404000204D65737361676520627920444D41207E
:104050002A2A2A0D0A2020205541525420444D413D
:104060002054657374200D0A20200000CC0200202B
:1040700000BFFCF765FE142004F046F8F9E70000E5
:1040800001F03CFDC4B214B10AA000F0ABFD01F098
:10409000F3FAC4B214B10EA000F0A4FD14480068F5
:1040A00005F02AF900BFFCF721FE022004F02CF8ED
:1040B000F9E7000041544B2D4D533630353020691F
:1040C0006E6974206661696C6564210D0A000000E8
:1040D00041544B2D4D533630353020444D502069DE
:1040E0006E6974206661696C6564210D0A000000C8
:1040F00004000020FFF742FD00BFFCF787FEC82048
:1041000004F002F8F9E710B5FDF7B6FC05F076FE0D
:10411000012801D005F0C4FA10BD00B593B02821E4
:1041200009A8FCF7C9F8142104A8FCF7C5F8002079
:1041300000900190029003900120099000040A90E1
:1041400000200B9001200D9002201090C1031191CE
:104150004FF4E011129109A8FDF7A0FF08B1FCF798
:104160008DFE0F20049002200590002006904FF451
:104170008060079000200890022104A8FDF76AFEE5
:1041800008B1FCF77BFE0220009080030290684695
:10419000FDF7C8FD08B1FCF771FE13B000BD704714
:1041A00010B50248FEF795FC10BD0000AC010020E0
:1041B00010B50248FEF78DFC10BD00003C02002047
:1041C00010B50248FEF785FC10BD000084020020F7
:1041D00010B50268184B984208D0B0F1804F05D056
:1041E000164B984202D0164B984203D122F070022F
:1041F0004B681A43104B984208D0B0F1804F05D05D
:104200000E4B984202D00E4B984203D122F44072DA
:10421000CB681A4322F080034C6943EA040202602F
:104220008B68C3620B688362034B984201D10B69B0
:1042300003630123436110BD002C014000040040D2
:104240000008004030B501F01F05012404FA05F311
:10425000046A9C430462046A01F01F0502FA05F532
:104260002C43046230BD30B50C46816821F47F4197
:1042700042EA032525432943816030BD0A4681680F
:1042800021F0700142F0070319438160704700007C
:1042900030B5026A056A25F0010505624368846944
:1042A00024F0700424F003040D682C4322F0020271
:1042B0008D682A430D4DA84206D100BF22F00802A6
:1042C000CD682A4322F00402084DA84207D123F406
:1042D000807323F400734D692B438D692B43436036
:1042E00084614D684563026230BD0000002C0140CE
:1042F00030B5026A056A25F01005056243688469D5
:1043000024F4E04424F440740D6844EA052422F0C7
:1043100020028D6842EA05120E4DA84207D100BF67
:1043200022F08002CD6842EA051222F04002094DD7
:10433000A84209D123F4806323F400634D6943EA62
:1043400085038D6943EA8503436084614D68856315
:10435000026230BD002C014030B5026A056A25F4C6
:10436000807505624368C46924F0700424F0030476
:104370000D682C4322F400728D6842EA05220F4D2D
:10438000A84207D100BF22F40062CD6842EA0522AC
:1043900022F48062094DA84209D123F4805323F40A
:1043A00000534D6943EA05138D6943EA05134360E1
:1043B000C4614D68C563026230BD0000002C01403D
:1043C00030B5036A056A25F4805505624468C26900
:1043D00022F4E04222F440720D6842EA052223F4FE
:1043E00000538D6843EA0533064DA84204D124F4F6
:1043F00080444D6944EA85144460C2614D68056497
:10440000036230BD002C014030B50B461446026AF1
:10441000056A25F001050562816921F0F00141EA94
:10442000041122F00A021A438161026230BD30B5E4
:104430000B461446026A056A25F01005056281697B
:1044400021F4704141EA043122F0A00242EA031251
:104450008161026230BD00002DE9F0410546284629
:10446000FCF75EF921F0004106460022114BFCF7F3
:104470006BF918D201201049087001240022C103F1
:104480000E48FDF7EDFA0022A1030C48FDF7E8FA0B
:10449000002221030948FDF7E3FA002261030748DF
:1044A000FDF7DEFA00E000240020034908702046F2
:1044B000BDE8F0810000444088000020000C01406D
:1044C00070B505466C6A0020E085E0842046FEF762
:1044D00049FD70BD70B506460025746A20684069C4
:1044E000C0F3C01594F84100212805D125B1002062
:1044F000E084204600F0FBF820684069C0F3801596
:1045000094F84200222805D125B10020E0852046FC
:1045100000F0A7F8606C40F0100060642046FEF7E1
:1045200021FD70BD70B505466C6A2868006800F012
:104530002000002842D1E08500BF00BF21680C3177
:1045400051E8001F21F4807021680C3141E800021D
:10455000002AF3D100BF00BF00BF2168143151E829
:10456000001F21F001002168143141E80002002AF7
:10457000F3D100BF00BF00BF2168143151E8001F14
:1045800021F040002168143141E80002002AF3D1F3
:1045900000BF202084F84200206B01280ED100BF0C
:1045A00000BF21680C3151E8001F21F01000216884
:1045B0000C3141E80002002AF3D100BF0020606303
:1045C000206B012804D1A18D2046FEF7CAFC02E031
:1045D0002046FEF771FF70BD70B505466C6A01207C
:1045E0006063206B012805D1A08D41082046FEF7AD
:1045F000B8FC02E02046FEF760FF70BD70B50546CE
:104600006C6A2868006800F02000F8B90020E08497
:1046100000BF00BF2168143151E8001F21F0800065
:104620002168143141E80002002AF3D100BF00BF25
:1046300000BF21680C3151E8001F41F040002168A3
:104640000C3141E80002002AF3D102E02046FEF7D7
:104650007BFF70BD70B50446656A2846FEF775FF9E
:1046600070BD00BF00BF02680C3252E8002F22F478
:10467000907102680C3242E80013002BF3D100BFA6
:1046800000BF00BF0268143252E8002F22F001017F
:104690000268143242E80013002BF3D100BF016B13
:1046A00001290ED100BF00BF02680C3252E8002F72
:1046B00022F0100102680C3242E80013002BF3D103
:1046C00000BF202180F8421000210163704710B51F
:1046D00004462068C06820F040002168C86020209F
:1046E00084F841002046FEF72FFF002010BD00BFD8
:1046F00000BF02680C3252E8002F22F0C0010268AD
:104700000C3242E80013002BF3D100BF202180F8C7
:1047100041107047F8B5044694F84200222875D13C
:10472000A068B0F5805F0CD1206950B90025A66A59
:1047300020684068C0F308003080A06A801CA06236
:1047400015E0A56A0026A068B0F5805F03D0A068D8
:1047500028B9206918B920684068287004E02068EA
:10476000406800F07F002870A06A401CA062E08DC5
:10477000401E80B2E085002846D12068C06820F045
:1047800020002168C8602068C06820F4807021681B
:10479000C8602068406920F001002168486120203D
:1047A00084F8420000206063206B012826D100209D
:1047B000206300BF00BF21680C3151E8001F21F0C9
:1047C000100021680C3141E80002002AF3D100BF3B
:1047D0002068006800F0100010280AD100BF0020F7
:1047E000009020680068009020684068009000BF3A
:1047F00000BFA18D2046FEF7B4FB02E02046FEF785
:104800005BFE0020F8BD01E00020FBE70220F9E795
:1048100070B504462168096921F44051E2681143EA
:10482000226811612269A1681143626941EA0205A7
:104830002168C96841F20C62914329432268D16022
:104840002168496921F44071A269114322685161CC
:104850002D4A2168914202D1FDF7D8FB01E0FDF716
:10486000C5FB00EBC00101EB001162689200B1FBD7
:10487000F2F100EBC00202EB001263689B00B2FB96
:10488000F3F26423B2FBF3F202EBC20303EB021276
:10489000A1EB8201322202EB01116422B1FBF2F1A1
:1048A00001F0F00100EBC00202EB001263689B0014
:1048B000B2FBF3F26423B2FBF3F201EB021200EB62
:1048C000C00101EB001163689B00B1FBF3F100EB49
:1048D000C00303EB00136668B600B3FBF6F364266F
:1048E000B3FBF6F303EBC30606EB0313A1EB830163
:1048F000322303EB01116423B1FBF3F101F00F014B
:1049000011442268916070BD0038014077B581B0D4
:10491000044615460298A062A58500206064222006
:1049200084F842002848E16B88622848E16BC8623D
:104930002748E16B08630020E16B486302AE3268F0
:104940002368191D2B46E06BFCF73AFE00BF0020E0
:10495000009020680068009020684068009000BFC8
:1049600000BF206970B100BF00BF21680C3151E861
:10497000001F41F4807021680C3141E80002002AD8
:10498000F3D100BF00BF00BF2168143151E8001F00
:1049900041F001002168143141E80002002AF3D1FE
:1049A00000BF00BF00BF2168143151E8001F41F073
:1049B00040002168143141E80002002AF3D100BF11
:1049C000002004B070BD000025450008D94500084E
:1049D000D5440008014691F84100212828D1886873
:1049E000B0F5805F0BD1086948B90A6A1088C0F336
:1049F00008000B685860086A801C086205E00B6AB2
:104A0000581C086218780B685860C88C401E80B229
:104A1000C88458B90868C06820F080000B68D86066
:104A20000868C06840F040000B68D86000207047FC
:104A30000220FCE710B50248FEF796FA10BD000010
:104A4000CC02002010B50248FEF78EFA10BD00001F
:104A50001403002000BFFEE72DE9F05F81460C46FD
:104A60004846FBF75DFE07460E4A0F4BFBF7A5FDD8
:104A70000546FBF781FE82460C4881682046FBF71D
:104A80008BFC0646094908685146FBF785FC07463A
:104A90003146FBF729FC0546FBF715FE83465846D1
:104AA000BDE8F09F9A9999999999B93F64000020BF
:104AB0002DE9F04704460D4616461F466119084683
:104AC000FBF7F3FD2B4908602B492C480068FBF7E6
:104AD00063FC2A4908602A4926480068FBF75CFC09
:104AE0008046264801684046FBF7FEFB23490860E4
:104AF0000846016823480068FBF7F6FB2149086077
:104B0000394620480068FBF741FC1E4908601E49F1
:104B10001C480068FBF756FE02D21B481949086082
:104B20001A4918480068FBF743FE02D21748154996
:104B300008601748016913480068FBF72DFC8046A0
:104B40001348C1680D480068FBF726FC81464146C2
:104B5000FBF7CAFB0F4908603046FFF77DFC0128D0
:104B600002D10020074908600A480068FBF7ABFD46
:104B7000BDE8F08790000020CDCC4C3F9400002091
:104B8000CDCC4C3E9800002000401C4600401CC686
:104B9000640000208C0000202DE9F04704460D46FB
:104BA000A4F14000FBF781FD07462846FBF77DFD99
:104BB00082460B48016A5046FBF7EEFB804687F0C1
:104BC000004A074881695046FBF7E6FB81464146AB
:104BD000FBF7DCFB06463046FBF775FDBDE8F087CA
:104BE00064000020014A024900F0BCB8816A000854
:104BF00054010020490050EAC12018BF04204A0D8A
:104C000018BF40F0010040F2FF72B2EB515F08BFE5
:104C100040F00200012808BF0520704702480068E4
:104C2000C0F30220704700000CED00E010B5002832
:104C300004DB0A07130E054A135406E00A07140E94
:104C4000034A00F00F031B1FD45410BD00E400E022
:104C500018ED00E0EFF311807047EFF30580704727
:104C6000EFF3108070472DE9F0414F1E00EBC701B4
:104C70000446D1E9000115461E4637F006020DD064
:104C80002A463346FBF79FFC7F1E04EBC703D3E99C
:104C90000023FBF7F1FB37F00602F1D1022F25D0FC
:104CA000042F13D0062F18BFBDE8F0812A463346E3
:104CB000FBF789FCD4E90A23FBF7DEFB2A463346DF
:104CC000FBF781FCD4E90823FBF7D6FB2A463346E1
:104CD000FBF779FCD4E90623FBF7CEFB2A463346E3
:104CE000FBF771FCD4E90423FBF7C6FB2A463346E5
:104CF000FBF769FCD4E90223FBF7BEFB2A463346E7
:104D0000FBF761FCD4E90023BDE8F041FBF7B4BB3D
:104D10000122FBF7B6BEFBF7AFBB002213461046DD
:104D20001146FBF73FBE0000024A00201107FBF7C7
:104D3000A8BE000001FDFFFF02E008C8121F08C165
:104D4000002AFAD170477047002001E001C1121F0C
:104D5000002AFBD17047000001490860704700003D
:104D6000580100202DE9F04116460F460446002563
:104D700003E03946B047641C6D1C20780028F8D148
:104D80002846BDE8F08100002DE9FE4F06460F469B
:104D90000025684601F082FE002442E056F8240017
:104DA00057F82410A0EB010ABAF1000F01DB5146BD
:104DB00001E0CAF100010846FBF777FC83464FF09B
:104DC0008F41FBF71BFB80465DF824000021FBF7B9
:104DD000EFFC16D05DF824104046FBF70FFB82462F
:104DE0004FF07E51FBF7D2FA814629F0004A0F4876
:104DF000416A5046FBF7E6FC12D20120A040054371
:104E00000EE00A48C1694046FBF7D2FC05D30748CB
:104E1000016A4046FBF7D6FC02D20120A0400543C0
:104E2000641C032CBADB2846BDE8FE8F2CAA0008C0
:104E30002DE9F04D8D4F21F0004A86B005460C4615
:104E4000BA452ADBAAEB070028430AD088488245E6
:104E500001DC1AD1CDB106B02846BDE8F04DFFF710
:104E600057BF844A844B2846FBF7ADFB07460E46E6
:104E7000824A834B28462146FBF7A5FB06B03A46FB
:104E80003346BDE8F04DFBF7F7BA0120FFF764FFAA
:104E900006B0BDE8F04DFFF740BF7A48824542DAE0
:104EA000BAF1795F0BDA2846FFF7A4FE042808BFA1
:104EB000FFF73AFF284606B02146BDE8F08D2A46A6
:104EC0000B461046FBF77FFB834602466E480E46B4
:104ED0000B4606217844FFF7C6FE5A463346FBF7D9
:104EE00072FB804669488A465A4633460421784414
:104EF000FFF7B9FE5A463346FBF765FB00223B46F7
:104F0000FBF7BAFA02460B4640465146FBF74AFD0C
:104F10002A462346FBF757FB06B02A462346BDE840
:104F2000F04DFBF7A9BA284624F0004100223D4687
:104F30003B46FBF745FB4FF0FF32FBF7A2FD064671
:104F4000024653480F460B4606217844FFF78BFE76
:104F500032463B46FBF737FBCDE900014D48324670
:104F60003B4604217844FFF77EFE32463B46FBF782
:104F70002AFB00222B46FBF77FFA8346029130463C
:104F8000394603F097FF804643480D46504517DCED
:104F9000DDE900015A46029BFBF704FD42462B4621
:104FA000FBF711FB42462B46FBF766FA0122FBF7A3
:104FB00068FD304A304BFBF700FB304A304B4CE089
:104FC0004FF0000A52460B464046FBF755FACDE932
:104FD000031052462B4610461946FBF7F4FA3246A8
:104FE0003B46FBF7EDFADDE90332FBF7DBFC064657
:104FF0000F46DDE900015A46029BFBF7D3FC8346CE
:105000000091012230463946FBF73BFD194A1A4B05
:10501000FBF7D6FA06460F46012240462946FBF723
:1050200030FD5A46009BFBF7CEFA32463B46FBF773
:10503000C4FA06460F46012250462946FBF721FDD9
:105040000E4DDFF858802A464346FBF7B9FA324640
:105050003B46FBF7B5FA2A464346FBF7B1FA002C6C
:10506000D8BF81F0004106B0BDE8F08D0000F03FF0
:105070000000F07F075C143326A6913C182D4454A1
:10508000FB21F93F0000E03F786700008E670000D9
:1050900002670000186700003333EF3FFB21E93F50
:1050A0002DE9F84F04460D4621F000400091734968
:1050B000814211DC7249884201DC06D12CB12046C4
:1050C0002946BDE8F84FFFF723BE6E48002DCCBF40
:1050D0006D496E49BDE8F88F6D49814211DD6D491A
:1050E0008142D8BF4FF0FF366DDD20462946FFF7DD
:1050F00081FD042808BFFFF717FE20462946BDE8BA
:10510000F88F6549654F25F00045814233DD6449DC
:10511000814219DD002632464FF080432046294661
:10512000FBF7AAF980468A46012220462946FBF76A
:10513000A8FC00223B46FBF740FA42465346FBF7E9
:1051400031FC04460D463EE001260022BA463B46AD
:1051500020462946FBF790F980460F460022534629
:1051600020462946FBF729FA42463B46FBF71AFC44
:1051700004460D4627E04B4981421BDDDFF828A19C
:1051800002260022534620462946FBF71CFA00223D
:105190003B46FBF771F980460F46002253462046F6
:1051A0002946FBF70AFA42463B46FBF7FBFB04465F
:1051B0000D4608E0032622462B4600203B49FBF71C
:1051C000F1FB04460D4622462B4610461946FBF7D6
:1051D000FAF98B46824602460B46FBF7F4F907467E
:1051E0000246334888460B4606217844FFF73BFDCC
:1051F00052465B46FBF7E7F982462E488B463A4615
:10520000434605217844FFF72EFD3A464346FBF717
:10521000DAF902460B46002E504659460CDAFBF7E7
:105220002BF922462B46FBF7CEF901B022462B463E
:10523000BDE8F04FFBF7C4B9FBF71EF922462B4639
:10524000FBF7C1F91C4A7A4402EBC603D3E90023F9
:10525000FBF7B3F922462B46FBF7AFF9174A7A441E
:1052600002EBC603D3E90023FBF7AAF9009A002A50
:10527000B8BF81F00041BDE8F88F00000000104485
:105280000000F07F182D4454FB21F93FFB21F9BFAA
:105290000000DC3F0000203E0000F33F0000F03F34
:1052A0000000E63F008003400000F83F0000F0BF30
:1052B0001A650000D8640000766400003E640000B7
:1052C0002DE9F04D9446CCF1000423F000464CEA61
:1052D0000404594F46EAD4749A46884621F00042A5
:1052E000BC4206D8454240EA050442EAD474BC42B6
:1052F00004D9BDE8F04D6246FFF70DBDAAF1405557
:10530000A5F17F6555EA0C040BD0022404EAAA74C7
:105310004A4DDFF82CE144EAD87452EA000B04D07D
:105320000CE0BDE8F04DFFF7BBBE002C14BF012C14
:10533000BDE8F08D022C30D0032C32D056EA0C0B95
:105340000AD0BE4220D1BA4209D126F0804622F0CE
:1053500080423346114617E000291ADB25E0DFF8CA
:10536000E4B0FB44002C04BFDBE90001BDE8F08D94
:10537000012C02BFDBE9000181F00041BDE8F08DA6
:10538000022C0AD0032C0CD0BA4212D1B8F1000F73
:105390000BDA2A482C49BDE8F08D28462B49BDE898
:1053A000F08D28467146BDE8F08D24482849BDE8B7
:1053B000F08D921B12153C2AC4BF204F244E10DCE6
:1053C000BAF1000FBEBF12F13C0F00273E4608DBCA
:1053D0006246FBF7E7FA21F00041FFF761FE07465E
:1053E0000E4694B1012C08BF86F000460DD0194A34
:1053F000194B022C3846314615D0FBF7DEF82A4609
:10540000BDE8F04D114BFBF7D8B8002213463846E3
:105410003146FBF74DFB04BF0220FFF79DFC3846E9
:105420003146BDE8F08DFBF7C8F82A46BDE8F04DDF
:10543000064BFBF7C5B800000000F07F182D445460
:10544000FB2109C0D2630000FB21F9BFFB21094009
:10545000FB21F93F075C143326A6A13C2DE9F04F50
:1054600099B004460D4616460027B846B946BA46D6
:1054700012A814A913AB0EAACDE9001015A917A8FC
:1054800000F0A4FE18B1012019B0BDE8F08FBDF8FE
:10549000500000F4807000287ED00E98FBF705F9CC
:1054A00083464FF09D41FAF7A9FF07460F98FBF797
:1054B000FCF883464FF09D41FAF7A0FF8046109814
:1054C000FBF7F3F883464FF09D41FAF797FF8146CB
:1054D0001198FBF7EAF883464FF09D41FAF78EFFEB
:1054E000824639464FF08040FAF756FF494605900C
:1054F000FAF752FF414607904FF04040FAF74CFF51
:1055000051460590FAF748FF06900799FAF7ECFE26
:105510008346FBF705F9CDE90801FFF789FC4FF059
:105520006632544BCDE90A01FBF74DF8CDE90C0189
:10553000FBF722F9206049464FF08040FAF72CFF34
:1055400049460290FAF728FF414604904FF0404048
:10555000FAF722FF41460290FAF71EFF03900499E2
:10556000FAF714FF83464FF07E51FAF7BDFE05901F
:10557000FBF7D6F8CDE9080139464FF08040FAF73D
:105580000BFF41460390FAF707FF494604904FF09E
:105590008040FAF701FF00E068E051460390FAF717
:1055A000FBFE83460499FAF79FFE0590FBF7B8F8D7
:1055B000CDE90601DDE90823FFF782FE4FF06632F0
:1055C0002C4BCDE90A01FAF7FEFFCDE90C01FBF700
:1055D000D3F8286051465046FAF7DEFE494604905B
:1055E0004846FAF7D9FE414603904046FAF7D4FE02
:1055F000394601903846FAF7CFFE00900199FAF744
:1056000073FE02900399FAF7C1FE83460499FAF7F4
:10561000BDFE0590FBF784F8CDE9080151463846F8
:10562000FAF7BAFE494604904046FAF7B5FE0390F1
:105630000499FAF759FE4FF080410590FAF7ACFE55
:105640008346FBF76DF8CDE90601DDE90823FFF796
:1056500037FE4FF06632074BCDE90A01FAF7B3FF88
:10566000CDE90C01FBF788F8306001E001200BE781
:10567000002009E766A64C402DE9F041002001F02A
:10568000AFFEC4B2782002F097FC2044C4B2782068
:1056900001F094FD2044C4B2642002F03FFC204499
:1056A000C4B200F087FD2044C4B2194D284601F071
:1056B0000DFD0646E81C01F009FD46EAC00086B271
:1056C000A81D01F003FD46EA801086B200BF3746F0
:1056D000384600F0CBFF2044C4B240F2731000F013
:1056E00011FC2044C4B2642000F0F0FE2044C4B297
:1056F000012002F00FFB2044C4B200F08DFA2044D8
:10570000C4B214B10120BDE8F0810020FBE7000025
:10571000480100202DE9FC4104460D4616466B4623
:1057200006223B21682000F027FA0746BFB99DF802
:1057300001009DF8001040EA012000B220809DF891
:1057400003009DF8021040EA012000B228809DF875
:1057500005009DF8041040EA012000B23080384670
:10576000BDE8FC8110B504460CB9012010BDFCF762
:105770007DF920600020F9E72DE9FC4104460D4643
:1057800016466B4606224321682000F0F5F90746CD
:10579000BFB99DF801009DF8001040EA012000B259
:1057A00020809DF803009DF8021040EA012000B21D
:1057B00028809DF805009DF8041040EA012000B201
:1057C00030803846BDE8FC8100B585B000200190EE
:1057D00002900390049000BF00BF1048806940F021
:1057E00004000E4988610846806900F004000090BA
:1057F00000BF00BF00BF0120019002900390032072
:10580000049001A90648FBF793FF00BF0022012185
:105810000348FCF725F900BF05B000BD00100240A9
:105820000008014010B500BF002220211048FCF7FD
:1058300017F900BF00F01EF800BF012210210C482C
:10584000FCF70EF900BF00F015F800BF0022102190
:105850000748FCF705F900BF00F00CF800BF012273
:1058600020210348FCF7FCF800BF00F003F810BD4E
:105870000008014010B5022000F002FB10BD00003E
:1058800000B585B00020019002900390049000BF05
:1058900000BF1A48806940F0040018498861084632
:1058A000806900F00400009000BF00BF00BF00BF8F
:1058B00000BF0846806940F004008861084680699E
:1058C00000F00400009000BF00BF00BF1020019056
:1058D0000120029003900320049001A90848FBF7DF
:1058E00027FF202001901120029001A90448FBF716
:1058F0001FFF00F0B1F805B000BD0000001002402D
:105900000008014010B500BF012220210C48FCF71F
:10591000A7F800BFFFF7AEFF00BF01221021084823
:10592000FCF79EF800BFFFF7A5FF00BF0022102183
:105930000348FCF795F800BFFFF79CFF10BD00007F
:105940000008014070B50546002400261CE06006F2
:10595000040E00BF012210211048FCF781F800BF9F
:10596000FFF788FF20210D48FCF772F808B1601C92
:10597000C4B200BF002210210848FCF771F800BF34
:10598000FFF778FF701CC6B2082EE0DB15B9FFF7F1
:10599000B9FF01E0FFF746FF204670BD0008014057
:1059A00070B50446002524E000BFE00928B10122BB
:1059B00020211548FCF754F804E000222021124869
:1059C000FCF74EF800BFFFF755FF00BF0122102182
:1059D0000D48FCF745F800BFFFF74CFF00BF002261
:1059E00010210948FCF73CF800BF6006040E681C53
:1059F000C5B2082DD8DB00BF012220210248FCF7E8
:105A00002FF800BF70BD00000008014010B500BFB6
:105A1000012220210F48FCF723F800BF00BF01221C
:105A200010210C48FCF71CF800BFFFF723FF00BF54
:105A3000002220210748FCF713F800BFFFF71AFFE8
:105A400000BF002210210348FCF70AF800BFFFF74F
:105A500011FF10BD0008014010B500BF0022202139
:105A60000C48FBF7FDFF00BFFFF704FF00BF01225A
:105A700010210848FBF7F4FF00BFFFF7FBFE00BF53
:105A8000012220210348FBF7EBFF00BFFFF7F2FEE6
:105A900010BD00000008014070B50024002500BFC3
:105AA000012220211448FBF7DBFF00BFFFF7E2FED5
:105AB00000BF012210211048FBF7D2FF00BFFFF703
:105AC000D9FE07E0601CC4B2FA2C03DDFFF7C4FF67
:105AD000012505E020210848FBF7BAFF0028F1D195
