:020000040800F2
:1000000078370020E10100085D39000873340008EA
:1000100059390008F90C0008C94800080000000020
:10002000000000000000000000000000490100087E
:10003000710E0008000000008D010008ED3F00086F
:10004000FB010008FB010008FB010008FB010008A0
:10005000FB010008FB010008FB010008730E00080B
:10006000FB010008FB010008FB010008FB01000880
:10007000FB010008FB010008FB010008FB01000870
:10008000250E0008350E0008FB010008FB010008E2
:10009000FB010008FB010008FB010008FB01000850
:1000A000FB01000889400008FB010008FB01000873
:1000B000FB01000899400008A9400008FB01000866
:1000C000FB010008FB010008FB010008FB01000820
:1000D000FB010008FB010008B9480008FB0100080B
:1000E000FB010008FB010008FB010008FB01000800
:1000F000FB010008FB010008FB010008FB010008F0
:10010000FB010008FB010008FB010008FB010008DF
:10011000FB010008FB010008FB010008FB010008CF
:10012000FB010008FB010008FB010008FB010008BF
:10013000DFF810D000F0EAFC0048004789710008A1
:10014000AFF3008078370020224B19680868B0E8C8
:10015000F00F80F30988BFF36F8F4FF0000080F33A
:1001600011884EF00D0E7047000000000648006830
:10017000006880F3088862B661B6BFF34F8FBFF3A3
:100180006F8F00DF00BF00BF08ED00E0EFF30980D4
:10019000BFF36F8F0F4B1A6820E9F00F106008B59E
:1001A0004FF0500080F31188BFF34F8FBFF36F8F74
:1001B00009F032F84FF0000080F31188BDE80840E4
:1001C00019680868B0E8F00F80F30988BFF36F8FF3
:1001D000704700BFE0000020EFF30580704700008B
:1001E0000648804706480047FEE7FEE7FEE7FEE7D1
:1001F000FEE7FEE7FEE7FEE7FEE7FEE785400008D4
:10020000310100082DE9F0410024061B254671F15B
:10021000000605DA01240027D0EB070067EB010197
:10022000161E73F1000605DA0027D2EB070201253E
:1002300067EB030300F0E6FA86460E4617469C4637
:10024000AC4204D00025D0EB050E65EB010624B1CD
:100250000020D2EB000760EB030C704631463A46B3
:100260006346BDE8F081202A04DB203A21FA02F03F
:100270000021704721FA02F3D040C2F120029140E0
:1002800008431946704740EA01039B0703D009E081
:1002900008C9121F08C0042AFAD203E011F8013B72
:1002A00000F8013B521EF9D27047D2B201E000F8CB
:1002B000012B491EFBD270470022F6E710B513460A
:1002C0000A4604461946FFF7F0FF204610BD30B538
:1002D00004460020034600E05B1C934203D2E05C2E
:1002E000CD5C401BF8D030BDF0B480EA0102D40FE1
:1002F0004200B2EB410F02D20246084611464A00C4
:1003000042D0C30DDDB2C1F3C752AD1A202D35DA8C
:10031000C1F3160141F4000204B15242C5F12006B6
:1003200002FA06F12A411044B3EBD05F23D0C4B1E6
:10033000012DA0EBC35009DCF0BC4FF0004202EAF3
:10034000C352DBB200F5000000F0B7BA400000F184
:10035000807000EBC350A0F1807040EAD17049007A
:1003600009E0490841EAC071A0EBC35000F5000064
:10037000400800EBC350F0BC00F096BA6142012285
:1003800002EB4101001BF6E7F0BC704781F0004131
:10039000AAE780F00040A7E780EA010210B502F06A
:1003A0000043400022D04A001FD0010E01EB126131
:1003B000C0F35600C2F3560240F4000042F40002BB
:1003C000A0FB022000047F39140400D0401C50EA36
:1003D000124001D44000491EC2B20C0604EBD010FA
:1003E000401C4008802A02D003E0002010BD20F00D
:1003F0000100002900DA0020184310BD30B480EA63
:10040000010202F0004530F0004221F0004013D01C
:1004100090B1C30DD40DC2F31601C0F31600E41A57
:1004200041F4000140F400027D34914201D3641C88
:1004300000E04900002C02DA30BC002070474FF485
:1004400000000023914201D3891A034340084FEA78
:100450004101F7D151B1914202D14FF0004105E085
:1004600002D24FF0010101E06FF0010103EBC45033
:10047000284430BC00F018BA2DE9FE4F804681EACE
:100480000300C00F0C46009021F0004123F000450E
:10049000B8EB0200A94105D24046214690461C46D1
:1004A0000B46024623F00040104347D0270DC7F308
:1004B0000A00C3F30A510290401A019040286BDAF7
:1004C000C3F3130040F4801B0098924620B1002330
:1004D000D2EB030A63EB0B0B01985946C0F14002C3
:1004E000504600F0C0F906460D4650465946019A5E
:1004F00000F0C8F910EB08006141002487EA1152AE
:1005000084EAE7731A4340D0009A62B3019A012A41
:100510004FEA075215DC001B61EB02014FF000426D
:1005200002EA0752CDE90042001C41F58011324633
:100530002B4600F0FFF903B0BDE8F08F404621469E
:10054000F9E7001B61EB0201001C41F58013001864
:100550005B412018A2F5001747EB030140EAD57074
:10056000B6196D4111E06D084FEA360645EAC075CF
:100570004FEA0752001B61EB0201001C41F580119C
:1005800049084FEA30000019514132462B4603B06A
:10059000BDE8F04F00F0BFB90098012240000023F1
:1005A000D0EB020263EBE073009821464FEAE0745F
:1005B000B8EB000061EB0401E9E783F000435BE77F
:1005C00081F0004158E72DE9FE4F81EA030404F071
:1005D000004421F0004100944FF0000B23F0004351
:1005E00050EA01045ED052EA03045BD0C3F30A541C
:1005F000C1F30A552C44A4F2F3340194A0FB025435
:10060000C1F3130141F48011C3F3130343F48013C6
:1006100001FB024400FB034E840A970A44EA81541A
:1006200047EA8357A4FB076802958D0A05FB0785F7
:100630004FEA932C04FB0C542705029D4FEA065801
:1006400047EA1637B5EB08056EEB070C870E920EDE
:1006500047EA811742EA8312A7FB0201B6EB0B01BE
:1006600064EB00042B0D43EA0C335E1844EB1C5082
:10067000DA465146E7FB0201C5F313044FEA0B3398
:1006800043EA14534FEA0432019C43EA0603A4F1FF
:100690000C040294009CCDE900B400F04BF903B0C7
:1006A000BDE8F08F00200146F9E7C10F80EAE07055
:1006B0000844CA079623002100F0FFB896230022C1
:1006C000114600F0FAB800F0004220F00040C10DE1
:1006D000C0F3160040F400007F2901DA00207047C3
:1006E000962903DCC1F19601C84001E096398840A3
:1006F000002AF4D04042704720F00040C10DC0F302
:10070000160040F400007F2901DA00207047962986
:1007100003DCC1F19601C8407047963988407047A4
:1007200000F0004230F000400AD0C10D01F56071C8
:10073000C0F3160042EA0151C20840071143704756
:10074000002001467047000030B5041E71F100041E
:1007500004DB4FF00044404264EB0101141E73F1CE
:10076000000405DB1C464FF00043524263EB0403D8
:10077000994208BF904230BD01F0004330B421F0EF
:10078000004150EA010206D00A0DA2F56072C1F3E1
:100790001301002A02DC30BC00207047440F44EAF9
:1007A000C104C100E01830BC00EBC25000F07CB8BE
:1007B000002801DBC0F10040002901DBC1F100414C
:1007C00081427047002801DBC0F10040002901DBB5
:1007D000C1F100418842704730B50B460146002008
:1007E0002022012409E021FA02F59D4205D303FAF3
:1007F00002F5491B04FA02F52844151EA2F1010274
:10080000F1DC30BD2DE9F05F0546002092469B46A5
:1008100088460646814640241BE028464146474616
:100820002246FFF720FD53465A46C01A914110D385
:1008300011461846224600F016F82D1A67EB0108FB
:100840004F4622460120002100F00DF817EB000969
:100850004E41201EA4F10104DFDC484631462A4601
:100860004346BDE8F09F202A04DB203A00FA02F15B
:10087000002070479140C2F1200320FA03F319438E
:1008800090407047202A06DBCB17203A41FA02F04D
:1008900043EAE07306E041FA02F3D040C2F12002DD
:1008A00091400843194670470029A8BF7047401C73
:1008B000490008BF20F00100704710B4B0FA80FC76
:1008C00000FA0CF050EA010404BF10BC704749B1B3
:1008D000CCF1200421FA04F411FA0CF118BF012123
:1008E00021430843A3EB0C01CB1D4FEA00614FEA03
:1008F000102042BF002010BC704700EBC3501044D2
:100900000029A4BF10BC7047401C490008BF20F05C
:10091000010010BC704710B5141E73F1000408DA12
:10092000401C41F1000192185B411A4301D120F0B3
:10093000010010BD2DE9F04D92469B4611B1B1FA70
:1009400081F202E0B0FA80F220329046FFF78BFF8E
:1009500004460F4640EA0A0041EA0B0153465A4654
:10096000084313D0114653EA010019D0C8F14002E0
:100970005046FFF778FC05460E465046594642461B
:10098000FFF771FF084305D0012004E020463946F7
:10099000BDE8F08D0020054346EAE0762C4337435E
:1009A0000A986305E40AA0EB08000022FD0A44EA65
:1009B00047540A3002D500200146E9E70105101925
:1009C0006941DDE9084500196941BDE8F04DA2E73C
:1009D0002DE9F04D81EA030404F0004B21F00045BD
:1009E00014464FF0000A23F0004150EA050220D0DF
:1009F00054EA01021DD0C5F30A570246C5F313039A
:100A0000C1F31300C1F30A5640F4801543F4801378
:100A1000A7EB0608101BD64608F2FD3873EB05005D
:100A200002D308F1010801E092185B41B8F1000F10
:100A300003DA00200146BDE8F08D00204FF480115C
:100A4000064684460EE0171B73EB050705D3121B01
:100A500063EB050306434CEA010C49084FEA3000FA
:100A600092185B4150EA0107EDD152EA030012D01F
:100A700082EA040083EA0501084305D0101BAB415C
:100A800006D20122002306E000224FF0004302E0DC
:100A90006FF0010253101AEB06004CEB085110EBFB
:100AA0000A0041EB0B01BDE8F04DFFF734BF70B514
:100AB00021F0004303430CD0C1F30A550024D5EBC9
:100AC000040564EB0403D617AD1AB34102DB002022
:100AD000014670BD201841EB025170BD30B5041EB7
:100AE00071F1000404DB4FF00044404264EB01016B
:100AF000141E73F1000405DB1C464FF00043524204
:100B000063EB04038B4208BF824230BD064C074DA5
:100B100006E0E06840F0010394E8070098471034CD
:100B2000AC42F6D3FFF708FB70B1000890B10008A3
:100B30002DE9F04D00231A461B1A8A4103DB0020E1
:100B40000146BDE8F08DC1F30A52C1F3130141F42F
:100B500080154FF0000BD10702D100186D41521ED5
:100B60000027044640F2FF11384601EB620A3E4678
:100B70008046024600204FF48011FFF774FBC21933
:100B80007141BB1846EB0100B4EB030C75EB000C94
:100B900004D3E41A65EB000517460E46241908F144
:100BA00001006D4180463428E3DDF91946EB06006B
:100BB000091BA84103D24FF0FF32134601E0002287
:100BC00013461BEB070046EB0A51BDE8F04DFFF75B
:100BD000A2BE30B58C1810F8012B12F00F0301D112
:100BE00010F8013B120906D110F8012B03E010F8B0
:100BF000015B01F8015B5B1EF9D101E001F8013BEB
:100C0000521EFBD1A142E6D3002030BD70B5044690
:100C100000252068806800F0010018B32068806813
:100C200020F001002168886000F020FF054613E0F5
:100C300000F01CFF401B02280ED92068806800F0DD
:100C4000010048B1A06A40F01000A062E06A40F0E4
:100C50000100E062012070BD2068806800F00100A2
:100C60000028E5D10020F6E738B50446002500202D
:100C700000902068806800F0010078BB20688068E0
:100C800040F0010021688860194800681949B0FBEC
:100C9000F1F0009002E00098401E009000980028BB
:100CA000F9D100F0E3FE054619E000F0DFFE401B3D
:100CB000022814D92068806800F0010078B9A06A81
:100CC00040F01000A062E06A40F00100E06200BF66
:100CD000002084F8240000BF012038BD05E0206812
:100CE000806800F001000028DFD00020F5E7000058
:100CF0002800002040420F0000BFFEE710B5124A56
:100D0000111F081F04F07AFB04460F4A103A911E87
:100D1000881E04F0CFFC2044C4B20B4A0A3A911E4C
:100D2000881E04F0F9FC2044C4B234B918220649E4
:100D300014390648FFF7A7FA05E0182203490248CC
:100D40001438FFF7A0FA10BD5C06002060060020F2
:100D500010B5012003F08CF84042264908600220BB
:100D600003F086F8244908602449B1F90800FFF728
:100D70009CFC04462149C868214603F0A7FD204990
:100D800008601E48C2681F4803681B48016819486C
:100D9000006803F0C7FD1C490860184AB2F90A1040
:100DA0001A4A107803F032FE1949086014480068A6
:100DB0001549096808441649096808441549086036
:100DC0000F48006810490968084411490968401A29
:100DD000114908600F4803F01DF80849C86803F07E
:100DE000AFFA28B90C4801680A48006803F05CF8BB
:100DF00010BD0000440000204800002048060020EC
:100E0000300000204C000020340000205000002062
:100E1000380000203C0000204000002010B502F007
:100E2000BDFE10BD10B5024800F0C8FA10BD0000AC
:100E3000C005002010B5024800F0C0FA10BD000047
:100E40000406002030B590F840500124AC40C56B3A
:100E50006C60046863604468102C04D10468A2606C
:100E60000468E16003E00468A1600468E26030BDEA
:100E7000704710B5022000F04DFC10BD72B600BFE7
:100E8000FEE70000F8B5044600260020009000BFF1
:100E900094F82400012801D10220F8BD012084F833
:100EA000240000BF2046FFF7B1FE06462046FFF7AC
:100EB000DBFE0646002E69D1A06A20F4885040F07F
:100EC0000200A062022000F0AFFE34490968B1FBC5
:100ED000F0F04000009002E00098401E0090009862
:100EE0000028F9D12068806840F0080021688860F7
:100EF00000F0BCFD054616E000F0B8FD401B0A28D6
:100F000011D92068806800F0080060B1A06A20F064
:100F1000020040F01000A06200BF002084F824000E
:100F200000BF0120B9E72068806800F008000028B1
:100F3000E2D12068806840F004002168886000F0F9
:100F400095FD054616E000F091FD401B0A2811D9D9
:100F50002068806800F0040060B1A06A20F0020000
:100F600040F01000A06200BF002084F8240000BF01
:100F7000012092E72068806800F004000028E2D198
:100F8000A06A20F0020040F00100A06200BF002033
:100F900084F8240000BF30467FE7000028000020CE
:100FA00038B5024600230020009000BF92F82400CC
:100FB000012801D1022038BD012082F8240000BFA1
:100FC0004868072812D21068406B0C79641E04EB45
:100FD00084051F24AC40A0430D796D1E05EB8505EB
:100FE0000C68AC4020431468606327E048680D2813
:100FF00012D21068006B0C79E41F04EB84051F24E7
:10100000AC40A0430D79ED1F05EB85050C68AC40A5
:1010100020431468206311E01068C06A0C790D3C0D
:1010200004EB84051F24AC40A0430D790D3D05EB76
:1010300085050C68AC4020431468E06208680A2803
:1010400012D31068C0680C780A3C04EB44050724EE
:10105000AC40A0430D780A3D05EB45058C68AC40DB
:1010600020431468E0600FE0106800690C7804EB1E
:1010700044050724AC40A0430D7805EB45058C687A
:10108000AC402043146820610868102802D008682A
:10109000112827D1174C1068A0421ED11068806813
:1010A00000F40000F0B91068806840F40000146893
:1010B000A0600868102815D10F4800680F4CB0FBDD
:1010C000F4F000EB80004000009002E00098401E29
:1010D000009000980028F9D104E0906A40F02000C8
:1010E0009062012300BF002082F8240000BF184650
:1010F00061E70000002401402800002040420F006A
:101100002DE9F0410446002700250026A84614B921
:101110000120BDE8F081A06810B1207D00B100BFC2
:10112000A06A30B90020E06284F82400204600F074
:1011300089F82046FFF76AFD0746A06A00F0100014
:10114000002873D1002F71D1A06A20F4885040F09C
:101150000200A062E16960680843217B40EA410027
:101160000643A068B0F5807F02D0A068012802D1B4
:101170004FF4807000E000200543207D012811D14C
:10118000207B38B9A069401E4FF4006141EA40302D
:10119000054307E0A06A40F02000A062E06A40F04A
:1011A0000100E0622068406820F46940284321681B
:1011B0004860206880682149084030432168886081
:1011C000A068B0F5807F02D0A068012802D14FF45A
:1011D000807000E00020B0F5807F03D1208A401E9F
:1011E0004FEA00582068C06A20F4700040EA080006
:1011F0002168C8622068806811490840B04208D15F
:101200000020E062A06A20F0020040F00100A0622D
:1012100011E0A06A20F0020040F01000A062E06A35
:1012200040F00100E062012705E0FFE7A06A40F01E
:101230001000A062012738466BE70000FDF7E1FFD0
:10124000FE0E1FFF10B586B00446002002900390EA
:101250000490059014492068884222D100BF1348A9
:10126000806940F40070114988610846806900F483
:101270000070019000BF00BF00BF0846806940F0C9
:10128000040088610846806900F00400019000BFF6
:1012900000BF022002900320039002A9044800F03E
:1012A00047FA06B010BD00000024014000100240C3
:1012B000000801400146002291F82100022808D0D0
:1012C0000420886300BF002081F8200000BF0120B7
:1012D00070470868006820F00E000B681860086806
:1012E000006820F001000B68186091F84030012080
:1012F0009840CB6B5860012081F8210000BF00208E
:1013000081F8200000BF1046E2E7000070B50446F7
:10131000002594F82100022803D00420A0630125B1
:1013200048E02068006820F00E002168086020680E
:10133000006820F00100216808601F492068884289
:1013400001D1012026E01C4914312068884201D1D6
:1013500010201FE0184928312068884201D18015EB
:1013600018E015493C312068884201D1801411E011
:10137000114950312068884202D14FF4803009E091
:101380000D4964312068884202D14FF4801001E099
:101390004FF08070084908394860012084F8210026
:1013A00000BF002084F8200000BF606B10B1204611
:1013B000616B8847284670BD0800024070B504463E
:1013C000E06B05682068066894F8401004208840A7
:1013D0002840002846D006F00400002842D02068AB
:1013E000006800F0200028B92068006820F00400A0
:1013F0002168086057492068884201D1042027E00D
:10140000544914312068884201D1402020E05149DC
:1014100028312068884201D1001519E04D493C313E
:101420002068884202D14FF4804011E04949503190
:101430002068884202D14FF4802009E04549643198
:101440002068884202D14FF4800001E04FF08060B4
:10145000404908394860E06A00287AD02046E16AAD
:10146000884776E094F84010022088402840A0B3D6
:1014700006F0020088B32068006800F0200040B940
:101480002068006820F00A0021680860012084F8C4
:10149000210030492068884201D1022028E02D49EE
:1014A00014312068884201D1202021E029492831C7
:1014B0002068884201D140151AE026493C31206855
:1014C000884202D14FF4005012E022495031206886
:1014D000884203D14FF400300AE017E01D4964311F
:1014E0002068884202D14FF4001001E04FF00070F4
:1014F00018490839486000BF002084F8200000BF68
:10150000A06A30B32046A16A884722E094F84010D0
:10151000082088402840E0B106F00800C8B12068E3
:10152000006820F00E002168086094F84010012047
:101530008840E16B48600120A06384F8210000BF6F
:10154000002084F8200000BF206B10B12046216BE2
:10155000884770BD080002400146002209B90120F9
:101560007047164B0868C01A1423B0FBF3F08000D4
:10157000086412480838C863022081F8210008680E
:10158000026843F6F0708243D1E901031843CB6847
:1015900018430B6918434B6918438B691843CB698F
:1015A000184302430868026000208863012081F824
:1015B0002100002081F8200000BFD1E70800024090
:1015C0002DE9F04104460D4616461F464FF000082F
:1015D00000BF94F82000012802D10220BDE8F0816C
:1015E000012084F8200000BF94F8210001282CD1AC
:1015F000022084F821000020A0632068006820F009
:101600000100216808603B46324629462046FFF724
:1016100019FCE06A30B12068006840F00E002168D3
:1016200008600BE02068006820F004002168086072
:101630002068006840F00A0021680860206800689F
:1016400040F001002168086006E000BF002084F837
:10165000200000BF4FF002084046BFE770B50446C7
:1016600000F004FA06462546681C10B104480078CC
:10167000054400BF00F0FAF9801BA842FAD370BD00
:101680002400002070B504460025022C32D11A48EF
:10169000007858B9012018490870002017490870CF
:1016A00017490860174800F0F3FF23E000201249B3
:1016B0000870144801F028F8114800680F490978AB
:1016C00001EB4102C2EBC11100EBC100450848F239
:1016D000D04068430C4990FBF1F00C490860084683
:1016E000006818B90A480068086003E00748006805
:1016F0000749086070BD000014000020150000209C
:10170000242C01401004002040420F00A4000020BF
:101710001800002010B5044604480068204020B19D
:10172000024804602046FFF7ADFF10BD14040140DD
:101730002DE9F8470346002294466EE14FF0010878
:1017400008FA02F4D1F8008008EA0400A0427DD132
:10175000DFF8DCA2D1F80480A8EB0A09D0453AD022
:1017600014DCB8F1030F50D009DCB8F1000F31D010
:10177000B8F1010F1CD0B8F1020F49D120E0B8F147
:10178000110F18D0B8F1120F42D11EE0B9F5881F21
:1017900025D006DCB9F5803F20D0B9F5801F37D1C0
:1017A0001AE0B9F5001F18D0B9F5041F30D117E0C1
:1017B000D1F80CC02DE0D1F80C8008F1040C28E021
:1017C000D1F80C8008F1080C23E0D1F80C8008F166
:1017D0000C0C1EE000BF00BF00BF00BF00BF00BF79
:1017E000D1F80880B8F1000F02D14FF0040C0BE0E3
:1017F000D1F80880B8F1010F03D14FF0080C1C613B
:1018000002E04FF0080C5C6103E04FF0000C00E0D8
:1018100000BF00BFFF2801D8984601E003F104088B
:101820004646FF2802D84FEA820803E0A2F10808E2
:101830004FEA88084746D6F800804FF00F0909FAAA
:1018400007F928EA09080CFA07F900E088E048EAF5
:101850000908C6F80080D1F8048008F08058B8F173
:10186000805F7DD100BFDFF8CC81D8F8188048F0C8
:101870000108DFF8C091C9F81880C846D8F8188068
:1018800008F00108CDF8008000BF00BF4FEAB9386A
:101890004FEA920958F829504FEA82784FEA1879AE
:1018A0004FF00F0808FA09F825EA0805DFF88881E3
:1018B000434502D14FF0000816E0DFF88081434530
:1018C00002D14FF001080FE0DFF87481434502D1E7
:1018D0004FF0020808E0DFF86C81434502D14FF079
:1018E000030801E04FF004084FEA82794FEA1979C2
:1018F00008FA09F848EA0505DFF84C814FEA920931
:1019000048F82950D1F8048008F48018B8F5801FF1
:101910000AD1DFF83881D8F8008048EA0008DFF8FB
:101920002C91C9F8008009E0DFF82081D8F8008008
:1019300028EA0008DFF81491C9F80080D1F8048083
:1019400008F40018B8F5001F10D1DFF8008108F185
:101950000408D8F8008048EA0008DFF8F09000E0BA
:101960005AE009F10409C9F800800DE0DFF8DC80D5
:1019700008F10408D8F8008028EA0008DFF8CC90C5
:1019800009F10409C9F80080D1F8048008F400388E
:10199000B8F5003F0ED1DFF8B480A8F10408D8F8FC
:1019A000008048EA0008DFF8A490A9F10409C9F80A
:1019B00000800DE0DFF89480A8F10408D8F80080DA
:1019C00028EA0008DFF88490A9F10409C9F800802A
:1019D000D1F8048008F48038B8F5803F0ED1DFF8E4
:1019E0006C80A8F10808D8F8008048EA0008DFF801
:1019F0005C90A9F10809C9F800800DE0DFF84C807F
:101A0000A8F10808D8F8008028EA0008DFF83C9020
:101A1000A9F10809C9F80080521CD1F8008028FA01
:101A200002F8B8F1000F7FF489AEBDE8F887000036
:101A3000000011100010024000080140000C01409D
:101A4000001001400014014008000140080401405A
:101A5000024693680B400BB1012000E00020704764
:101A60000AB1016101E00B0403617047014800689D
:101A7000704700001C0000200348006803490978F3
:101A800008440149086070471C0000202400002021
:101A900010B50848006840F01000064908600320AF
:101AA00000F0AEF80F2000F007F800F02BF800204F
:101AB00010BD00000020024070B504460E480078BA
:101AC0004FF47A71B1FBF0F00C490968B1FBF0F505
:101AD000284600F029FD08B1012070BD102C07D266
:101AE00000222146501E00F04DF80548046001E038
:101AF0000120F2E70020F0E7240000202800002069
:101B00002000002008B500BF1448806940F00100A3
:101B1000124988610846806900F00100009000BF0A
:101B200000BF00BF0846C06940F08050C861084649
:101B3000C06900F08050009000BF00BF00220F215C
:101B4000901E00F01FF800BF0549486820F0E060D3
:101B500040F00070486000BF08BD00000010024067
:101B60000000014001460846002809DB00F01F0381
:101B700001229A4043099B0003F1E023C3F80021AE
:101B800000BF70472DE9F05F80460D4616460027DE
:101B900002F086FF074639462A46334601F0070021
:101BA000C0F1070ABAF1040F02D94FF0040A01E0AC
:101BB000C0F1070AD14600F1040ABAF1070F02D2B8
:101BC0004FF0000A01E0A0F1030AD4464FF0010AE9
:101BD0000AFA09FAAAF1010A0AEA020A0AFA0CFA4E
:101BE0004FF0010B0BFA0CFBABF1010B0BEA030BF3
:101BF0004AEA0B042146404602F05AFFBDE8F09F36
:101C000000BF00F00702064B19684FF6FF031940AA
:101C1000044B0B4343EA0221014B196000BF70479C
:101C20000CED00E00000FA052DE9F04706464FF004
:101C30000008002500270024A146012E31D0022EE5
:101C400056D0102E5FD132484468006800F0807092
:101C500008B33048C4F38341475C04F4803078B162
:101C60002B484068C0F340402B4911F8008004F431
:101C7000803040B12948B0FBF8F000FB07F502E0E6
:101C8000274807FB00F52248406800F48000B0F5C3
:101C9000800F01D1A94603E068000321B0FBF1F9F0
:101CA00032E01B48046A04F44070B0F5807F05D12F
:101CB00004F0020010B14FF4004918E004F4407041
:101CC000B0F5007F07D11248406A00F0020010B161
:101CD00049F640490BE004F44070B0F5407F06D16E
:101CE0000B48006800F4003008B14FF224490BE0C3
:101CF00000F08CF906494968C1F38131491C49005B
:101D0000B0FBF1F900E000BF00BF4846BDE8F08736
:101D100000100240429D0008529D000800127A0007
:101D200000093D00F8B5044600260025207800F0A3
:101D3000010000286BD000274348C06900F08050A4
:101D400070B900BF4048C06940F080503E49C8614A
:101D50000846C06900F08050009000BF00BF012716
:101D60003A48006800F48070B0B93848006840F420
:101D7000807036490860FFF779FE064606E0FFF7F7
:101D800075FE801B642801D90320F8BD2F48006828
:101D900000F480700028F2D02B48006A00F44075EF
:101DA0002DB3A08800F44070A84220D02648006AD5
:101DB00020F4407501202649086000200860224870
:101DC000056205F0010090B1FFF750FE064608E0FD
:101DD000FFF74CFE801B41F28831884201D9032075
:101DE000D3E71948006A00F002000028F0D0164836
:101DF000006A20F440706168084313490862012FAB
:101E000004D10846C06920F08050C86100BF207826
:101E100000F00200022807D10B48406820F440403F
:101E2000A168084308494860207800F01000102895
:101E300007D10548406820F48000E1680843024962
:101E400048600020A1E70000001002400070004040
:101E50004004424270B504460D460CB9012070BDE5
:101E60005A48006800F00700A8420ED257480068A0
:101E700020F007002843554908600846006800F034
:101E80000700A84201D00120E9E7207800F0020015
:101E900002281DD1207800F00400042805D14C4808
:101EA000406840F4E0604A494860207800F008004B
:101EB000082805D14648406840F4605044494860CD
:101EC0004348406820F0F000A1680843404948605A
:101ED000207800F0010078B36068012806D13C4802
:101EE000006800F4003090B90120B8E7606802286B
:101EF00006D13748006800F0007040B90120AEE715
:101F00003348006800F0020008B90120A7E7304814
:101F1000406820F00300616808432D494860FFF7DE
:101F2000A5FD064609E0FFF7A1FD801B41F28831BF
:101F3000884202D9032092E707E02548406800F074
:101F40000C006168B0EB810FEDD12048006800F013
:101F50000700A8420ED91D48006820F0070028435A
:101F60001A4908600846006800F00700A84201D03E
:101F7000012074E7207800F00400042807D11448F9
:101F8000406820F4E060E168084311494860207827
:101F900000F00800082808D10D48406820F460507F
:101FA000216940EAC1000A49486000F03FF8084949
:101FB0004968C1F30311074A515CC84006490860EB
:101FC00006480068FFF778FD002048E7002002403F
:101FD00000100240549D000828000020200000202E
:101FE00001480068704700002800002000B5FFF796
:101FF000F7FF04494968C1F30221034A515CC84014
:1020000000BD000000100240649D000800B5FFF70D
:10201000E7FF04494968C1F3C221034A515CC84043
:1020200000BD000000100240649D000870B5002152
:102030000022002400230020134D696801F00C05E4
:10204000F5B1042D02D0082D19D101E00F4819E097
:102050000F4DC1F38346AB5D01F4803555B10A4D98
:102060006D68C5F340450B4E725D084D5D43B5FB91
:10207000F2F402E0084D03FB05F4204602E000BF45
:10208000024800BF00BF70BD0010024000127A007D
:10209000309D0008409D000800093D00F8B5044649
:1020A0000CB90120F8BD207800F00100002878D09C
:1020B000F848406800F00C0004280CD0F54840684F
:1020C00000F00C00082811D1F248406800F480307C
:1020D000B0F5803F0AD1EF48006800F400300028D6
:1020E0005FD0606800285CD10120DBE700BF60683A
:1020F000B0F5803F06D1E748006840F48030E549FC
:10210000086028E0606858B9E248006820F4803030
:10211000E04908600846006820F4802008601AE062
:102120006068B0F5A02F0BD1DA48006840F4802039
:10213000D84908600846006840F4803008600AE02A
:10214000D448006820F48030D2490860084600680E
:1021500020F48020086000BF606888B1FFF786FC2B
:10216000054606E0FFF782FC401B642801D90320E6
:1021700098E7C848006800F400300028F2D010E06A
:10218000FFF774FC054606E0FFF770FC401B64286F
:1021900001D9032086E7BF48006800F4003000281A
:1021A000F2D1207800F00200022857D1B9484068E7
:1021B00000F00C0050B1B748406800F00C0008284F
:1021C00018D1B448406800F4803098B9B14800682C
:1021D00000F0020020B12069012801D0012061E750
:1021E000AC48006820F0F800616940EAC100A949E4
:1021F000086033E02069E8B10120A7490860FFF7D3
:1022000035FC054606E0FFF731FC401B022801D9EA
:10221000032047E79F48006800F002000028F2D042
:102220009C48006820F0F800616940EAC1009949C3
:10223000086013E0002098490860FFF717FC054686
:1022400006E0FFF713FC401B022801D9032029E711
:102250009048006800F002000028F2D1207800F0D9
:10226000080008282DD1A069B8B101208B49086069
:10227000FFF7FCFB054606E0FFF7F8FB401B0228D2
:1022800001D903200EE78348406A00F002000028CD
:10229000F2D0012001F0D8FD13E000207F49086052
:1022A000FFF7E4FB054606E0FFF7E0FB401B0228D2
:1022B00001D90320F6E67748406A00F002000028C2
:1022C000F2D1207800F00400042873D1002771486F
:1022D000C06900F0805070B900BF6E48C06940F01E
:1022E00080506C49C8610846C06900F08050009079
:1022F00000BF00BF01276A48006800F48070B0B9D1
:102300006748006840F4807065490860FFF7AEFBDD
:10231000054606E0FFF7AAFB401B642801D903200D
:10232000C0E65F48006800F480700028F2D000BF6B
:10233000E068012806D15748006A40F0010055497D
:10234000086227E0E06858B95248006A20F00100AE
:10235000504908620846006A20F00400086219E04B
:10236000E06805280BD14B48006A40F00400494959
:1023700008620846006A40F0010008620AE0454829
:10238000006A20F00100434908620846006A20F014
:102390000400086200BFE068A0B1FFF767FB0546D4
:1023A00009E0FFF763FB401B41F28831884202D904
:1023B000032077E622E03748006A00F00200002898
:1023C000EFD012E0FFF752FB054608E0FFF74EFBA7
:1023D000401B41F28831884201D9032062E62D4832
:1023E000006A00F002000028F0D1012F05D1294831
:1023F000C06920F080502749C86100BFE069C8B3B8
:102400002448406800F00C00082860D0E0690228E9
:1024100048D1002020490866FFF728FB054606E062
:10242000FFF724FB401B022801D903203AE6194894
:10243000006800F000700028F2D1206AB0F5803FFB
:1024400007D11448406820F40030A16808431149BE
:102450004860D4E9080108430E49496821F4741121
:1024600008430C49486001200B490866FFF7FEFA53
:10247000054607E03DE0FFF7F9FA401B022801D9C5
:1024800003200FE60348006800F000700028F2D037
:102490002FE000000010024000004242800442424F
:1024A00000700040002014490866FFF7DFFA054677
:1024B00006E0FFF7DBFA401B022801D90320F1E513
:1024C0000E48006800F000700028F2D111E0E069C9
:1024D000012800D1E6E50948466806F48031206A03
:1024E000814204D106F47011606A814201D001205A
:1024F000D8E50020D6E5000000004242001002406E
:10250000042808D14FF0E021096941F004014FF09F
:10251000E022116107E04FF0E021096921F0040198
:102520004FF0E0221161704770B504462546681EE1
:10253000B0F1807F01D301200FE0681E4FF0E02151
:1025400048610F214FF0FF3002F0B2FA00204FF047
:10255000E021886107200861002070BD7047704746
:1025600030B502460B4600BF92F83C00012801D16D
:10257000022030BD012082F83C0000BF022082F81A
:102580003D00106844681068816824F07004186881
:10259000044310684460104D1068A8420BD01068C6
:1025A000B0F1804F07D00D4D1068A84203D00C4DFC
:1025B0001068A84205D121F08001586801431068D5
:1025C0008160012082F83D0000BF002082F83C00BD
:1025D00000BF00BFCDE70000002C01400004004018
:1025E0000008004010B504460CB9012010BD94F855
:1025F0003D0028B9002084F83C00204600F026F871
:10260000022084F83D00211D206801F055FD0120C5
:1026100084F8460000BF84F83E0001213F200155A8
:10262000402001554120015500BF00BF012084F822
:10263000420043200155442001554520015500BF6B
:10264000012084F83D000020D0E7000038B50446A2
:102650000D492068884215D100BF0C48806940F4BC
:1026600000600A4988610846806900F400600090B3
:1026700000BF00BF002205211920FFF783FA1920AF
:10268000FFF770FA38BD0000002C01400010024036
:10269000014691F83D00012801D001207047022039
:1026A00081F83D000868C06840F001000B68D86000
:1026B000124B086898420BD00868B0F1804F07D0E1
:1026C0000F4B0868984203D00E4B086898420CD113
:1026D0000868806800F00702062A0CD008680068C5
:1026E00040F001000B68186005E00868006840F0E1
:1026F00001000B6818600020D0E70000002C0140AA
:10270000000400400008004001460868C06820F04E
:1027100001000A68D06000BF0868006A41F2111227
:10272000104050B90868006A9210104028B9086833
:10273000006820F001000A68106000BF012081F8E5
:102740003D00002070472DE9F04104460D4600276A
:1027500000BF94F83C00012802D10220BDE8F081BE
:10276000012084F83C0000BF022084F83D0020686E
:10277000866826F0770626F47F46206886602868FB
:10278000502833D00CDC202850D004DC00284BD05B
:10279000102851D149E0302849D040284CD139E0A7
:1027A00060282DD0702807D0B0F5805F03D0B0F539
:1027B000005F41D10DE041E0D5E902136A6820686D
:1027C00001F0C5FC2068866846F0770620688660C0
:1027D00034E0D5E902136A68206801F0B8FC20688B
:1027E000806840F480402168886027E0EA68696872
:1027F000206801F07DFD5021206801F0B3FC1DE050
:10280000EA686968206801F086FD6021206801F0AF
:10281000A9FC13E0EA686968206801F069FD4021BD
:10282000206801F09FFC09E000BF00BF00BF2968DD
:10283000206801F097FC01E0012700BF00BF0120E4
:1028400084F83D0000BF002084F83C0000BF3846FB
:1028500084E72DE9F04104460D4614B90120BDE896
:10286000F08194F83D0028B9002084F83C0020460F
:1028700000F052F8022084F83D002068806844F29D
:102880000701884321688860211D206801F014FC3D
:102890002068D0F80880206886692068076A286860
:1028A00040EA080840F203308643A969A86840EA74
:1028B0000120064340F60C4086434FF2F000864369
:1028C000E969E86840EA0120064328690001296AAD
:1028D00040EA0130064327F022076969686840EA48
:1028E000011007432068C0F80880206886612068CE
:1028F0000762012084F8460084F83E0001213F2051
:102900000155012084F8420043200155012084F83C
:102910003D000020A3E7000010B586B0044600206B
:1029200002900390049005903149206888422CD190
:1029300000BF3048C06940F002002E49C861084617
:10294000C06900F00200019000BF00BF00BF084650
:10295000806940F0040088610846806900F0040046
:10296000019000BF00BFC02002900020039004909F
:1029700002A92148FEF7DCFE002205211D20FFF7F9
:1029800001F91D20FFF7EEF82FE01C49206888426E
:102990002BD100BF1748C06940F004001549C86139
:1029A0000846C06900F00400019000BF00BF00BFEE
:1029B0000846806940F0080088610846806900F098
:1029C0000800019000BF00BFC020029000200390CB
:1029D000049002A90A48FEF7ABFE002205211E2042
:1029E000FFF7D0F81E20FFF7BDF806B010BD0000BD
:1029F00000040040001002400008014000080040B0
:102A0000000C01402DE9F04304460D4694F83E6069
:102A10003F20075D94F84280432010F804906DB980
:102A2000012E02D1B8F1010F02D00120BDE8F083E0
:102A3000022084F83E0084F8420025E0042D0CD1E9
:102A4000012F02D1B9F1010F01D00120EEE70221DF
:102A50003F2001554320015516E0012E07D1012FDB
:102A600005D1B8F1010F02D1B9F1010F01D0012058
:102A7000DCE7022084F83E0002213F2001550220BD
:102A800084F842004320015515B1042D0CD105E016
:102A900001220021206801F049FB10E001220421FD
:102AA000206801F043FB0AE001220021206801F0C8
:102AB0003DFB01220421206801F038FB00BF00BF6C
:102AC0002068006840F00100216808600020ADE740
:102AD000704710B5044620680069C0F34000D8B1C3
:102AE0002068C068C0F34000B0B16FF002002168F8
:102AF0000861012020772068806900F0030018B188
:102B00002046FFF7E5FF05E0204600F0E5F8204607
:102B100000F0AEF90020207720680069C0F3800043
:102B2000D8B12068C068C0F38000B0B16FF0040075
:102B300021680861022020772068806900F44070D5
:102B400018B12046FFF7C4FF05E0204600F0C4F8A6
:102B5000204600F08DF90020207720680069C0F33E
:102B6000C000D8B12068C068C0F3C000B0B16FF039
:102B7000080021680861042020772068C06900F0FF
:102B8000030018B12046FFF7A3FF05E0204600F040
:102B9000A3F8204600F06CF9002020772068006937
:102BA000C0F30010D8B12068C068C0F30010B0B105
:102BB0006FF0100021680861082020772068C06944
:102BC00000F4407018B12046FFF782FF05E0204670
:102BD00000F082F8204600F04BF9002020772068B2
:102BE000006900F0010058B12068C06800F00100E1
:102BF00030B16FF0010021680861204600F0A4F9AF
:102C000020680069C0F3C01058B12068C068C0F3E4
:102C1000C01030B16FF08000216808612046FFF7D6
:102C20009DFC20680069C0F3801058B12068C0681E
:102C3000C0F3801030B16FF0400021680861204679
:102C400000F08EF920680069C0F3401058B1206888
:102C5000C068C0F3401030B16FF0200021680861F7
:102C60002046FFF77CFC10BD10B586B0044600205E
:102C700002900390049005902068B0F1804F22D11B
:102C800000BF1248806940F008001049886108467A
:102C9000806900F00800019000BF00BF4FF4406061
:102CA000029002200390059002A90948FEF740FD1A
:102CB00000BF0849486820F4407040F0E06040F4EC
:102CC0000070486000BF06B010BD00000010024058
:102CD000000C01400000014070472DE9F04104461E
:102CE0000D461646002700BF94F83C00012802D18B
:102CF0000220BDE8F081012084F83C0000BF36B11D
:102D0000042E1BD0082E31D00C2E5ED145E0294672
:102D1000206801F031FA2068806940F008002168DD
:102D200088612068806920F004002168886120683B
:102D30008069296908432168886148E0294620683C
:102D400001F04AFA2068806940F4006021688861D7
:102D50002068806920F4806021688861206880692B
:102D6000296940EA01202168886130E0294620680D
:102D700001F066FA2068C06940F008002168C86167
:102D80002068C06920F004002168C8612068C0691B
:102D9000296908432168C86119E02946206801F0C3
:102DA00083FA2068C06940F400602168C861206827
:102DB000C06920F480602168C8612068C069296901
:102DC00040EA01202168C86101E0012700BF00BF7F
:102DD00000BF002084F83C0000BF384689E710B5EA
:102DE00004460CB9012010BD94F83D0028B900201C
:102DF00084F83C00204600F025F8022084F83D00CD
:102E0000211D206801F058F9012084F8460000BF18
:102E100084F83E0001213F2001554020015541200A
:102E2000015500BF00BF012084F842004320015536
:102E3000442001554520015500BF012084F83D0084
:102E40000020D0E708B50168B1F1804F0DD100BF77
:102E50000649C96941F00101044AD1611146C969B5
:102E600001F00101009100BF00BF08BD0010024049
:102E70007047000070B504460D4615B994F83E0041
:102E80000BE0042D02D13F20005D06E0082D02D1A9
:102E90004020005D01E04120005D012801D00120BB
:102EA00070BD1DB9022084F83E000EE0042D03D150
:102EB00002213F20015508E0082D03D102214020C6
:102EC000015502E0022141200155012229462068D6
:102ED00001F02CF919492068884201D1012000E055
:102EE000002028B12068406C40F40040216848640C
:102EF0001249206888420BD02068B0F1804F07D07B
:102F00000F492068884203D00E49206888420CD1BE
:102F10002068806800F00706062E0CD02068006844
:102F200040F001002168086005E02068006840F07A
:102F30000100216808600020B2E70000002C014079
:102F4000000400400008004010B504460349206812
:102F5000884201D1FEF790FD10BD0000002C014019
:102F600070477047704700002DE9F84F044620680D
:102F700005682068C668206847694FF00009CA469E
:102F800005F00F09B9F1000F0AD105F0200038B1A2
:102F900006F0200020B1204601F0FDFABDE8F88FD0
:102FA000B9F1000F7BD007F0010018B906F490705A
:102FB000002874D005F0010030B106F4807018B11B
:102FC000606C40F00100606405F0040030B107F06F
:102FD000010018B1606C40F00200606405F002006E
:102FE00030B107F0010018B1606C40F0040060647B
:102FF00005F0080048B106F0200010B907F0010004
:1030000018B1606C40F008006064606C002845D026
:1030100005F0200028B106F0200010B1204601F094
:10302000BAFA20684069C0F3801A606C00F00800AA
:1030300010B9BAF1000F2CD0204601F053FA2068E5
:10304000406900F0400000B300BF00BF21681431A8
:1030500051E8001F21F040002168143141E80002CE
:10306000002AF3D100BFE06B50B17748E16B4863B1
:10307000E06BFEF74BF988B1E06B416B88470DE0E0
:103080002046FFF76FFF09E009E02046FFF76AFFDF
:1030900004E02046FFF766FF002060647EE7206BB7
:1030A000012877D105F01000002873D006F0100039
:1030B0000028FAD000BF002000902068006800902F
:1030C00020684068009000BF00BF2068406900F0A1
:1030D000400000285FD0E06B006840681FFA80F86D
:1030E000B8F1000F55D0A08D404552DDA4F82E80D8
:1030F000E06B8069202843D000BF00BF21680C31FD
:1031000051E8001F21F4807021680C3141E8000271
:10311000002AF3D100BF00BF00BF2168143151E87D
:10312000001F21F001002168143141E80002002A4B
:10313000F3D100BF00BF00BF2168143151E8001F68
:1031400021F040002168143141E80002002AF3D147
:1031500000BF202084F842000020206300BF00BF91
:1031600021680C3151E8001F21F0100021680C315A
:1031700041E80002002AF3D100BFE06BFEF79AF8A5
:1031800002206063A08DE28D801A81B22046FFF795
:10319000E8FE03E742E0A08DE18D401A1FFA80F8B7
:1031A000E08DD0B3B8F1000F37D000BF00BF216869
:1031B0000C3151E8001F21F4907021680C3141E876
:1031C0000002002AF3D100BF00BF00BF2168143104
:1031D00051E8001F21F001002168143141E800028C
:1031E000002AF3D100BF202084F842000020206391
:1031F00000BF00BF21680C3151E8001F21F0100012
:1032000021680C3141E80002002AF3D100BF0220FE
:10321000606341462046FFF7A4FEBFE605F080004C
:1032200030B106F0800018B1204601F015FBB5E67C
:1032300005F0400030B106F0400018B1204601F022
:1032400087F9ABE600BFA9E6A943000810B504461C
:103250000CB9012010BDA06900B100E000BF94F8D6
:10326000410028B9002084F84000204600F02AF8E8
:10327000242084F841002068C06820F400502168B0
:10328000C860204601F006FA2068006920F49040EA
:10329000216808612068406920F02A00216848619F
:1032A0002068C06840F400502168C8600020606455
:1032B000202084F8410084F842000020606300BFB1
:1032C000C8E7000010B586B00446002002900390C5
:1032D000049005905349206888422FD100BF52487E
:1032E000806940F48040504988610846806900F454
:1032F0008040019000BF00BF00BF0846806940F0D9
:10330000040088610846806900F00400019000BF55
:1033100000BF48150290022003900320059002A9E7
:103320004248FEF705FA4FF48060029000200390B7
:10333000049002A93D48FEF7FBF970E03C49206883
:1033400088426CD100BF3848C06940F4003036492B
:10335000C8610846C06900F40030019000BF00BF9A
:1033600000BF0846806940F0040088610846806913
:1033700000F00400019000BF00BF04200290022072
:1033800003900320059002A92848FEF7D1F90820F0
:10339000029000200390049002A92448FEF7C8F987
:1033A00024482549086000204860002122488160A7
:1033B0008021C160002101614161202181610021E2
:1033C000C161FEF7C9F808B1FDF758FD00BF1A4802
:1033D000E063446200BF17481430184908601020A9
:1033E00048600021154881608021C1600021016191
:1033F0004161202181610021C161FEF7ADF808B172
:10340000FDF73CFD00BF0D48A063446200BF0022F1
:1034100005212620FEF7B6FB2620FEF7A3FB06B00B
:1034200010BD0000003801400010024000080140BB
:10343000004400406C000240C0050020040600204B
:1034400070B504460D46164694F8420020280BD16C
:1034500005B10EB9012070BD002020633246294617
:10346000204601F095F9F6E70220F4E7704770472F
:10347000704700BFFEE700000EB5002000900190ED
:1034800002901148114908600021104881600173C1
:1034900001754FF46021C16100200C494860012191
:1034A0000A480161FDF72CFE08B1FDF7E7FC012099
:1034B000009001900020029069460448FDF770FDDD
:1034C00008B1FDF7DBFC0EBD00240140E003002045
:1034D00008B500BF0E48406940F001000C49486142
:1034E0000846406900F00100009000BF00BF0022C4
:1034F00005211020FEF746FB1020FEF733FB0022CB
:1035000005211120FEF73EFB1120FEF72BFB08BD25
:103510000010024000B59FB000201D901E900121B8
:103520001DA804F05EFE1B4908601C221A4916A85B
:10353000FCF7A9FE002116A804F078FE17490860E0
:103540001C2215491C310FA8FCF79DFE00210FA875
:1035500004F06CFE124908601C220F49383108A89B
:10356000FCF791FE002108A804F060FE0D490860F8
:103570001C220949543101A8FCF785FE002101A84D
:1035800004F054FE084908600548006805F0C2FDD3
:103590001FB000BD10000020C09C000800000020EB
:1035A00004000020080000200C00002000B585B0B9
:1035B0000020019002900390049000BF4848806969
:1035C00040F01000464988610846806900F010000C
:1035D000009000BF00BF00BF0846806940F0200097
:1035E00088610846806900F02000009000BF00BF9D
:1035F00000BF0846806940F0040088610846806981
:1036000000F00400009000BF00BF00BF08468069C2
:1036100040F0080088610846806900F008000090CA
:1036200000BF00BF00224FF4C0412E48FEF718FA39
:10363000012241F630012C48FEF712FA00224FF227
:1036400001012A48FEF70CFA01224FF44071274885
:10365000FEF706FA4FF4C0400190012002900020CE
:1036600003900220049001A91E48FEF761F841F67C
:10367000300001900120029000200390032004906C
:1036800001A91948FEF754F84FF2013001900120CA
:103690000290002003900220049001A91348FEF735
:1036A00047F802200190124802900020039001A9DF
:1036B0000E48FEF73DF84FF4807001900D480290DF
:1036C0000020039001A90848FEF732F800220521E6
:1036D0000720FEF757FA0720FEF744FA05B000BDB1
:1036E000001002400010014000080140000C0140A1
:1036F000000031100000111000B587B000200390C9
:1037000004900590069001900290154815490860B4
:103710004720486000211348816040F2E731C160D2
:103720000021016141618161FEF75CFF08B1FDF795
:10373000A5FB4FF48050039003A90A48FFF703F854
:1037400008B1FDF79BFB00200190029001A90548FC
:10375000FEF706FF08B1FDF791FB07B000BD0000C2
:10376000002C01401004002000B589B00020079013
:1037700008901C216846FCF79FFD4FF080401B49D4
:1037800008604720486000211848816040F2E73116
:10379000C160002101618161FFF721FB08B1FDF7E4
:1037A0006DFB00200790089007A91048FEF7D8FE8F
:1037B00008B1FDF763FB60200090002001900290AB
:1037C0000490082269460948FFF787FA08B1FDF717
:1037D00055FB0C2269460548FFF77FFA08B1FDF753
:1037E0004DFB0248FFF740FA09B000BD5804002025
:1037F00000B58BB0242102A8FCF75EFD00200090EC
:1038000001901848184908600020486000211648B7
:1038100081604FF6FF71C160002101618161032069
:103820000290002003900120049000200590069053
:10383000079001200890002009900A9002A90A48E8
:10384000FFF707F808B1FDF719FB00200090019081
:1038500069460548FEF784FE08B1FDF70FFB0BB083
:1038600000BD000000040040A004002000B58BB0A3
:10387000242102A8FCF720FD0020009001901848A8
:1038800018490860002048600021164881604FF602
:10389000FF71C1600021016181610320029000205D
:1038A00003900120049000200590069007900120CD
:1038B0000890002009900A9002A90A48FEF7C9FF63
:1038C00008B1FDF7DBFA0020009001906946054839
:1038D000FEF746FE08B1FDF7D1FA0BB000BD0000BF
:1038E00000080040E804002010B50B480B490860B0
:1038F0004FF4E1304860002108488160C1600161F7
:103900000C21416100218161C161FFF79FFC08B179
:10391000FDF7B4FA10BD000000380140300500206A
:1039200010B50B480B4908604FF416504860002151
:1039300008488160C16001610C2141610021816101
:10394000C161FFF783FC08B1FDF798FA10BD0000D4
:10395000004400407805002000BFFEE700BFFEE7FE
:1039600070B500240EE00021204600F006F9002585
:1039700004E0002000F03EFA681CC5B2802DF8DBA0
:10398000601CC4B2082CEEDB70BD000000B585B031
:103990000020019002900390049000BF15488069B8
:1039A00040F00400134988610846806900F0040073
:1039B000009000BF00BF01224FF4C0510E48FEF737
:1039C0004FF84FF4C0500190112002900020039056
:1039D0000320049001A90848FDF7AAFE0122110363
:1039E0000548FEF73DF80122D1020348FEF738F8FA
:1039F00005B000BD001002400008014070B505464A
:103A0000002415E08020204100EA05024FF4006107
:103A10001148FEF725F8012211030F48FEF720F8A0
:103A200000224FF480510C48FEF71AF8601CC4B213
:103A3000082CE7DB0122D1020748FEF711F801222A
:103A400011030548FEF70CF800224FF4805102489C
:103A5000FEF706F870BD00000008014010B5012215
:103A6000D1020A48FDF7FCFF012211030748FDF7C8
:103A7000F7FF00224FF400610448FDF7F1FF002238
:103A80004FF480510148FDF7EBFF10BD00080140E5
:103A900010B500224FF400610648FDF7E1FF012256
:103AA00011030448FDF7DCFF0122D1020148FDF7B4
:103AB000D7FF10BD0008014070B5002406E00025C6
:103AC00000E06D1CB5F57A7FFBD3641CB4F57A7FFA
:103AD000F5D3FFF75BFFAE2000F07CF9D52000F0B6
:103AE00079F9802000F076F9A82000F073F93F20E2
:103AF00000F070F9D32000F06DF9002000F06AF9B1
:103B0000402000F067F9A12000F064F9C82000F01F
:103B100061F9DA2000F05EF9122000F05BF98120F3
:103B200000F058F9CF2000F055F9D92000F052F9F3
:103B3000F12000F04FF9DB2000F04CF9302000F0CC
:103B400049F9A42000F046F9A62000F043F98D20A1
:103B500000F040F9142000F03DF9AF2000F03AF9F0
:103B6000FFF7FEFE70BD10B50246012000E0504395
:103B70000B1EA1F10101FAD110BD70B505460C462E
:103B800045F0B00000F026F9102141EA141000F0D1
:103B900021F904F00F0000F01DF970BD10B54AA224
:103BA0000121022000F002F903234A480A21026899
:103BB000022000F0D9F848A20121032000F0F6F815
:103BC00046A20721032000F0F1F845A20B210320B3
:103BD00000F0ECF84349C8680021FCF7F3FD10D26F
:103BE0002B220321084600F085F83E49C868FCF7FF
:103BF00083FD0446022322460421032000F0B4F88A
:103C00000FE02D220321084600F074F83549C868FA
:103C1000FCF772FD0446022322460421032000F033
:103C2000A3F830490869FCF767FD044602232246E1
:103C30000921032000F098F82A494869FCF75CFD47
:103C40000446022322460D21032000F08DF825486A
:103C5000B0F9062002230121042000F085F8214854
:103C6000B0F9082002230621042000F07DF81D4849
:103C7000B0F90A2002230C21042000F075F81AA2E2
:103C80000121084600F092F814A20821012000F05A
:103C90008DF816480468002C01DB204600E06042E5
:103CA000024604231946012000F05EF8104804681B
:103CB000002C01DB204600E06042024604230B2179
:103CC000012000F051F810BD64697374616E636582
:103CD0003A000000A4000020703A0000723A000090
:103CE00079000000480600206C3A000044000020E3
:103CF000480000202DE9F04105460E461746721E89
:103D0000D206110E6A1E5206100EFFF736FF00246F
:103D100009E0A7F12001134A02EB0111085D00F050
:103D200069F8601CC4B2082CF3DB721ED206110EB7
:103D30006A1E012303EB4202D0B2FFF71EFF0024EC
:103D40000BE0A7F12001074A02EB011204F1080180
:103D5000505C00F04FF8601CC4B2082CF1DBBDE8E9
:103D6000F08100006C9D00082DE9F04780460E466A
:103D700017461D46002415E0281B411E0A20FFF7A8
:103D8000F2FEB7FBF0F00A21B0FBF1F201FB1200EA
:103D900000F130093019C1B24A464046FFF7AAFF88
:103DA000601CC4B2AC42E7DBBDE8F0872DE9F0410E
:103DB00007460E461546002407E02A5D3019C1B2B9
:103DC0003846FFF797FF601CC4B2285D0028F4D185
:103DD000BDE8F08110B50446FFF740FE7820FFF7FC
:103DE0000DFE0020FFF70AFE2046FFF707FEFFF753
:103DF0004FFE10BD10B50446FFF730FE7820FFF7E8
:103E0000FDFD4020FFF7FAFD2046FFF7F7FDFFF725
:103E10003FFE10BD10B502464FF47A60444213686D
:103E2000A34201DA434213601368834200DD10604D
:103E300044420B68A34201DA43420B600B688342A1
:103E400000DD086010BD000008B508490968C90810
:103E50004FF47A72B1FBF2F14143009100BF00BF11
:103E600000994A1E00920029F9D108BD28000020BF
:103E70000146012902D002290ED106E0084A126843
:103E800010B20022064B1A6008E0064A126810B20F
:103E90000022044B1A6001E0002000BF00BF704701
:103EA000240400402408004070B504460D46002C50
:103EB0000BDD0122D1032248FDF7D2FD00224FF491
:103EC00080411F48FDF7CCFD0AE000224FF400417D
:103ED0001B48FDF7C5FD012291031948FDF7C0FD00
:103EE000201E01DB014600E04142164A12681144DF
:103EF0004FF08042D163002D0BDD012211031048E9
:103F0000FDF7AEFD00224FF400510D48FDF7A8FD6E
:103F10000AE000224FF480510948FDF7A1FD01227B
:103F200051030748FDF79CFD281E01DB014600E018
:103F30004142044A126811444FF08042116470BD3E
:103F4000000C01406400002000BFFCF701FF1420BA
:103F500004F036F9F9E7000001F0A0FDC4B214B195
:103F60000AA000F079FD01F057FBC4B214B10EA015
:103F700000F072FD1448006805F02CF800BFFCF753
:103F8000BDFE022004F01CF9F9E7000041544B2D5E
:103F90004D533630353020696E6974206661696C26
:103FA0006564210D0A00000041544B2D4D533630FD
:103FB000353020444D5020696E6974206661696C0B
:103FC0006564210D0A00000004000020FFF774FD65
:103FD00000BFFCF723FFC82004F0F2F8F9E700BFA8
:103FE00001F0D6FE642004F0EBF8F9E710B5FDF718
:103FF00043FD05F07FFC012801D005F0CFF910BD8D
:1040000000B593B0282109A8FCF756F9142104A89B
:10401000FCF752F9002000900190029003900120DB
:10402000099000040A9000200B9001200D900220BE
:104030001090C10311914FF4E011129109A8FEF7FD
:104040002DF808B1FCF71AFF0F200490022005900C
:10405000002006904FF48060079000200890022115
:1040600004A8FDF7F7FE08B1FCF708FF0220009056
:10407000800302906846FDF755FE08B1FCF7FEFE8E
:1040800013B000BD7047000010B50248FEF721FDD7
:1040900010BD00001004002010B50248FEF719FD05
:1040A00010BD0000A004002010B50248FEF711FD6D
:1040B00010BD0000E804002010B50268184B9842BB
:1040C00008D0B0F1804F05D0164B984202D0164B65
:1040D000984203D122F070024B681A43104B984269
:1040E00008D0B0F1804F05D00E4B984202D00E4B55
:1040F000984203D122F44072CB681A4322F0800325
:104100004C6943EA040202608B68C3620B688362F5
:10411000034B984201D10B6903630123436110BD36
:10412000002C0140000400400008004030B501F0C0
:104130001F05012404FA05F3046A9C430462046A1F
:1041400001F01F0502FA05F52C43046230BD30B5BD
:104150000C46816821F47F4142EA03252543294327
:10416000816030BD0A46816821F0700142F007038A
:10417000194381607047000030B5026A056A25F076
:10418000010505624368846924F0700424F0030487
:104190000D682C4322F002028D682A430D4DA8427F
:1041A00006D100BF22F00802CD682A4322F00402A3
:1041B000084DA84207D123F4807323F400734D699E
:1041C0002B438D692B43436084614D6845630262D4
:1041D00030BD0000002C014030B5026A056A25F0B0
:1041E000100505624368846924F4E04424F44074B3
:1041F0000D6844EA052422F020028D6842EA051287
:104200000E4DA84207D100BF22F08002CD6842EADD
:10421000051222F04002094DA84209D123F480631F
:1042200023F400634D6943EA85038D6943EA8503FE
:10423000436084614D688563026230BD002C01409B
:1042400030B5026A056A25F4807505624368C46961
:1042500024F0700424F003040D682C4322F400724F
:104260008D6842EA05220F4DA84207D100BF22F413
:104270000062CD6842EA052222F48062094DA8421C
:1042800009D123F4805323F400534D6943EA051305
:104290008D6943EA05134360C4614D68C5630262DA
:1042A00030BD0000002C014030B5036A056A25F4DA
:1042B000805505624468C26922F4E04222F44072EB
:1042C0000D6842EA052223F400538D6843EA053362
:1042D000064DA84204D124F480444D6944EA851473
:1042E0004460C2614D680564036230BD002C01402A
:1042F00030B50B461446026A056A25F001050562D1
:10430000816921F0F00141EA041122F00A021A4306
:104310008161026230BD30B50B461446026A056AFF
:1043200025F010050562816921F4704141EA0431EC
:1043300022F0A00242EA03128161026230BD000055
:104340002DE9F04105462846FCF7EAF921F0004145
:1043500006460022114BFCF7F7F918D2012010494C
:10436000087001240022C1030E48FDF779FB0022EA
:10437000A1030C48FDF774FB002221030948FDF757
:104380006FFB002261030748FDF76AFB00E0002491
:104390000020034908702046BDE8F0810000444039
:1043A00090000020000C014070B505466C6A0020AA
:1043B000E085E0842046FEF7D5FD70BD70B5064669
:1043C0000025746A20684069C0F3C01594F8410064
:1043D000212805D125B10020E084204600F0C8F84E
:1043E00020684069C0F3801594F84200222805D166
:1043F00025B10020E085204600F074F8606C40F0A4
:10440000100060642046FEF7ADFD70BD70B5054636
:104410006C6A2868006800F02000002842D1E0851E
:1044200000BF00BF21680C3151E8001F21F48070EB
:1044300021680C3141E80002002AF3D100BF00BF1F
:1044400000BF2168143151E8001F21F001002168EC
:10445000143141E80002002AF3D100BF00BF00BFC1
:104460002168143151E8001F21F040002168143107
:1044700041E80002002AF3D100BF202084F8420066
:10448000206B01280ED100BF00BF21680C3151E81C
:10449000001F21F0100021680C3141E80002002AC1
:1044A000F3D100BF00206063206B012804D1A18DEF
:1044B0002046FEF756FD02E02046FEF7D7FF70BD0E
:1044C00070B505466C6A01206063206B012805D138
:1044D000A08D41082046FEF744FD02E02046FEF78D
:1044E000C6FF70BD00BF00BF02680C3252E8002F4B
:1044F00022F4907102680C3242E80013002BF3D1D1
:1045000000BF00BF00BF0268143252E8002F22F043
:1045100001010268143242E80013002BF3D100BFFE
:10452000016B01290ED100BF00BF02680C3252E8B6
:10453000002F22F0100102680C3242E80013002B19
:10454000F3D100BF202180F84210002101637047A1
:1045500010B504462068C06820F040002168C8609B
:10456000202084F841002046FEF782FF002010BD85
:1045700000BF00BF02680C3252E8002F22F0C001D9
:1045800002680C3242E80013002BF3D100BF202157
:1045900080F841107047F8B5044694F8420022288C
:1045A00075D1A068B0F5805F0CD1206950B90025A5
:1045B000A66A20684068C0F308003080A06A801CAA
:1045C000A06215E0A56A0026A068B0F5805F03D060
:1045D000A06828B9206918B920684068287004E0EC
:1045E0002068406800F07F002870A06A401CA0622C
:1045F000E08D401E80B2E085002846D12068C0686A
:1046000020F020002168C8602068C06820F4807015
:104610002168C8602068406920F001002168486175
:10462000202084F8420000206063206B012826D1FE
:104630000020206300BF00BF21680C3151E8001F3B
:1046400021F0100021680C3141E80002002AF3D16A
:1046500000BF2068006800F0100010280AD100BFD9
:10466000002000902068006800902068406800905A
:1046700000BF00BFA18D2046FEF773FC02E020467C
:10468000FEF7F4FE0020F8BD01E00020FBE7022069
:10469000F9E7000070B504462168096921F440512A
:1046A000E2681143226811612269A16811436269BD
:1046B00041EA02052168C96841F20C62914329432D
:1046C0002268D1602168496921F44071A2691143CF
:1046D000226851612D4A2168914202D1FDF796FC72
:1046E00001E0FDF783FC00EBC00101EB0011626803
:1046F0009200B1FBF2F100EBC00202EB0012636822
:104700009B00B2FBF3F26423B2FBF3F202EBC203B1
:1047100003EB0212A1EB8201322202EB01116422AF
:10472000B1FBF2F101F0F00100EBC00202EB00126C
:1047300063689B00B2FBF3F26423B2FBF3F201EB7C
:10474000021200EBC00101EB001163689B00B1FB9A
:10475000F3F100EBC00303EB00136668B600B3FB94
:10476000F6F36426B3FBF6F303EBC30606EB031381
:10477000A1EB8301322303EB01116423B1FBF3F1BD
:1047800001F00F0111442268916070BD00380140B2
:1047900077B581B0044615460298A062A585002031
:1047A0006064222084F842002848E16B886228482F
:1047B000E16BC8622748E16B08630020E16B486346
:1047C00002AE32682368191D2B46E06BFCF7F8FE39
:1047D00000BF0020009020680068009020684068BA
:1047E000009000BF00BF206970B100BF00BF21680A
:1047F0000C3151E8001F41F4807021680C3141E810
:104800000002002AF3D100BF00BF00BF21681431AD
:1048100051E8001F41F001002168143141E8000215
:10482000002AF3D100BF00BF00BF2168143151E856
:10483000001F41F040002168143141E80002002AC5
:10484000F3D100BF002004B070BD00000D4400088B
:10485000C1440008BD430008014691F841002128E9
:1048600028D18868B0F5805F0BD1086948B90A6A19
:104870001088C0F308000B685860086A801C086242
:1048800005E00B6A581C086218780B685860C88CE1
:10489000401E80B2C88458B90868C06820F0800003
:1048A0000B68D8600868C06840F040000B68D860AA
:1048B000002070470220FCE710B50248FEF754FBC9
:1048C00010BD00007805002000BFFEE72DE9F05F75
:1048D00081460C464846FBF723FF07460E4A0F4B1E
:1048E000FBF76BFE0546FBF747FF82460C488168E5
:1048F0002046FBF751FD0646094908685146FBF77B
:104900004BFD07463146FBF7EFFC0546FBF7DBFEA8
:1049100083465846BDE8F09F9A9999999999B93F6D
:104920006C0000202DE9F04704460D4616461F4650
:1049300061190846FBF7B9FE2B4908602B492C4842
:104940000068FBF729FD2A4908602A4926480068C3
:10495000FBF722FD8046264801684046FBF7C4FC71
:10496000234908600846016823480068FBF7BCFC3F
:1049700021490860394620480068FBF707FD1E49B9
:1049800008601E491C480068FBF71CFF02D21B4848
:10499000194908601A4918480068FBF709FF02D254
:1049A0001748154908601748016913480068FBF764
:1049B000F3FC80461348C1680D480068FBF7ECFC27
:1049C00081464146FBF790FC0F4908603046FFF7EF
:1049D000B7FC012802D10020074908600A48006896
:1049E000FBF771FEBDE8F08798000020CDCC4C3F6E
:1049F0009C000020CDCC4C3EA000002000401C4676
:104A000000401CC66C000020940000202DE9F047F7
:104A100004460D46A4F14000FBF747FE0746284632
:104A2000FBF743FE82460B48016A5046FBF7B4FC95
:104A3000804687F0004A074881695046FBF7ACFC86
:104A400081464146FBF7A2FC06463046FBF73BFE9B
:104A5000BDE8F0876C0000200FB4054B10B503A92A
:104A6000044A029800F0B6F810BC5DF814FB000090
:104A7000ED6A000878010020490050EAC12018BF03
:104A800004204A0D18BF40F0010040F2FF72B2EB63
:104A9000515F08BF40F00200012808BF05207047A1
:104AA00002480068C0F30220704700000CED00E0EF
:104AB00010B5002804DB0A07130E054A135406E05C
:104AC0000A07140E034A00F00F031B1FD45410BD35
:104AD00000E400E018ED00E02DE9F0414F1E00EB8E
:104AE000C7010446D1E9000115461E4637F006020B
:104AF0000DD02A463346FBF766FD7F1E04EBC70345
:104B0000D3E90023FBF7B8FC37F00602F1D1022FFE
:104B100025D0042F13D0062F18BFBDE8F0812A46F8
:104B20003346FBF750FDD4E90A23FBF7A5FC2A46E0
:104B30003346FBF748FDD4E90823FBF79DFC2A46E2
:104B40003346FBF740FDD4E90623FBF795FC2A46E4
:104B50003346FBF738FDD4E90423FBF78DFC2A46E6
:104B60003346FBF730FDD4E90223FBF785FC2A46E8
:104B70003346FBF728FDD4E90023BDE8F041FBF7FD
:104B80007BBC0122FBF793BFFBF776BC00221346E8
:104B900010461146FBF71CBF024A00201107FBF725
:104BA00086BF000001FDFFFF02E008C8121F08C118
:104BB000002AFAD170477047002001E001C1121F9E
:104BC000002AFBD1704700000149086070470000CF
:104BD0007C0100202DE9FF4F89B09B46044600254B
:104BE00006E025280BD05A460B999047641C6D1C93
:104BF00020780028F5D10DB02846BDE8F08F0027B9
:104C0000B8460122474900E0074314F8013F203B22
:104C100002FA03F00842F7D120782E2819D114F8AF
:104C2000010F47F004072A280ED06FF02F022078DA
:104C3000A0F1300109290CD808EB880102EB4101F1
:104C400000EB0108641CF2E70A98641C50F8048B1E
:104C50000A9020780028CED0642808D0692806D091
:104C600075281ED05A460B9990476D1C58E00A993A
:104C70004FF00A0901C90A91002802DA40422D21A9
:104C800002E0390504D52B218DF82010012103E025
:104C9000F90704D02021F7E78A4608AE0DE000218D
:104CA000FAE70A994FF00A0901C90A91F7E749465C
:104CB000FBF792FD303106F8011D0028F7D1ADEB6E
:104CC000060000F12009780701D44FF00108C8451B
:104CD00002DDA8EB090000E000208046002706E086
:104CE00008A85A46C05D0B9990476D1C7F1C57451C
:104CF000F6DB04E030205A460B9990476D1CB8F162
:104D00000001A8F10108F5DC05E016F8010B5A4690
:104D10000B9990476D1CB9F10001A9F10109F4DC70
:104D2000641C65E7092801002DE9FE4F06460F4681
:104D30000025684601F0E8FE002442E056F8240011
:104D400057F82410A0EB010ABAF1000F01DB51461D
:104D500001E0CAF100010846FBF7A7FC83464FF0CB
:104D60008F41FBF74BFB80465DF824000021FBF7E9
:104D70001FFD16D05DF824104046FBF73FFB82462E
:104D80004FF07E51FBF702FB814629F0004A0F48A5
:104D9000416A5046FBF716FD12D20120A0400543A0
:104DA0000EE00A48C1694046FBF702FD05D30748FB
:104DB000016A4046FBF706FD02D20120A0400543F0
:104DC000641C032CBADB2846BDE8FE8F24A400082F
:104DD0002DE9F04D8D4F21F0004A86B005460C4676
:104DE000BA452ADBAAEB070028430AD08848824547
:104DF00001DC1AD1CDB106B02846BDE8F04DFFF771
:104E0000C0BE844A844B2846FBF7DDFB07460E46AE
:104E1000824A834B28462146FBF7D5FB06B03A462B
:104E20003346BDE8F04DFBF727BB0120FFF7CCFE72
:104E300006B0BDE8F04DFFF7A9BE7A48824542DAD8
:104E4000BAF1795F0BDA2846FFF716FE042808BF8F
:104E5000FFF7A2FE284606B02146BDE8F08D2A469F
:104E60000B461046FBF7AFFB834602466E480E46E4
:104E70000B4606217844FFF72FFE5A463346FBF7D0
:104E8000A2FB804669488A465A4633460421784444
:104E9000FFF722FE5A463346FBF795FB00223B46BE
:104EA000FBF7EAFA02460B4640465146FBF790FDF7
:104EB0002A462346FBF787FB06B02A462346BDE871
:104EC000F04DFBF7D9BA284624F0004100223D46B8
:104ED0003B46FBF775FB4FF0FF32FBF7E8FD06465C
:104EE000024653480F460B4606217844FFF7F4FD6F
:104EF00032463B46FBF767FBCDE900014D483246A1
:104F00003B4604217844FFF7E7FD32463B46FBF77A
:104F10005AFB00222B46FBF7AFFA8346029130463C
:104F2000394603F0D9FE804643480D46504517DC0C
:104F3000DDE900015A46029BFBF74AFD42462B463B
:104F4000FBF741FB42462B46FBF796FA0122FBF7A3
:104F5000AEFD304A304BFBF730FB304A304B4CE073
:104F60004FF0000A52460B464046FBF785FACDE962
:104F7000031052462B4610461946FBF724FB3246D7
:104F80003B46FBF71DFBDDE90332FBF721FD06463F
:104F90000F46DDE900015A46029BFBF719FD8346E7
:104FA0000091012230463946FBF781FD194A1A4B20
:104FB000FBF706FB06460F46012240462946FBF753
:104FC00076FD5A46009BFBF7FEFA32463B46FBF75E
:104FD000F4FA06460F46012250462946FBF767FDC4
:104FE0000E4DDFF858802A464346FBF7E9FA324671
:104FF0003B46FBF7E5FA2A464346FBF7E1FA002C6D
:10500000D8BF81F0004106B0BDE8F08D0000F03F50
:105010000000F07F075C143326A6913C182D445401
:10502000FB21F93F0000E03FD0610000E661000095
:105030005A610000706100003333EF3FFB21E93F0C
:105040002DE9F84F04460D4621F0004000917349C8
:10505000814211DC7249884201DC06D12CB1204624
:105060002946BDE8F84FFFF78CBD6E48002DCCBF38
:105070006D496E49BDE8F88F6D49814211DD6D497A
:105080008142D8BF4FF0FF366DDD20462946FFF73D
:10509000F3FC042808BFFFF77FFD20462946BDE842
:1050A000F88F6549654F25F00045814233DD64493D
:1050B000814219DD002632464FF0804320462946C2
:1050C000FBF7DAF980468A46012220462946FBF79B
:1050D000EEFC00223B46FBF770FA42465346FBF7D4
:1050E00077FC04460D463EE001260022BA463B46C8
:1050F00020462946FBF7C0F980460F46002253465A
:1051000020462946FBF759FA42463B46FBF760FC2E
:1051100004460D4627E04B4981421BDDDFF828A1FC
:1051200002260022534620462946FBF74CFA00226D
:105130003B46FBF7A1F980460F4600225346204626
:105140002946FBF73AFA42463B46FBF741FC044648
:105150000D4608E0032622462B4600203B49FBF77C
:1051600037FC04460D4622462B4610461946FBF7EF
:105170002AFA8B46824602460B46FBF724FA07467C
:105180000246334888460B4606217844FFF7A4FCC4
:1051900052465B46FBF717FA82462E488B463A4644
:1051A000434605217844FFF797FC3A464346FBF710
:1051B0000AFA02460B46002E504659460CDAFBF717
:1051C0005BF922462B46FBF7FEF901B022462B463F
:1051D000BDE8F04FFBF7F4B9FBF74EF922462B463A
:1051E000FBF7F1F91C4A7A4402EBC603D3E900232A
:1051F000FBF7E3F922462B46FBF7DFF9174A7A441F
:1052000002EBC603D3E90023FBF7DAF9009A002A80
:10521000B8BF81F00041BDE8F88F000000001044E5
:105220000000F07F182D4454FB21F93FFB21F9BF0A
:105230000000DC3F0000203E0000F33F0000F03F94
:105240000000E63F008003400000F83F0000F0BF90
:10525000725F0000305F0000CE5E0000965E0000CE
:105260002DE9F04D9446CCF1000423F000464CEAC1
:105270000404594F46EAD4749A46884621F0004205
:10528000BC4206D8454240EA050442EAD474BC4216
:1052900004D9BDE8F04D6246FFF776BCAAF140554F
:1052A000A5F17F6555EA0C040BD0022404EAAA7428
:1052B0004A4DDFF82CE144EAD87452EA000B04D0DE
:1052C0000CE0BDE8F04DFFF7BBBE002C14BF012C75
:1052D000BDE8F08D022C30D0032C32D056EA0C0BF6
:1052E0000AD0BE4220D1BA4209D126F0804622F02F
:1052F00080423346114617E000291ADB25E0DFF82B
:10530000E4B0FB44002C04BFDBE90001BDE8F08DF4
:10531000012C02BFDBE9000181F00041BDE8F08D06
:10532000022C0AD0032C0CD0BA4212D1B8F1000FD3
:105330000BDA2A482C49BDE8F08D28462B49BDE8F8
:10534000F08D28467146BDE8F08D24482849BDE817
:10535000F08D921B12153C2AC4BF204F244E10DC46
:10536000BAF1000FBEBF12F13C0F00273E4608DB2A
:105370006246FBF72DFB21F00041FFF761FE074677
:105380000E4694B1012C08BF86F000460DD0194A94
:10539000194B022C3846314615D0FBF70EF92A4638
:1053A000BDE8F04D114BFBF708B900221346384613
:1053B0003146FBF793FB04BF0220FFF705FC38469C
:1053C0003146BDE8F08DFBF7F8F82A46BDE8F04D10
:1053D000064BFBF7F5B800000000F07F182D445491
:1053E000FB2109C02A5E0000FB21F9BFFB21094017
:1053F000FB21F93F075C143326A6A13C2DE9F04FB1
:1054000099B004460D4616460027B846B946BA4636
:1054100012A814A913AB0EAACDE9001015A917A85C
:1054200000F00AFF18B1012019B0BDE8F08FBDF8F7
:10543000500000F4807000287ED00E98FBF735F9FC
:1054400083464FF09D41FAF7D9FF07460F98FBF7C7
:105450002CF983464FF09D41FAF7D0FF8046109813
:10546000FBF723F983464FF09D41FAF7C7FF8146CA
:105470001198FBF71AF983464FF09D41FAF7BEFFEA
:10548000824639464FF08040FAF786FF494605903C
:10549000FAF782FF414607904FF04040FAF77CFF51
:1054A00051460590FAF778FF06900799FAF71CFF26
:1054B0008346FBF735F9CDE90801FFF789FC4FF08A
:1054C0006632544BCDE90A01FBF77DF8CDE90C01BA
:1054D000FBF752F9206049464FF08040FAF75CFF35
:1054E00049460290FAF758FF414604904FF0404079
:1054F000FAF752FF41460290FAF74EFF03900499E3
:10550000FAF744FF83464FF07E51FAF7EDFE05901F
:10551000FBF706F9CDE9080139464FF08040FAF76C
:105520003BFF41460390FAF737FF494604904FF09E
:105530008040FAF731FF00E068E051460390FAF747
:105540002BFF83460499FAF7CFFE0590FBF7E8F8A6
:10555000CDE90601DDE90823FFF782FE4FF0663250
:105560002C4BCDE90A01FBF72EF8CDE90C01FBF736
:1055700003F9286051465046FAF70EFF4946049059
:105580004846FAF709FF414603904046FAF704FF00
:10559000394601903846FAF7FFFE00900199FAF774
:1055A000A3FE02900399FAF7F1FE83460499FAF7F5
:1055B000EDFE0590FBF7B4F8CDE9080151463846F9
:1055C000FAF7EAFE494604904046FAF7E5FE0390F2
:1055D0000499FAF789FE4FF080410590FAF7DCFE56
:1055E0008346FBF79DF8CDE90601DDE90823FFF7C7
:1055F00037FE4FF06632074BCDE90A01FAF7E3FFB9
:10560000CDE90C01FBF7B8F8306001E001200BE7B1
:10561000002009E766A64C402DE9F041002001F08A
:105620003BFFC4B2782002F023FD2044C4B27820AE
:1056300001F020FE2044C4B2642002F0CBFC2044E0
:10564000C4B200F0EDFD2044C4B2194D284601F06B
:1056500073FD0646E81C01F06FFD46EAC00086B205
:10566000A81D01F069FD46EA801086B200BF3746EA
:10567000384601F031F82044C4B240F2731000F013
:1056800077FC2044C4B2642000F056FF2044C4B22A
:10569000012002F09BFB2044C4B200F08DFA2044AC
:1056A000C4B214B10120BDE8F0810020FBE7000086
:1056B0006C0100202DE9FC4104460D4616466B4660
:1056C00006223B21682000F027FA0746BFB99DF863
:1056D00001009DF8001040EA012000B220809DF8F2
:1056E00003009DF8021040EA012000B228809DF8D6
:1056F00005009DF8041040EA012000B230803846D1
:10570000BDE8FC8110B504460CB9012010BDFCF7C2
:10571000ADF920600020F9E72DE9FC4104460D4673
:1057200016466B4606224321682000F0F5F907462D
:10573000BFB99DF801009DF8001040EA012000B2B9
:1057400020809DF803009DF8021040EA012000B27D
:1057500028809DF805009DF8041040EA012000B261
:1057600030803846BDE8FC8100B585B0002001904E
:1057700002900390049000BF00BF1048806940F081
:1057800004000E4988610846806900F0040000901A
:1057900000BF00BF00BF01200190029003900320D2
:1057A000049001A90648FBF7C3FF00BF00220121B6
:1057B0000348FCF755F900BF05B000BD00100240DA
:1057C0000008014010B500BF002220211048FCF75E
:1057D00047F900BF00F01EF800BF012210210C485D
:1057E000FCF73EF900BF00F015F800BF00221021C1
:1057F0000748FCF735F900BF00F00CF800BF0122A4
:1058000020210348FCF72CF900BF00F003F810BD7D
:105810000008014010B5022000F068FB10BD000038
:1058200000B585B00020019002900390049000BF65
:1058300000BF1A48806940F0040018498861084692
:10584000806900F00400009000BF00BF00BF00BFEF
:1058500000BF0846806940F00400886108468069FE
:1058600000F00400009000BF00BF00BF10200190B6
:105870000120029003900320049001A90848FBF73F
:1058800057FF202001901120029001A90448FBF746
:105890004FFF00F0B1F805B000BD0000001002405D
:1058A0000008014010B500BF012220210C48FCF780
:1058B000D7F800BFFFF7AEFF00BF01221021084854
:1058C000FCF7CEF800BFFFF7A5FF00BF00221021B4
:1058D0000348FCF7C5F800BFFFF79CFF10BD0000B0
:1058E0000008014070B50546002400261CE0600653
:1058F000040E00BF012210211048FCF7B1F800BFD0
:10590000FFF788FF20210D48FCF7A2F808B1601CC2
:10591000C4B200BF002210210848FCF7A1F800BF64
:10592000FFF778FF701CC6B2082EE0DB15B9FFF751
:10593000B9FF01E0FFF746FF204670BD00080140B7
:1059400070B50446002524E000BFE00928B101221B
:1059500020211548FCF784F804E000222021124899
:10596000FCF77EF800BFFFF755FF00BF01221021B2
:105970000D48FCF775F800BFFFF74CFF00BF002291
:1059800010210948FCF76CF800BF6006040E681C83
:10599000C5B2082DD8DB00BF012220210248FCF748
:1059A0005FF800BF70BD00000008014010B500BFE7
:1059B000012220210F48FCF753F800BF00BF01224D
:1059C00010210C48FCF74CF800BFFFF723FF00BF85
:1059D000002220210748FCF743F800BFFFF71AFF19
:1059E00000BF002210210348FCF73AF800BFFFF780
:1059F00011FF10BD0008014010B500BF002220219A
:105A00000C48FCF72DF800BFFFF704FF00BF012290
:105A100010210848FCF724F800BFFFF7FBFE00BF89
:105A2000012220210348FCF71BF800BFFFF7F2FE1C
:105A300010BD00000008014070B50024002500BF23
:105A4000012220211448FCF70BF800BFFFF7E2FE0B
:105A500000BF012210211048FCF702F800BFFFF739
:105A6000D9FE07E0601CC4B2FA2C03DDFFF7C4FFC7
:105A7000012505E020210848FBF7EAFF0028F1D1C5
:105A800000BF00BF002210210348FBF7E9FF00BF61
:105A9000FFF7C0FE284670BD0008014008B5FFF7BB
:105AA00063FEFFF7BDFE00F022F9032000F0D7F8F7
:105AB000002000F0CBF8322000F0F7F80022382167
:105AC000682000F05BF900226A21682000F056F996
:105AD00000222321682000F051F98022372168201C
