:020000040800F2
:1000000080370020E10100087D3A0008953500089E
:10001000793A0008510D00084D4A00080000000020
:10002000000000000000000000000000490100087E
:10003000CD0E0008000000008D0100080D410008F1
:10004000FB010008FB010008FB010008FB010008A0
:10005000FB010008FB010008FB010008CF0E0008AF
:10006000FB010008FB010008FB010008FB01000880
:10007000FB010008FB010008FB010008FB01000870
:10008000810E0008910E0008FB010008FB0100082A
:10009000FB010008FB010008FB010008FB01000850
:1000A000FB010008A9410008FB010008FB01000852
:1000B000FB010008B9410008C9410008FB01000824
:1000C000FB010008FB010008FB010008FB01000820
:1000D000FB010008FB0100083D4A0008FB01000885
:1000E000FB010008FB010008FB010008FB01000800
:1000F000FB010008FB010008FB010008FB010008F0
:10010000FB010008FB010008FB010008FB010008DF
:10011000FB010008FB010008FB010008FB010008CF
:10012000FB010008FB010008FB010008FB010008BF
:10013000DFF810D000F016FD0048004725730008D6
:10014000AFF3008080370020224B19680868B0E8C0
:10015000F00F80F30988BFF36F8F4FF0000080F33A
:1001600011884EF00D0E7047000000000648006830
:10017000006880F3088862B661B6BFF34F8FBFF3A3
:100180006F8F00DF00BF00BF08ED00E0EFF30980D4
:10019000BFF36F8F0F4B1A6820E9F00F106008B59E
:1001A0004FF0500080F31188BFF34F8FBFF36F8F74
:1001B00009F03AF94FF0000080F31188BDE80840DB
:1001C00019680868B0E8F00F80F30988BFF36F8FF3
:1001D000704700BFE4000020EFF305807047000087
:1001E0000648804706480047FEE7FEE7FEE7FEE7D1
:1001F000FEE7FEE7FEE7FEE7FEE7FEE7A5410008B3
:10020000310100082DE9F0410024061B254671F15B
:10021000000605DA01240027D0EB070067EB010197
:10022000161E73F1000605DA0027D2EB070201253E
:1002300067EB030300F012FB86460E4617469C460A
:10024000AC4204D00025D0EB050E65EB010624B1CD
:100250000020D2EB000760EB030C704631463A46B3
:100260006346BDE8F081202A04DB203A21FA02F03F
:100270000021704721FA02F3D040C2F120029140E0
:1002800008431946704740EA01039B0703D009E081
:1002900008C9121F08C0042AFAD203E011F8013B72
:1002A00000F8013B521EF9D27047D2B201E000F8CB
:1002B000012B491EFBD270470022F6E710B513460A
:1002C0000A4604461946FFF7F0FF204610BD30B538
:1002D00004460020034600E05B1C934203D2E05C2E
:1002E000CD5C401BF8D030BDF0B480EA0102D40FE1
:1002F0004200B2EB410F02D20246084611464A00C4
:1003000042D0C30DDDB2C1F3C752AD1A202D35DA8C
:10031000C1F3160141F4000204B15242C5F12006B6
:1003200002FA06F12A411044B3EBD05F23D0C4B1E6
:10033000012DA0EBC35009DCF0BC4FF0004202EAF3
:10034000C352DBB200F5000000F0E3BA400000F158
:10035000807000EBC350A0F1807040EAD17049007A
:1003600009E0490841EAC071A0EBC35000F5000064
:10037000400800EBC350F0BC00F0C2BA6142012259
:1003800002EB4101001BF6E7F0BC704781F0004131
:10039000AAE780F00040A7E780EA010210B502F06A
:1003A0000043400022D04A001FD0010E01EB126131
:1003B000C0F35600C2F3560240F4000042F40002BB
:1003C000A0FB022000047F39140400D0401C50EA36
:1003D000124001D44000491EC2B20C0604EBD010FA
:1003E000401C4008802A02D003E0002010BD20F00D
:1003F0000100002900DA0020184310BD30B480EA63
:10040000010202F0004530F0004221F0004013D01C
:1004100090B1C30DD40DC2F31601C0F31600E41A57
:1004200041F4000140F400027D34914201D3641C88
:1004300000E04900002C02DA30BC002070474FF485
:1004400000000023914201D3891A034340084FEA78
:100450004101F7D151B1914202D14FF0004105E085
:1004600002D24FF0010101E06FF0010103EBC45033
:10047000284430BC00F044BA2DE9FE4F804681EAA2
:100480000300C00F0C46009021F0004123F000450E
:10049000B8EB0200A94105D24046214690461C46D1
:1004A0000B46024623F00040104347D0270DC7F308
:1004B0000A00C3F30A510290401A019040286BDAF7
:1004C000C3F3130040F4801B0098924620B1002330
:1004D000D2EB030A63EB0B0B01985946C0F14002C3
:1004E000504600F0ECF906460D4650465946019A32
:1004F00000F0F4F910EB08006141002487EA115282
:1005000084EAE7731A4340D0009A62B3019A012A41
:100510004FEA075215DC001B61EB02014FF000426D
:1005200002EA0752CDE90042001C41F58011324633
:100530002B4600F02BFA03B0BDE8F08F4046214671
:10054000F9E7001B61EB0201001C41F58013001864
:100550005B412018A2F5001747EB030140EAD57074
:10056000B6196D4111E06D084FEA360645EAC075CF
:100570004FEA0752001B61EB0201001C41F580119C
:1005800049084FEA30000019514132462B4603B06A
:10059000BDE8F04F00F0EBB90098012240000023C5
:1005A000D0EB020263EBE073009821464FEAE0745F
:1005B000B8EB000061EB0401E9E783F000435BE77F
:1005C00081F0004158E72DE9FE4F81EA030404F071
:1005D000004421F0004100944FF0000B23F0004351
:1005E00050EA01045ED052EA03045BD0C3F30A541C
:1005F000C1F30A552C44A4F2F3340194A0FB025435
:10060000C1F3130141F48011C3F3130343F48013C6
:1006100001FB024400FB034E840A970A44EA81541A
:1006200047EA8357A4FB076802958D0A05FB0785F7
:100630004FEA932C04FB0C542705029D4FEA065801
:1006400047EA1637B5EB08056EEB070C870E920EDE
:1006500047EA811742EA8312A7FB0201B6EB0B01BE
:1006600064EB00042B0D43EA0C335E1844EB1C5082
:10067000DA465146E7FB0201C5F313044FEA0B3398
:1006800043EA14534FEA0432019C43EA0603A4F1FF
:100690000C040294009CCDE900B400F077F903B09B
:1006A000BDE8F08F00200146F9E7C10F80EAE07055
:1006B0000844CA079623002100F02BB99623002294
:1006C000114600F026B90EB540F2334102910021E7
:1006D000CDE900110A460B4600F058F903B000BD01
:1006E00000F0004220F00040C10DC0F3160040F4BD
:1006F00000007F2901DA00207047962903DCC1F150
:100700009601C84001E096398840002AF4D0404262
:10071000704720F00040C10DC0F3160040F4000007
:100720007F2901DA00207047962903DCC1F1960188
:10073000C840704796398840704770B5C1F30A5277
:1007400001F000450024C1F3130140F2FF3341F4EE
:1007500080119A4201DA002070BD40F233439A4280
:10076000A2F2334203DC5242FFF77DFD00E09040ED
:100770002C43F1D0404270BD00F0004230F0004008
:100780000AD0C10D01F56071C0F3160042EA0151B3
:10079000C20840071143704700200146704700001F
:1007A00030B5041E71F1000404DB4FF000444042F8
:1007B00064EB0101141E73F1000405DB1C464FF0CD
:1007C0000043524263EB0403994208BF904230BD9C
:1007D00001F0004330B421F0004150EA010206D09C
:1007E0000A0DA2F56072C1F31301002A02DC30BCCD
:1007F00000207047440F44EAC104C100E01830BC37
:1008000000EBC25000F07CB8002801DBC0F10040D2
:10081000002901DBC1F1004181427047002801DB62
:10082000C0F10040002901DBC1F10041884270475E
:1008300030B50B46014600202022012409E021FAB0
:1008400002F59D4205D303FA02F5491B04FA02F5AD
:100850002844151EA2F10102F1DC30BD2DE9F05F44
:100860000546002092469B4688460646814640241F
:100870001BE02846414647462246FFF7F4FC534614
:100880005A46C01A914110D311461846224600F02C
:1008900016F82D1A67EB01084F4622460120002169
:1008A00000F00DF817EB00094E41201EA4F10104E1
:1008B000DFDC484631462A464346BDE8F09F202A01
:1008C00004DB203A00FA02F1002070479140C2F1A7
:1008D000200320FA03F3194390407047202A06DBD7
:1008E000CB17203A41FA02F043EAE07306E041FAFE
:1008F00002F3D040C2F120029140084319467047EC
:100900000029A8BF7047401C490008BF20F0010023
:10091000704710B4B0FA80FC00FA0CF050EA010401
:1009200004BF10BC704749B1CCF1200421FA04F493
:1009300011FA0CF118BF012121430843A3EB0C016C
:10094000CB1D4FEA00614FEA102042BF002010BCCF
:10095000704700EBC35010440029A4BF10BC70477F
:10096000401C490008BF20F0010010BC704710B5C2
:10097000141E73F1000408DA401C41F100019218C2
:100980005B411A4301D120F0010010BD2DE9F04D6B
:1009900092469B4611B1B1FA81F202E0B0FA80F2C0
:1009A00020329046FFF78BFF04460F4640EA0A00CC
:1009B00041EA0B0153465A46084313D0114653EA05
:1009C000010019D0C8F140025046FFF74CFC054623
:1009D0000E46504659464246FFF771FF084305D080
:1009E000012004E020463946BDE8F08D0020054393
:1009F00046EAE0762C4337430A986305E40AA0EB05
:100A000008000022FD0A44EA47540A3002D50020BB
:100A10000146E9E7010510196941DDE908450019BA
:100A20006941BDE8F04DA2E72DE9F04D81EA0304EC
:100A300004F0004B21F0004514464FF0000A23F06B
:100A4000004150EA050220D054EA01021DD0C5F34E
:100A50000A570246C5F31303C1F31300C1F30A5644
:100A600040F4801543F48013A7EB0608101BD6460C
:100A700008F2FD3873EB050002D308F1010801E02C
:100A800092185B41B8F1000F03DA00200146BDE87F
:100A9000F08D00204FF48011064684460EE0171BAF
:100AA00073EB050705D3121B63EB050306434CEA02
:100AB000010C49084FEA300092185B4150EA0107E7
:100AC000EDD152EA030012D082EA040083EA050164
:100AD000084305D0101BAB4106D20122002306E0DB
:100AE00000224FF0004302E06FF0010253101AEBB6
:100AF00006004CEB085110EB0A0041EB0B01BDE87E
:100B0000F04DFFF734BF70B521F0004303430CD024
:100B1000C1F30A550024D5EB040564EB0403D61792
:100B2000AD1AB34102DB0020014670BD201841EB35
:100B3000025170BD30B5041E71F1000404DB4FF0AA
:100B40000044404264EB0101141E73F1000405DB14
:100B50001C464FF00043524263EB04038B4208BF34
:100B6000824230BD064C074D06E0E06840F00103CC
:100B700094E8070098471034AC42F6D3FFF7DCFA4C
:100B800080B30008A0B300082DE9F04D00231A46F9
:100B90001B1A8A4103DB00200146BDE8F08DC1F33A
:100BA0000A52C1F3130141F480154FF0000BD10735
:100BB00002D100186D41521E0027044640F2FF1179
:100BC000384601EB620A3E468046024600204FF45A
:100BD0008011FFF748FBC2197141BB1846EB0100B9
:100BE000B4EB030C75EB000C04D3E41A65EB0005C1
:100BF00017460E46241908F101006D41804634283D
:100C0000E3DDF91946EB0600091BA84103D24FF0BA
:100C1000FF32134601E0002213461BEB070046EBB0
:100C20000A51BDE8F04DFFF7A2BE30B58C1810F8A0
:100C3000012B12F00F0301D110F8013B120906D16C
:100C400010F8012B03E010F8015B01F8015B5B1E5B
:100C5000F9D101E001F8013B521EFBD1A142E6D3DC
:100C6000002030BD70B5044600252068806800F083
:100C7000010018B32068806820F0010021688860B6
:100C800000F02CFF054613E000F028FF401B02286F
:100C90000ED92068806800F0010048B1A06A40F0D9
:100CA0001000A062E06A40F00100E062012070BD27
:100CB0002068806800F001000028E5D10020F6E7F8
:100CC00038B504460025002000902068806800F0B8
:100CD000010078BB2068806840F0010021688860CE
:100CE000194800681949B0FBF1F0009002E0009843
:100CF000401E009000980028F9D100F0EFFE054654
:100D000019E000F0EBFE401B022814D9206880682F
:100D100000F0010078B9A06A40F01000A062E06A1B
:100D200040F00100E06200BF002084F8240000BF12
:100D3000012038BD05E02068806800F0010000282F
:100D4000DFD00020F5E700002C00002040420F001B
:100D500000BFFEE710B5124A111F081F04F010FC77
:100D600004460F4A103A911E881E04F065FD204487
:100D7000C4B20B4A0A3A911E881E04F08FFD20442B
:100D8000C4B234B91822064914390648FFF77BFA71
:100D900005E01822034902481438FFF774FA10BD21
:100DA000600600206406002010B502F0E1FB01207F
:100DB00003F0EEF8404226490860022003F0E8F80C
:100DC000244908602449B1F90800FFF76EFC044685
:100DD0002149C868214603F03BFE204908601E48AF
:100DE000C2681F4803681B4801681948006803F07F
:100DF0005BFE1C4908601848B0F90A101A480088C0
:100E000000B203F0C5FE194908601448006815498E
:100E100009680844154909680844154908600F48DD
:100E2000006810490968084410490968401A1149C6
:100E300008600F4803F07EF80749C86803F010FB0C
:100E400028B90C4801680A48006803F0BDF810BDD5
:100E5000480000204C0000204C06002034000020F8
:100E60005000002038000020540000203C000020EA
:100E7000400000204400002010B502F01FFF10BD0C
:100E800010B5024800F0C8FA10BD0000C4050020EB
:100E900010B5024800F0C0FA10BD0000080600209E
:100EA00030B590F840500124AC40C56B6C600468CC
:100EB00063604468102C04D10468A2600468E16097
:100EC00003E00468A1600468E26030BD704710B5BB
:100ED000022000F057FC10BD72B600BFFEE7000014
:100EE000F8B5044600260020009000BF94F82400C6
:100EF000012801D10220F8BD012084F8240000BFA0
:100F00002046FFF7AFFE06462046FFF7D9FE06460D
:100F1000002E69D1A06A20F4885040F00200A0623F
:100F2000022000F0B9FE34490968B1FBF0F040003E
:100F3000009002E00098401E009000980028F9D12F
:100F40002068806840F008002168886000F0C6FDD5
:100F5000054616E000F0C2FD401B0A2811D92068A2
:100F6000806800F0080060B1A06A20F0020040F044
:100F70001000A06200BF002084F8240000BF012000
:100F8000B9E72068806800F008000028E2D12068F6
:100F9000806840F004002168886000F09FFD0546ED
:100FA00016E000F09BFD401B0A2811D920688068DC
:100FB00000F0040060B1A06A20F0020040F01000D0
:100FC000A06200BF002084F8240000BF012092E747
:100FD0002068806800F004000028E2D1A06A20F0B8
:100FE000020040F00100A06200BF002084F824004D
:100FF00000BF30467FE700002C00002038B50246D5
:1010000000230020009000BF92F82400012801D1A5
:10101000022038BD012082F8240000BF486807285C
:1010200012D21068406B0C79641E04EB84051F24F7
:10103000AC40A0430D796D1E05EB85050C68AC40F6
:1010400020431468606327E048680D2812D21068B6
:10105000006B0C79E41F04EB84051F24AC40A04313
:101060000D79ED1F05EB85050C68AC402043146835
:10107000206311E01068C06A0C790D3C04EB840514
:101080001F24AC40A0430D790D3D05EB85050C6890
:10109000AC4020431468E06208680A2812D3106844
:1010A000C0680C780A3C04EB44050724AC40A0431C
:1010B0000D780A3D05EB45058C68AC40204314686B
:1010C000E0600FE0106800690C7804EB4405072429
:1010D000AC40A0430D7805EB45058C68AC4020433F
:1010E000146820610868102802D00868112827D1E8
:1010F000174C1068A0421ED11068806800F40000F0
:10110000F0B91068806840F400001468A0600868B6
:10111000102815D10F4800680F4CB0FBF4F000EB1D
:1011200080004000009002E00098401E009000986F
:101130000028F9D104E0906A40F020009062012379
:1011400000BF002082F8240000BF184661E70000BD
:10115000002401402C00002040420F002DE9F04106
:101160000446002700250026A84614B90120BDE842
:10117000F081A06810B1207D00B100BFA06A30B935
:101180000020E06284F82400204600F089F8204620
:10119000FFF768FD0746A06A00F01000002873D131
:1011A000002F71D1A06A20F4885040F00200A062A4
:1011B000E16960680843217B40EA41000643A0687A
:1011C000B0F5807F02D0A068012802D14FF4807072
:1011D00000E000200543207D012811D1207B38B993
:1011E000A069401E4FF4006141EA4030054307E02A
:1011F000A06A40F02000A062E06A40F00100E062D6
:101200002068406820F469402843216848602068CD
:10121000806821490840304321688860A068B0F5A3
:10122000807F02D0A068012802D14FF4807000E0D6
:101230000020B0F5807F03D1208A401E4FEA00587D
:101240002068C06A20F4700040EA08002168C86283
:101250002068806811490840B04208D10020E0624F
:10126000A06A20F0020040F00100A06211E0A06A34
:1012700020F0020040F01000A062E06A40F001009F
:10128000E062012705E0FFE7A06A40F01000A062DD
:10129000012738466BE70000FDF7E1FFFE0E1FFF58
:1012A00010B586B00446002002900390049005908B
:1012B00014492068884222D100BF1348806940F455
:1012C0000070114988610846806900F4007001903F
:1012D00000BF00BF00BF0846806940F0040088617D
:1012E0000846806900F00400019000BF00BF0220A2
:1012F00002900320039002A9044800F051FA06B0BE
:1013000010BD000000240140001002400008014010
:101310000146002291F82100022808D004208863A9
:1013200000BF002081F8200000BF0120704708683E
:10133000006820F00E000B6818600868006820F054
:1013400001000B68186091F8403001209840CB6B89
:101350005860012081F8210000BF002081F82000A2
:1013600000BF1046E2E7000070B50446002594F87F
:101370002100022803D00420A063012548E0206852
:10138000006820F00E00216808602068006820F0E6
:101390000100216808601F492068884201D10120AE
:1013A00026E01C4914312068884201D110201FE03A
:1013B000184928312068884201D1801518E0154964
:1013C0003C312068884201D1801411E0114950312C
:1013D0002068884202D14FF4803009E00D49643121
:1013E0002068884202D14FF4801001E04FF08070F5
:1013F000084908394860012084F8210000BF002016
:1014000084F8200000BF606B10B12046616B8847F4
:10141000284670BD0800024070B50446E06B0568C0
:101420002068066894F8401004208840284000286E
:1014300046D006F00400002842D02068006800F082
:10144000200028B92068006820F0040021680860A6
:1014500057492068884201D1042027E054491431BB
:101460002068884201D1402020E05149283120687D
:10147000884201D1001519E04D493C31206888426D
:1014800002D14FF4804011E0494950312068884230
:1014900002D14FF4802009E0454964312068884238
:1014A00002D14FF4800001E04FF0806040490839DC
:1014B0004860E06A00287AD02046E16A884776E0F2
:1014C00094F84010022088402840A0B306F00200A3
:1014D00088B32068006800F0200040B920680068E8
:1014E00020F00A0021680860012084F821003049BA
:1014F0002068884201D1022028E02D49143120685B
:10150000884201D1202021E02949283120688842E1
:1015100001D140151AE026493C312068884202D1A9
:101520004FF4005012E0224950312068884203D124
:101530004FF400300AE017E01D496431206888420A
:1015400002D14FF4001001E04FF000701849083943
:10155000486000BF002084F8200000BFA06A30B3BC
:101560002046A16A884722E094F84010082088406D
:101570002840E0B106F00800C8B12068006820F0FB
:101580000E002168086094F8401001208840E16B4B
:1015900048600120A06384F8210000BF002084F887
:1015A000200000BF206B10B12046216B884770BD22
:1015B000080002400146002209B901207047164B7D
:1015C0000868C01A1423B0FBF3F0800008641248C6
:1015D0000838C863022081F821000868026843F6D1
:1015E000F0708243D1E901031843CB6818430B69BB
:1015F00018434B6918438B691843CB69184302435E
:101600000868026000208863012081F82100002022
:1016100081F8200000BFD1E7080002402DE9F04129
:1016200004460D4616461F464FF0000800BF94F8CA
:101630002000012802D10220BDE8F081012084F8B9
:10164000200000BF94F8210001282CD1022084F84A
:1016500021000020A0632068006820F001002168BC
:1016600008603B46324629462046FFF719FCE06AEF
:1016700030B12068006840F00E00216808600BE07F
:101680002068006820F00400216808602068006875
:1016900040F00A00216808602068006840F00100FE
:1016A0002168086006E000BF002084F8200000BF29
:1016B0004FF002084046BFE770B5044600F00EFA4E
:1016C00006462546681C10B104480078054400BF52
:1016D00000F004FA801BA842FAD370BD2800002055
:1016E0002DE9F04704464FF00009022C39D11E487D
:1016F000007858B901201C49087000201B49087067
:101700001B4908601B4800F0FBFF2AE00020164937
:101710000870184801F030F81548006841F2883127
:10172000884203D90020124908600EE01049086879
:10173000FEF7C9FF07464FF033320F4BFEF743FF6A
:101740000546FEF7FAFF0D4908600C48006820B90D
:101750000B4800680949086003E008480068084928
:101760000860BDE8F0870000180000201900002084
:10177000242C0140140400203333FB3FA800002038
:101780001C00002010B5044604480068204020B129
:10179000024804602046FFF7A3FF10BD1404014077
:1017A0002DE9F8470346002294466EE14FF0010808
:1017B00008FA02F4D1F8008008EA0400A0427DD1C2
:1017C000DFF8DCA2D1F80480A8EB0A09D0453AD0B2
:1017D00014DCB8F1030F50D009DCB8F1000F31D0A0
:1017E000B8F1010F1CD0B8F1020F49D120E0B8F1D7
:1017F000110F18D0B8F1120F42D11EE0B9F5881FB1
:1018000025D006DCB9F5803F20D0B9F5801F37D14F
:101810001AE0B9F5001F18D0B9F5041F30D117E050
:10182000D1F80CC02DE0D1F80C8008F1040C28E0B0
:10183000D1F80C8008F1080C23E0D1F80C8008F1F5
:101840000C0C1EE000BF00BF00BF00BF00BF00BF08
:10185000D1F80880B8F1000F02D14FF0040C0BE072
:10186000D1F80880B8F1010F03D14FF0080C1C61CA
:1018700002E04FF0080C5C6103E04FF0000C00E068
:1018800000BF00BFFF2801D8984601E003F104081B
:101890004646FF2802D84FEA820803E0A2F1080872
:1018A0004FEA88084746D6F800804FF00F0909FA3A
:1018B00007F928EA09080CFA07F900E088E048EA85
:1018C0000908C6F80080D1F8048008F08058B8F103
:1018D000805F7DD100BFDFF8CC81D8F8188048F058
:1018E0000108DFF8C091C9F81880C846D8F81880F8
:1018F00008F00108CDF8008000BF00BF4FEAB938FA
:101900004FEA920958F829504FEA82784FEA18793D
:101910004FF00F0808FA09F825EA0805DFF8888172
:10192000434502D14FF0000816E0DFF880814345BF
:1019300002D14FF001080FE0DFF87481434502D176
:101940004FF0020808E0DFF86C81434502D14FF008
:10195000030801E04FF004084FEA82794FEA197951
:1019600008FA09F848EA0505DFF84C814FEA9209C0
:1019700048F82950D1F8048008F48018B8F5801F81
:101980000AD1DFF83881D8F8008048EA0008DFF88B
:101990002C91C9F8008009E0DFF82081D8F8008098
:1019A00028EA0008DFF81491C9F80080D1F8048013
:1019B00008F40018B8F5001F10D1DFF8008108F115
:1019C0000408D8F8008048EA0008DFF8F09000E04A
:1019D0005AE009F10409C9F800800DE0DFF8DC8065
:1019E00008F10408D8F8008028EA0008DFF8CC9055
:1019F00009F10409C9F80080D1F8048008F400381E
:101A0000B8F5003F0ED1DFF8B480A8F10408D8F88B
:101A1000008048EA0008DFF8A490A9F10409C9F899
:101A200000800DE0DFF89480A8F10408D8F8008069
:101A300028EA0008DFF88490A9F10409C9F80080B9
:101A4000D1F8048008F48038B8F5803F0ED1DFF873
:101A50006C80A8F10808D8F8008048EA0008DFF890
:101A60005C90A9F10809C9F800800DE0DFF84C800E
:101A7000A8F10808D8F8008028EA0008DFF83C90B0
:101A8000A9F10809C9F80080521CD1F8008028FA91
:101A900002F8B8F1000F7FF489AEBDE8F8870000C6
:101AA000000011100010024000080140000C01402D
:101AB00000100140001401400800014008040140EA
:101AC000024693680B400BB1012000E000207047F4
:101AD0000AB1016101E00B0403617047014800682D
:101AE000704700002000002003480068034909787F
:101AF00008440149086070472000002028000020A9
:101B000010B50848006840F010000649086003203E
:101B100000F0AEF80F2000F007F800F02BF80020DE
:101B200010BD00000020024070B504460E48007849
:101B30004FF47A71B1FBF0F00C490968B1FBF0F594
:101B4000284600F029FD08B1012070BD102C07D2F5
:101B500000222146501E00F04DF80548046001E0C7
:101B60000120F2E70020F0E7280000202C000020F0
:101B70002400002008B500BF1448806940F001002F
:101B8000124988610846806900F00100009000BF9A
:101B900000BF00BF0846C06940F08050C8610846D9
:101BA000C06900F08050009000BF00BF00220F21EC
:101BB000901E00F01FF800BF0549486820F0E06063
:101BC00040F00070486000BF08BD000000100240F7
:101BD0000000014001460846002809DB00F01F0311
:101BE00001229A4043099B0003F1E023C3F800213E
:101BF00000BF70472DE9F05F80460D46164600276E
:101C000003F010F8074639462A46334601F007002C
:101C1000C0F1070ABAF1040F02D94FF0040A01E03B
:101C2000C0F1070AD14600F1040ABAF1070F02D247
:101C30004FF0000A01E0A0F1030AD4464FF0010A78
:101C40000AFA09FAAAF1010A0AEA020A0AFA0CFADD
:101C50004FF0010B0BFA0CFBABF1010B0BEA030B82
:101C60004AEA0B042146404602F0E4FFBDE8F09F3B
:101C700000BF00F00702064B19684FF6FF0319403A
:101C8000044B0B4343EA0221014B196000BF70472C
:101C90000CED00E00000FA052DE9F04706464FF094
:101CA0000008002500270024A146012E31D0022E75
:101CB00056D0102E5FD132484468006800F0807022
:101CC00008B33048C4F38341475C04F4803078B1F2
:101CD0002B484068C0F340402B4911F8008004F4C1
:101CE000803040B12948B0FBF8F000FB07F502E076
:101CF000274807FB00F52248406800F48000B0F553
:101D0000800F01D1A94603E068000321B0FBF1F97F
:101D100032E01B48046A04F44070B0F5807F05D1BE
:101D200004F0020010B14FF4004918E004F44070D0
:101D3000B0F5007F07D11248406A00F0020010B1F0
:101D400049F640490BE004F44070B0F5407F06D1FD
:101D50000B48006800F4003008B14FF224490BE052
:101D600000F08CF906494968C1F38131491C4900EA
:101D7000B0FBF1F900E000BF00BF4846BDE8F087C6
:101D800000100240529F0008629F000800127A0073
:101D900000093D00F8B5044600260025207800F033
:101DA000010000286BD000274348C06900F0805034
:101DB00070B900BF4048C06940F080503E49C861DA
:101DC0000846C06900F08050009000BF00BF0127A6
:101DD0003A48006800F48070B0B93848006840F4B0
:101DE000807036490860FFF779FE064606E0FFF787
:101DF00075FE801B642801D90320F8BD2F480068B8
:101E000000F480700028F2D02B48006A00F440757E
:101E10002DB3A08800F44070A84220D02648006A64
:101E200020F44075012026490860002008602248FF
:101E3000056205F0010090B1FFF750FE064608E08C
:101E4000FFF74CFE801B41F28831884201D9032004
:101E5000D3E71948006A00F002000028F0D01648C5
:101E6000006A20F440706168084313490862012F3A
:101E700004D10846C06920F08050C86100BF2078B6
:101E800000F00200022807D10B48406820F44040CF
:101E9000A168084308494860207800F01000102825
:101EA00007D10548406820F48000E16808430249F2
:101EB00048600020A1E700000010024000700040D0
:101EC0004004424270B504460D460CB9012070BD75
:101ED0005A48006800F00700A8420ED25748006830
:101EE00020F007002843554908600846006800F0C4
:101EF0000700A84201D00120E9E7207800F00200A5
:101F000002281DD1207800F00400042805D14C4897
:101F1000406840F4E0604A494860207800F00800DA
:101F2000082805D14648406840F46050444948605C
:101F30004348406820F0F000A168084340494860E9
:101F4000207800F0010078B36068012806D13C4891
:101F5000006800F4003090B90120B8E760680228FA
:101F600006D13748006800F0007040B90120AEE7A4
:101F70003348006800F0020008B90120A7E73048A4
:101F8000406820F00300616808432D494860FFF76E
:101F9000A5FD064609E0FFF7A1FD801B41F288314F
:101FA000884202D9032092E707E02548406800F004
:101FB0000C006168B0EB810FEDD12048006800F0A3
:101FC0000700A8420ED91D48006820F007002843EA
:101FD0001A4908600846006800F00700A84201D0CE
:101FE000012074E7207800F00400042807D1144889
:101FF000406820F4E060E1680843114948602078B7
:1020000000F00800082808D10D48406820F460500E
:10201000216940EAC1000A49486000F03FF80849D8
:102020004968C1F30311074A515CC840064908607A
:1020300006480068FFF778FD002048E700200240CE
:1020400000100240649F00082C00002024000020A3
:1020500001480068704700002C00002000B5FFF721
:10206000F7FF04494968C1F30221034A515CC840A3
:1020700000BD000000100240749F000800B5FFF78B
:10208000E7FF04494968C1F3C221034A515CC840D3
:1020900000BD000000100240749F000870B50021D0
:1020A0000022002400230020134D696801F00C0574
:1020B000F5B1042D02D0082D19D101E00F4819E027
:1020C0000F4DC1F38346AB5D01F4803555B10A4D28
:1020D0006D68C5F340450B4E725D084D5D43B5FB21
:1020E000F2F402E0084D03FB05F4204602E000BFD5
:1020F000024800BF00BF70BD0010024000127A000D
:10210000409F0008509F000800093D00F8B50446B4
:102110000CB90120F8BD207800F00100002878D02B
:10212000F848406800F00C0004280CD0F5484068DE
:1021300000F00C00082811D1F248406800F480300B
:10214000B0F5803F0AD1EF48006800F40030002865
:102150005FD0606800285CD10120DBE700BF6068C9
:10216000B0F5803F06D1E748006840F48030E5498B
:10217000086028E0606858B9E248006820F48030C0
:10218000E04908600846006820F4802008601AE0F2
:102190006068B0F5A02F0BD1DA48006840F48020C9
:1021A000D84908600846006840F4803008600AE0BA
:1021B000D448006820F48030D2490860084600689E
:1021C00020F48020086000BF606888B1FFF786FCBB
:1021D000054606E0FFF782FC401B642801D9032076
:1021E00098E7C848006800F400300028F2D010E0FA
:1021F000FFF774FC054606E0FFF770FC401B6428FF
:1022000001D9032086E7BF48006800F400300028A9
:10221000F2D1207800F00200022857D1B948406876
:1022200000F00C0050B1B748406800F00C000828DE
:1022300018D1B448406800F4803098B9B1480068BB
:1022400000F0020020B12069012801D0012061E7DF
:10225000AC48006820F0F800616940EAC100A94973
:10226000086033E02069E8B10120A7490860FFF762
:1022700035FC054606E0FFF731FC401B022801D97A
:10228000032047E79F48006800F002000028F2D0D2
:102290009C48006820F0F800616940EAC100994953
:1022A000086013E0002098490860FFF717FC054616
:1022B00006E0FFF713FC401B022801D9032029E7A1
:1022C0009048006800F002000028F2D1207800F069
:1022D000080008282DD1A069B8B101208B490860F9
:1022E000FFF7FCFB054606E0FFF7F8FB401B022862
:1022F00001D903200EE78348406A00F0020000285D
:10230000F2D0012001F030FE13E000207F49086088
:10231000FFF7E4FB054606E0FFF7E0FB401B022861
:1023200001D90320F6E67748406A00F00200002851
:10233000F2D1207800F00400042873D100277148FE
:10234000C06900F0805070B900BF6E48C06940F0AD
:1023500080506C49C8610846C06900F08050009008
:1023600000BF00BF01276A48006800F48070B0B960
:102370006748006840F4807065490860FFF7AEFB6D
:10238000054606E0FFF7AAFB401B642801D903209D
:10239000C0E65F48006800F480700028F2D000BFFB
:1023A000E068012806D15748006A40F0010055490D
:1023B000086227E0E06858B95248006A20F001003E
:1023C000504908620846006A20F00400086219E0DB
:1023D000E06805280BD14B48006A40F004004949E9
:1023E00008620846006A40F0010008620AE04548B9
:1023F000006A20F00100434908620846006A20F0A4
:102400000400086200BFE068A0B1FFF767FB054663
:1024100009E0FFF763FB401B41F28831884202D993
:10242000032077E622E03748006A00F00200002827
:10243000EFD012E0FFF752FB054608E0FFF74EFB36
:10244000401B41F28831884201D9032062E62D48C1
:10245000006A00F002000028F0D1012F05D12948C0
:10246000C06920F080502749C86100BFE069C8B347
:102470002448406800F00C00082860D0E069022879
:1024800048D1002020490866FFF728FB054606E0F2
:10249000FFF724FB401B022801D903203AE6194824
:1024A000006800F000700028F2D1206AB0F5803F8B
:1024B00007D11448406820F40030A168084311494E
:1024C0004860D4E9080108430E49496821F47411B1
:1024D00008430C49486001200B490866FFF7FEFAE3
:1024E000054607E03DE0FFF7F9FA401B022801D955
:1024F00003200FE60348006800F000700028F2D0C7
:102500002FE00000001002400000424280044242DE
:1025100000700040002014490866FFF7DFFA054606
:1025200006E0FFF7DBFA401B022801D90320F1E5A2
:102530000E48006800F000700028F2D111E0E06958
:10254000012800D1E6E50948466806F48031206A92
:10255000814204D106F47011606A814201D00120E9
:10256000D8E50020D6E500000000424200100240FD
:10257000042808D14FF0E021096941F004014FF02F
:10258000E022116107E04FF0E021096921F0040128
:102590004FF0E0221161704770B504462546681E71
:1025A000B0F1807F01D301200FE0681E4FF0E021E1
:1025B00048610F214FF0FF3002F03CFB00204FF04C
:1025C000E021886107200861002070BD70477047D6
:1025D00030B502460B4600BF92F83C00012801D1FD
:1025E000022030BD012082F83C0000BF022082F8AA
:1025F0003D00106844681068816824F07004186811
:10260000044310684460104D1068A8420BD0106855
:10261000B0F1804F07D00D4D1068A84203D00C4D8B
:102620001068A84205D121F0800158680143106864
:102630008160012082F83D0000BF002082F83C004C
:1026400000BF00BFCDE70000002C014000040040A7
:102650000008004010B504460CB9012010BD94F8E4
:102660003D0028B9002084F83C00204600F026F800
:10267000022084F83D00211D206801F0ADFD0120FD
:1026800084F8460000BF84F83E0001213F20015538
:10269000402001554120015500BF00BF012084F8B2
:1026A000420043200155442001554520015500BFFB
:1026B000012084F83D000020D0E7000038B5044632
:1026C0000D492068884215D100BF0C48806940F44C
:1026D00000600A4988610846806900F40060009043
:1026E00000BF00BF002205211920FFF783FA19203F
:1026F000FFF770FA38BD0000002C014000100240C6
:10270000014691F83D00012801D0012070470220C8
:1027100081F83D000868C06840F001000B68D8608F
:10272000124B086898420BD00868B0F1804F07D070
:102730000F4B0868984203D00E4B086898420CD1A2
:102740000868806800F00702062A0CD00868006854
:1027500040F001000B68186005E00868006840F070
:1027600001000B6818600020D0E70000002C014039
:10277000000400400008004001460868C06820F0DE
:1027800001000A68D06000BF0868006A41F21112B7
:10279000104050B90868006A9210104028B90868C3
:1027A000006820F001000A68106000BF012081F875
:1027B0003D00002070472DE9F04104460D460027FA
:1027C00000BF94F83C00012802D10220BDE8F0814E
:1027D000012084F83C0000BF022084F83D002068FE
:1027E000866826F0770626F47F462068866028688B
:1027F000502833D00CDC202850D004DC00284BD0EB
:10280000102851D149E0302849D040284CD139E036
:1028100060282DD0702807D0B0F5805F03D0B0F5C8
:10282000005F41D10DE041E0D5E902136A682068FC
:1028300001F01DFD2068866846F0770620688660F6
:1028400034E0D5E902136A68206801F010FD2068C1
:10285000806840F480402168886027E0EA68696801
:10286000206801F0D5FD5021206801F00BFD1DE02E
:10287000EA686968206801F0DEFD6021206801F0E7
:1028800001FD13E0EA686968206801F0C1FD40219C
:10289000206801F0F7FC09E000BF00BF00BF296815
:1028A000206801F0EFFC01E0012700BF00BF01201C
:1028B00084F83D0000BF002084F83C0000BF38468B
:1028C00084E72DE9F04104460D4614B90120BDE826
:1028D000F08194F83D0028B9002084F83C0020469F
:1028E00000F052F8022084F83D002068806844F22D
:1028F0000701884321688860211D206801F06CFC75
:102900002068D0F80880206886692068076A2868EF
:1029100040EA080840F203308643A969A86840EA03
:102920000120064340F60C4086434FF2F0008643F8
:10293000E969E86840EA0120064328690001296A3C
:1029400040EA0130064327F022076969686840EAD7
:10295000011007432068C0F808802068866120685D
:102960000762012084F8460084F83E0001213F20E0
:102970000155012084F8420043200155012084F8CC
:102980003D000020A3E7000010B586B004460020FB
:1029900002900390049005903149206888422CD120
:1029A00000BF3048C06940F002002E49C8610846A7
:1029B000C06900F00200019000BF00BF00BF0846E0
:1029C000806940F0040088610846806900F00400D6
:1029D000019000BF00BFC02002900020039004902F
:1029E00002A92148FEF7DCFE002205211D20FFF789
:1029F00001F91D20FFF7EEF82FE01C4920688842FE
:102A00002BD100BF1748C06940F004001549C861C8
:102A10000846C06900F00400019000BF00BF00BF7D
:102A20000846806940F0080088610846806900F027
:102A30000800019000BF00BFC0200290002003905A
:102A4000049002A90A48FEF7ABFE002205211E20D1
:102A5000FFF7D0F81E20FFF7BDF806B010BD00004C
:102A6000000400400010024000080140000800403F
:102A7000000C01402DE9F04304460D4694F83E60F9
:102A80003F20075D94F84280432010F804906DB910
:102A9000012E02D1B8F1010F02D00120BDE8F08370
:102AA000022084F83E0084F8420025E0042D0CD179
:102AB000012F02D1B9F1010F01D00120EEE702216F
:102AC0003F2001554320015516E0012E07D1012F6B
:102AD00005D1B8F1010F02D1B9F1010F01D00120E8
:102AE000DCE7022084F83E0002213F20015502204D
:102AF00084F842004320015515B1042D0CD105E0A6
:102B000001220021206801F0A1FB10E00122042134
:102B1000206801F09BFB0AE001220021206801F0FF
:102B200095FB01220421206801F090FB00BF00BF4B
:102B30002068006840F00100216808600020ADE7CF
:102B4000704710B5044620680069C0F34000D8B152
:102B50002068C068C0F34000B0B16FF00200216887
:102B60000861012020772068806900F0030018B117
:102B70002046FFF7E5FF05E0204600F0E5F8204697
:102B800000F0AEF90020207720680069C0F38000D3
:102B9000D8B12068C068C0F38000B0B16FF0040005
:102BA00021680861022020772068806900F4407065
:102BB00018B12046FFF7C4FF05E0204600F0C4F836
:102BC000204600F08DF90020207720680069C0F3CE
:102BD000C000D8B12068C068C0F3C000B0B16FF0C9
:102BE000080021680861042020772068C06900F08F
:102BF000030018B12046FFF7A3FF05E0204600F0D0
:102C0000A3F8204600F06CF90020207720680069C6
:102C1000C0F30010D8B12068C068C0F30010B0B194
:102C20006FF0100021680861082020772068C069D3
:102C300000F4407018B12046FFF782FF05E02046FF
:102C400000F082F8204600F04BF900202077206841
:102C5000006900F0010058B12068C06800F0010070
:102C600030B16FF0010021680861204600F0A4F93E
:102C700020680069C0F3C01058B12068C068C0F374
:102C8000C01030B16FF08000216808612046FFF766
:102C90009DFC20680069C0F3801058B12068C068AE
:102CA000C0F3801030B16FF0400021680861204609
:102CB00000F08EF920680069C0F3401058B1206818
:102CC000C068C0F3401030B16FF020002168086187
:102CD0002046FFF77CFC10BD10B586B004460020EE
:102CE00002900390049005902068B0F1804F22D1AB
:102CF00000BF1248806940F008001049886108460A
:102D0000806900F00800019000BF00BF4FF44060F0
:102D1000029002200390059002A90948FEF740FDA9
:102D200000BF0849486820F4407040F0E06040F47B
:102D30000070486000BF06B010BD000000100240E7
:102D4000000C01400000014070472DE9F0410446AD
:102D50000D461646002700BF94F83C00012802D11A
:102D60000220BDE8F081012084F83C0000BF36B1AC
:102D7000042E1BD0082E31D00C2E5ED145E0294602
:102D8000206801F089FA2068806940F00800216815
:102D900088612068806920F00400216888612068CB
:102DA0008069296908432168886148E029462068CC
:102DB00001F0A2FA2068806940F40060216888610F
:102DC0002068806920F480602168886120688069BB
:102DD000296940EA01202168886130E0294620689D
:102DE00001F0BEFA2068C06940F008002168C8619F
:102DF0002068C06920F004002168C8612068C069AB
:102E0000296908432168C86119E02946206801F052
:102E1000DBFA2068C06940F400602168C86120685E
:102E2000C06920F480602168C8612068C069296990
:102E300040EA01202168C86101E0012700BF00BF0E
:102E400000BF002084F83C0000BF384689E710B579
:102E500004460CB9012010BD94F83D0028B90020AB
:102E600084F83C00204600F025F8022084F83D005C
:102E7000211D206801F0B0F9012084F8460000BF50
:102E800084F83E0001213F2001554020015541209A
:102E9000015500BF00BF012084F8420043200155C6
:102EA000442001554520015500BF012084F83D0014
:102EB0000020D0E708B50168B1F1804F0DD100BF07
:102EC0000649C96941F00101044AD1611146C96945
:102ED00001F00101009100BF00BF08BD00100240D9
:102EE0007047000070B504460D4615B994F83E00D1
:102EF0000BE0042D02D13F20005D06E0082D02D139
:102F00004020005D01E04120005D012801D001204A
:102F100070BD1DB9022084F83E000EE0042D03D1DF
:102F200002213F20015508E0082D03D10221402055
:102F3000015502E002214120015501222946206865
:102F400001F084F919492068884201D1012000E08C
:102F5000002028B12068406C40F40040216848649B
:102F60001249206888420BD02068B0F1804F07D00A
:102F70000F492068884203D00E49206888420CD14E
:102F80002068806800F00706062E0CD020680068D4
:102F900040F001002168086005E02068006840F00A
:102FA0000100216808600020B2E70000002C014009
:102FB000000400400008004010B5044603492068A2
:102FC000884201D1FEF790FD10BD0000002C0140A9
:102FD00070477047704700002DE9F84F044620689D
:102FE00005682068C668206847694FF00009CA462E
:102FF00005F00F09B9F1000F0AD105F0200038B132
:1030000006F0200020B1204601F088FBBDE8F88FD3
:10301000B9F1000F7BD007F0010018B906F49070E9
:10302000002874D005F0010030B106F4807018B1AA
:10303000606C40F00100606405F0040030B107F0FE
:10304000010018B1606C40F00200606405F00200FD
:1030500030B107F0010018B1606C40F0040060640A
:1030600005F0080048B106F0200010B907F0010093
:1030700018B1606C40F008006064606C002845D0B6
:1030800005F0200028B106F0200010B1204601F024
:1030900045FB20684069C0F3801A606C00F00800AE
:1030A00010B9BAF1000F2CD0204601F0DEFA2068EA
:1030B000406900F0400000B300BF00BF2168143138
:1030C00051E8001F21F040002168143141E800025E
:1030D000002AF3D100BFE06B50B17748E16B486341
:1030E000E06BFEF741F988B1E06B416B88470DE07A
:1030F0002046FFF76FFF09E009E02046FFF76AFF6F
:1031000004E02046FFF766FF002060647EE7206B46
:10311000012877D105F01000002873D006F01000C8
:103120000028FAD000BF00200090206800680090BE
:1031300020684068009000BF00BF2068406900F030
:10314000400000285FD0E06B006840681FFA80F8FC
:10315000B8F1000F55D0A08D404552DDA4F82E8067
:10316000E06B8069202843D000BF00BF21680C318C
:1031700051E8001F21F4807021680C3141E8000201
:10318000002AF3D100BF00BF00BF2168143151E80D
:10319000001F21F001002168143141E80002002ADB
:1031A000F3D100BF00BF00BF2168143151E8001FF8
:1031B00021F040002168143141E80002002AF3D1D7
:1031C00000BF202084F842000020206300BF00BF21
:1031D00021680C3151E8001F21F0100021680C31EA
:1031E00041E80002002AF3D100BFE06BFEF790F83F
:1031F00002206063A08DE28D801A81B22046FFF725
:10320000E8FE03E742E0A08DE18D401A1FFA80F846
:10321000E08DD0B3B8F1000F37D000BF00BF2168F8
:103220000C3151E8001F21F4907021680C3141E805
:103230000002002AF3D100BF00BF00BF2168143193
:1032400051E8001F21F001002168143141E800021B
:10325000002AF3D100BF202084F842000020206320
:1032600000BF00BF21680C3151E8001F21F01000A1
:1032700021680C3141E80002002AF3D100BF02208E
:10328000606341462046FFF7A4FEBFE605F08000DC
:1032900030B106F0800018B1204601F09FFBB5E682
:1032A00005F0400030B106F0400018B1204601F0B2
:1032B00012FAABE600BFA9E6C944000810B50446FF
:1032C0000CB9012010BDA06900B100E000BF94F866
:1032D000410028B9002084F84000204600F02AF878
:1032E000242084F841002068C06820F40050216840
:1032F000C860204601F090FA2068006920F49040F0
:10330000216808612068406920F02A00216848612E
:103310002068C06840F400502168C86000206064E4
:10332000202084F8410084F842000020606300BF40
:10333000C8E7000010B586B0044600200290039054
:10334000049005905349206888422FD100BF52480D
:10335000806940F48040504988610846806900F4E3
:103360008040019000BF00BF00BF0846806940F068
:10337000040088610846806900F00400019000BFE5
:1033800000BF48150290022003900320059002A977
:103390004248FEF705FA4FF4806002900020039047
:1033A000049002A93D48FEF7FBF970E03C49206813
:1033B00088426CD100BF3848C06940F400303649BB
:1033C000C8610846C06900F40030019000BF00BF2A
:1033D00000BF0846806940F00400886108468069A3
:1033E00000F00400019000BF00BF04200290022002
:1033F00003900320059002A92848FEF7D1F9082080
:10340000029000200390049002A92448FEF7C8F916
:103410002448254908600020486000212248816036
:103420008021C16000210161416120218161002171
:10343000C161FEF7BFF808B1FDF74EFD00BF1A48A5
:10344000E063446200BF1748143018490860102038
:1034500048600021154881608021C1600021016120
:103460004161202181610021C161FEF7A3F808B10B
:10347000FDF732FD00BF0D48A063446200BF00228B
:1034800005212620FEF7B6FB2620FEF7A3FB06B09B
:1034900010BD00000038014000100240000801404B
:1034A000004400406C000240C405002008060020D3
:1034B00070B504460D46164694F8420020280BD1FC
:1034C00005B10EB9012070BD0020206332462946A7
:1034D000204601F01FFAF6E70220F4E77047704734
:1034E000F7B50446154694F84100202836D10198D6
:1034F00000B10DB90120FEBD01982062A584E584CC
:1035000000206064212084F841001548A16B886286
:103510001448A16BC8621448A16B08630020A16B1A
:10352000486301AE23681A1D31682B46A06BFEF775
:1035300075F86FF040002168086000BF00BF216887
:10354000143151E8001F41F080002168143141E836
:103550000002002AF3D100BF0020CCE70220CAE716
:10356000054600085D460008DD44000870477047C6
:1035700010B5012211460648FEF7AAFA142002F0FF
:1035800083FD002201210248FEF7A2FA10BD0000CF
:10359000000C014000BFFEE70EB500200090019036
:1035A00002901148114908600021104881600173A0
:1035B00001754FF46021C16100200C494860012170
:1035C0000A480161FDF7CAFD08B1FDF785FC01203D
:1035D000009001900020029069460448FDF70EFD1E
:1035E00008B1FDF779FC0EBD00240140E403002082
:1035F00008B500BF0E48406940F001000C49486121
:103600000846406900F00100009000BF00BF0022A2
:1036100005211020FEF7EEFA1020FEF7DBFA00225B
:1036200005211120FEF7E6FA1120FEF7D3FA08BDB6
:103630000010024000B59FB000201D901E90012197
:103640001DA804F09CFE1B4908601C221A4916A8FC
:10365000FCF719FE002116A804F0B6FE1749086011
:103660001C2215491C310FA8FCF70DFE00210FA8E4
:1036700004F0AAFE124908601C220F49383108A83C
:10368000FCF701FE002108A804F09EFE0D49086029
:103690001C220949543101A8FCF7F5FD002101A8BD
:1036A00004F092FE084908600548006805F03AFEFB
:1036B0001FB000BD14000020D09E000804000020B0
:1036C000080000200C0000201000002000B585B08C
:1036D0000020019002900390049000BF4848806948
:1036E00040F01000464988610846806900F01000EB
:1036F000009000BF00BF00BF0846806940F0200076
:1037000088610846806900F02000009000BF00BF7B
:1037100000BF0846806940F004008861084680695F
:1037200000F00400009000BF00BF00BF08468069A1
:1037300040F0080088610846806900F008000090A9
:1037400000BF00BF00224FF4C0412E48FEF7C0F971
:10375000012241F630012C48FEF7BAF900224FF25F
:1037600001012A48FEF7B4F901224FF440712748BD
:10377000FEF7AEF94FF4C040019001200290002006
:1037800003900220049001A91E48FEF709F841F6B3
:10379000300001900120029000200390032004904B
:1037A00001A91948FDF7FCFF4FF2013001900120FB
:1037B0000290002003900220049001A91348FDF715
:1037C000EFFF02200190124802900020039001A90F
:1037D0000E48FDF7E5FF4FF4807001900D48029010
:1037E0000020039001A90848FDF7DAFF0022052117
:1037F0000720FEF7FFF90720FEF7ECF905B000BD42
:10380000001002400010014000080140000C01407F
:10381000000031100000111000B587B000200390A7
:103820000490059006900190029015481549086093
:1038300041F61F40486000211248816041F2883102
:10384000C1600021016141618161FEF703FF08B1A0
:10385000FDF742FB4FF48050039003A90948FEF79F
:10386000AAFF08B1FDF738FB00200190029001A9E2
:103870000448FEF7ADFE08B1FDF72EFB07B000BD12
:10388000002C01401404002000B589B000200790EE
:1038900008901C216846FCF70FFD4FF080401B4943
:1038A00008604720486000211848816040F2E731F5
:1038B000C160002101618161FFF7C9FA08B1FDF71C
:1038C0000BFB00200790089007A91048FEF780FE28
:1038D00008B1FDF701FB60200090002001900290EC
:1038E0000490082269460948FFF72FFA08B1FDF74E
:1038F000F3FA0C2269460548FFF727FA08B1FDF7ED
:10390000EBFA0248FFF7E8F909B000BD5C040020BB
:1039100000B58BB0242102A8FCF7CEFC002000905B
:103920000190184818490860002048600021164896
:1039300081604FF6FF71C160002101618161032048
:103940000290002003900120049000200590069032
:10395000079001200890002009900A9002A90A48C7
:10396000FEF7AFFF08B1FDF7B7FA00200090019015
:1039700069460548FEF72CFE08B1FDF7ADFA0BB01D
:1039800000BD000000040040A404002000B58BB07E
:10399000242102A8FCF790FC002000900190184818
:1039A00018490860002048600021164881604FF6E1
:1039B000FF71C1600021016181610320029000203C
:1039C00003900120049000200590069007900120AC
:1039D0000890002009900A9002A90A48FEF771FF9A
:1039E00008B1FDF779FA002000900190694605487A
:1039F000FEF7EEFD08B1FDF76FFA0BB000BD000059
:103A000000080040EC04002010B50B480B4908608A
:103A10004FF4E1304860002108488160C1600161D5
:103A20000C21416100218161C161FFF747FC08B1B0
:103A3000FDF752FA10BD00000038014034050020A7
:103A400010B50B480B4908604FF416504860002130
:103A500008488160C16001610C21416100218161E0
:103A6000C161FFF72BFC08B1FDF736FA10BD00006D
:103A7000004400407C05002000BFFEE700BFFEE7D9
:103A800070B500240EE00021204600F006F9002564
:103A900004E0002000F03EFA681CC5B2802DF8DB7F
:103AA000601CC4B2082CEEDB70BD000000B585B010
:103AB0000020019002900390049000BF1548806997
:103AC00040F00400134988610846806900F0040052
:103AD000009000BF00BF01224FF4C0510E48FDF717
:103AE000F7FF4FF4C0500190112002900020039086
:103AF0000320049001A90848FDF752FE012211039A
:103B00000548FDF7E5FF0122D1020348FDF7E0FF7C
:103B100005B000BD001002400008014070B5054628
:103B2000002415E08020204100EA05024FF40061E6
:103B30001148FDF7CDFF012211030F48FDF7C8FF23
:103B400000224FF480510C48FDF7C2FF601CC4B244
:103B5000082CE7DB0122D1020748FDF7B9FF01225B
:103B600011030548FDF7B4FF00224FF480510248CD
:103B7000FDF7AEFF70BD00000008014010B5012246
:103B8000D1020A48FDF7A4FF012211030748FDF7FF
:103B90009FFF00224FF400610448FDF799FF0022C7
:103BA0004FF480510148FDF793FF10BD000801401C
:103BB00010B500224FF400610648FDF789FF01228D
:103BC00011030448FDF784FF0122D1020148FDF7EB
:103BD0007FFF10BD0008014070B5002406E00025FD
:103BE00000E06D1CB5F57A7FFBD3641CB4F57A7FD9
:103BF000F5D3FFF75BFFAE2000F07CF9D52000F095
:103C000079F9802000F076F9A82000F073F93F20C0
:103C100000F070F9D32000F06DF9002000F06AF98F
:103C2000402000F067F9A12000F064F9C82000F0FE
:103C300061F9DA2000F05EF9122000F05BF98120D2
:103C400000F058F9CF2000F055F9D92000F052F9D2
:103C5000F12000F04FF9DB2000F04CF9302000F0AB
:103C600049F9A42000F046F9A62000F043F98D2080
:103C700000F040F9142000F03DF9AF2000F03AF9CF
:103C8000FFF7FEFE70BD10B50246012000E0504374
:103C90000B1EA1F10101FAD110BD70B505460C460D
:103CA00045F0B00000F026F9102141EA141000F0B0
:103CB00021F904F00F0000F01DF970BD10B54AA203
:103CC0000121022000F002F903234A480A21026878
:103CD000022000F0D9F848A20121032000F0F6F8F4
:103CE00046A20721032000F0F1F845A20B21032092
:103CF00000F0ECF84349C8680021FCF78FFD10D2B2
:103D00002B220321084600F085F83E49C868FCF7DD
:103D100000FD0446022322460421032000F0B4F8EB
:103D20000FE02D220321084600F074F83549C868D9
:103D3000FCF7EFFC0446022322460421032000F096
:103D4000A3F830490869FCF7E4FC04460223224644
:103D50000921032000F098F82A494869FCF7D9FCAA
:103D60000446022322460D21032000F08DF8254849
:103D7000B0F9062002230121042000F085F8214833
:103D8000B0F9082002230621042000F07DF81D4828
:103D9000B0F90A2002230C21042000F075F81AA2C1
:103DA0000121084600F092F814A20821012000F039
:103DB0008DF816480468002C01DB204600E06042C4
:103DC000024604231946012000F05EF810480468FA
:103DD000002C01DB204600E06042024604230B2158
:103DE000012000F051F810BD64697374616E636561
:103DF0003A000000A8000020703A0000723A00006B
:103E0000790000004C0600206C3A000048000020B9
:103E10004C0000202DE9F04105460E461746721E63
:103E2000D206110E6A1E5206100EFFF736FF00244E
:103E300009E0A7F12001134A02EB0111085D00F02F
:103E400069F8601CC4B2082CF3DB721ED206110E96
:103E50006A1E012303EB4202D0B2FFF71EFF0024CB
:103E60000BE0A7F12001074A02EB011204F108015F
:103E7000505C00F04FF8601CC4B2082CF1DBBDE8C8
:103E8000F08100007C9F00082DE9F04780460E4637
:103E900017461D46002415E0281B411E0A20FFF787
:103EA000F2FEB7FBF0F00A21B0FBF1F201FB1200C9
:103EB00000F130093019C1B24A464046FFF7AAFF67
:103EC000601CC4B2AC42E7DBBDE8F0872DE9F041ED
:103ED00007460E461546002407E02A5D3019C1B298
:103EE0003846FFF797FF601CC4B2285D0028F4D164
:103EF000BDE8F08110B50446FFF740FE7820FFF7DB
:103F00000DFE0020FFF70AFE2046FFF707FEFFF731
:103F10004FFE10BD10B50446FFF730FE7820FFF7C6
:103F2000FDFD4020FFF7FAFD2046FFF7F7FDFFF704
:103F30003FFE10BD10B502464FF47A60444213684C
:103F4000A34201DA434213601368834200DD10602C
:103F500044420B68A34201DA43420B600B68834280
:103F600000DD086010BD000008B508490968C908EF
:103F70004FF47A72B1FBF2F14143009100BF00BFF0
:103F800000994A1E00920029F9D108BD2C0000209A
:103F90000146012902D002290ED106E0084A126822
:103FA00010B20022064B1A6008E0064A126810B2EE
:103FB0000022044B1A6001E0002000BF00BF7047E0
:103FC000240400402408004070B504460D46002C2F
:103FD0000BDD0122D1032248FDF77AFD00224FF4C8
:103FE00080411F48FDF774FD0AE000224FF40041B4
:103FF0001B48FDF76DFD012291031948FDF768FD8F
:10400000201E01DB014600E04142164A12681144BD
:104010004FF08042D163002D0BDD012211031048C7
:10402000FDF756FD00224FF400510D48FDF750FDFD
:104030000AE000224FF480510948FDF749FD0122B2
:1040400051030748FDF744FD281E01DB014600E04F
:104050004142044A126811444FF08042116470BD1D
:10406000000C01406800002000BFFCF79DFE1420FA
:1040700004F074F9F9E7000001F0D2FDC4B214B104
:104080000AA000F0ABFD01F089FBC4B214B10EA090
:1040900000F0A4FD1448006805F0A4F800BFFCF788
:1040A00059FE022004F05AF9F9E7000041544B2D63
:1040B0004D533630353020696E6974206661696C05
:1040C0006564210D0A00000041544B2D4D533630DC
:1040D000353020444D5020696E6974206661696CEA
:1040E0006564210D0A00000008000020FFF774FD40
:1040F00000BFFCF7C1FEC82004F030F9F9E700BFAB
:1041000001F008FF0A2004F029F9F9E710B5FDF7DE
:10411000EBFC05F0F7FC012801D005F047FA10BDD3
:1041200000B593B0282109A8FCF7C6F8142104A80B
:10413000FCF7C2F80020009001900290039001204B
:10414000099000040A9000200B9001200D9002209D
:104150001090C10311914FF4E011129109A8FDF7DD
:10416000D5FF08B1FCF7B8FE0F200490022005909F
:10417000002006904FF480600790002008900221F4
:1041800004A8FDF79FFE08B1FCF7A6FE02200090F0
:10419000800302906846FDF7FDFD08B1FCF79CFE28
:1041A00013B000BD7047000010B50248FEF7C9FC0F
:1041B00010BD00001404002010B50248FEF7C1FC39
:1041C00010BD0000A404002010B50248FEF7B9FCA1
:1041D00010BD0000EC04002010B50268184B984296
:1041E00008D0B0F1804F05D0164B984202D0164B44
:1041F000984203D122F070024B681A43104B984248
:1042000008D0B0F1804F05D00E4B984202D00E4B33
:10421000984203D122F44072CB681A4322F0800303
:104220004C6943EA040202608B68C3620B688362D4
:10423000034B984201D10B6903630123436110BD15
:10424000002C0140000400400008004030B501F09F
:104250001F05012404FA05F3046A9C430462046AFE
:1042600001F01F0502FA05F52C43046230BD30B59C
:104270000C46816821F47F4142EA03252543294306
:10428000816030BD0A46816821F0700142F0070369
:10429000194381607047000030B5026A056A25F055
:1042A000010505624368846924F0700424F0030466
:1042B0000D682C4322F002028D682A430D4DA8425E
:1042C00006D100BF22F00802CD682A4322F0040282
:1042D000084DA84207D123F4807323F400734D697D
:1042E0002B438D692B43436084614D6845630262B3
:1042F00030BD0000002C014030B5026A056A25F08F
:10430000100505624368846924F4E04424F4407491
:104310000D6844EA052422F020028D6842EA051265
:104320000E4DA84207D100BF22F08002CD6842EABC
:10433000051222F04002094DA84209D123F48063FE
:1043400023F400634D6943EA85038D6943EA8503DD
:10435000436084614D688563026230BD002C01407A
:1043600030B5026A056A25F4807505624368C46940
:1043700024F0700424F003040D682C4322F400722E
:104380008D6842EA05220F4DA84207D100BF22F4F2
:104390000062CD6842EA052222F48062094DA842FB
:1043A00009D123F4805323F400534D6943EA0513E4
:1043B0008D6943EA05134360C4614D68C5630262B9
:1043C00030BD0000002C014030B5036A056A25F4B9
:1043D000805505624468C26922F4E04222F44072CA
:1043E0000D6842EA052223F400538D6843EA053341
:1043F000064DA84204D124F480444D6944EA851452
:104400004460C2614D680564036230BD002C014008
:1044100030B50B461446026A056A25F001050562AF
:10442000816921F0F00141EA041122F00A021A43E5
:104430008161026230BD30B50B461446026A056ADE
:1044400025F010050562816921F4704141EA0431CB
:1044500022F0A00242EA03128161026230BD000034
:104460002DE9F04105462846FCF786F921F0004188
:1044700006460022114BFCF793F918D2012010498F
:10448000087001240022C1030E48FDF721FB002221
:10449000A1030C48FDF71CFB002221030948FDF78E
:1044A00017FB002261030748FDF712FB00E0002420
:1044B0000020034908702046BDE8F0810000444018
:1044C00094000020000C014070B505466C6A002085
:1044D000E085E0842046FEF77DFD70BD70B50646A0
:1044E0000025746A20684069C0F3C01594F8410043
:1044F000212805D125B10020E084204600F0FBF8FA
:1045000020684069C0F3801594F84200222805D144
:1045100025B10020E085204600F0A7F8606C40F04F
:10452000100060642046FEF755FD70BD70B505466D
:104530006C6A2868006800F02000002842D1E085FD
:1045400000BF00BF21680C3151E8001F21F48070CA
:1045500021680C3141E80002002AF3D100BF00BFFE
:1045600000BF2168143151E8001F21F001002168CB
:10457000143141E80002002AF3D100BF00BF00BFA0
:104580002168143151E8001F21F0400021681431E6
:1045900041E80002002AF3D100BF202084F8420045
:1045A000206B01280ED100BF00BF21680C3151E8FB
:1045B000001F21F0100021680C3141E80002002AA0
:1045C000F3D100BF00206063206B012804D1A18DCE
:1045D0002046FEF7FEFC02E02046FEF77FFF70BD9E
:1045E00070B505466C6A01206063206B012805D117
:1045F000A08D41082046FEF7ECFC02E02046FEF7C5
:104600006EFF70BD70B505466C6A2868006800F0E2
:104610002000F8B90020E08400BF00BF21681431F9
:1046200051E8001F21F080002168143141E80002A8
:10463000002AF3D100BF00BF00BF21680C3151E850
:10464000001F41F0400021680C3141E80002002ABF
:10465000F3D102E02046FEF789FF70BD70B5044635
:10466000656A2846FEF783FF70BD00BF00BF026881
:104670000C3252E8002F22F4907102680C3242E8AA
:104680000013002BF3D100BF00BF00BF026814323B
:1046900052E8002F22F001010268143242E80013B0
:1046A000002BF3D100BF016B01290ED100BF00BF69
:1046B00002680C3252E8002F22F0100102680C321E
:1046C00042E80013002BF3D100BF202180F84210F4
:1046D00000210163704710B504462068C06820F0CF
:1046E00040002168C860202084F841002046FEF781
:1046F0003DFF002010BD00BF00BF02680C3252E831
:10470000002F22F0C00102680C3242E80013002B97
:10471000F3D100BF202180F841107047F8B504465E
:1047200094F84200222875D1A068B0F5805F0CD1C2
:10473000206950B90025A66A20684068C0F30800C7
:104740003080A06A801CA06215E0A56A0026A068DF
:10475000B0F5805F03D0A06828B9206918B9206837
:104760004068287004E02068406800F07F002870EE
:10477000A06A401CA062E08D401E80B2E085002847
:1047800046D12068C06820F020002168C8602068F9
:10479000C06820F480702168C8602068406920F0FB
:1047A000010021684861202084F8420000206063F5
:1047B000206B012826D10020206300BF00BF2168A4
:1047C0000C3151E8001F21F0100021680C3141E844
:1047D0000002002AF3D100BF2068006800F010003A
:1047E00010280AD100BF00200090206800680090C7
:1047F00020684068009000BF00BFA18D2046FEF7F2
:10480000E8FB02E02046FEF769FE0020F8BD01E06B
:104810000020FBE70220F9E770B50446216809692A
:1048200021F44051E2681143226811612269A168B4
:104830001143626941EA02052168C96841F20C62CC
:10484000914329432268D1602168496921F440716C
:10485000A2691143226851612D4A2168914202D117
:10486000FDF70CFC01E0FDF7F9FB00EBC00101EBEB
:10487000001162689200B1FBF2F100EBC00202EBA2
:10488000001263689B00B2FBF3F26423B2FBF3F205
:1048900002EBC20303EB0212A1EB8201322202EB14
:1048A00001116422B1FBF2F101F0F00100EBC00252
:1048B00002EB001263689B00B2FBF3F26423B2FBCD
:1048C000F3F201EB021200EBC00101EB001163688F
:1048D0009B00B1FBF3F100EBC00303EB0013666830
:1048E000B600B3FBF6F36426B3FBF6F303EBC306A3
:1048F00006EB0313A1EB8301322303EB01116423C5
:10490000B1FBF3F101F00F0111442268916070BD19
:104910000038014077B581B0044615460298A06280
:10492000A58500206064222084F842002848E16BBD
:1049300088622848E16BC8622748E16B0863002061
:10494000E16B486302AE32682368191D2B46E06BA9
:10495000FCF764FE00BF0020009020680068009013
:1049600020684068009000BF00BF206970B100BFA0
:1049700000BF21680C3151E8001F41F480702168AC
:104980000C3141E80002002AF3D100BF00BF00BF94
:104990002168143151E8001F41F0010021681431F1
:1049A00041E80002002AF3D100BF00BF00BF216828
:1049B000143151E8001F41F040002168143141E8F2
:1049C0000002002AF3D100BF002004B070BD000037
:1049D0002D450008E1450008DD440008014691F836
:1049E0004100212828D18868B0F5805F0BD1086983
:1049F00048B90A6A1088C0F308000B685860086A52
:104A0000801C086205E00B6A581C086218780B6865
:104A10005860C88C401E80B2C88458B90868C06805
:104A200020F080000B68D8600868C06840F0400043
:104A30000B68D860002070470220FCE710B50248E0
:104A4000FEF7CAFA10BD00007C05002000BFFEE79B
:104A50002DE9F05F81460C464846FBF78DFE074680
:104A60000E4A0F4BFBF7A9FD0546FBF7B1FE824648
:104A70000C4881682046FBF78FFC06460949086808
:104A80005146FBF789FC07463146FBF72DFC0546EE
:104A9000FBF726FE83465846BDE8F09F9A99999900
:104AA0009999B93F700000202DE9F04704460D4662
:104AB00016461F4661190846FBF7F7FD2B490860AB
:104AC0002B492C480068FBF767FC2A4908602A49F3
:104AD00026480068FBF760FC80462648016840468F
:104AE000FBF702FC23490860084601682348006878
:104AF000FBF7FAFB21490860394620480068FBF7BC
:104B000045FC1E4908601E491C480068FBF786FEEC
:104B100002D21B48194908601A4918480068FBF777
:104B200073FE02D2174815490860174801691348F7
:104B30000068FBF731FC80461348C1680D480068E7
:104B4000FBF72AFC81464146FBF7CEFB0F49086084
:104B50003046FFF785FC012802D100200749086094
:104B60000A480068FBF7BCFDBDE8F0879C00002008
:104B7000CDCC4C3FA0000020CDCC4C3EA40000206A
:104B800000401C4600401CC6700000209800002019
:104B90002DE9F04705460C462846FBF786FD0746FB
:104BA0002046FBF782FD82460B48016A5046FBF720
:104BB000F3FB804687F0004A074881695046FBF7BF
:104BC000EBFB81464146FBF7E1FB06463046FBF72F
:104BD00087FDBDE8F0870000700000200FB4054B92
:104BE00010B503A9044A029800F0B6F810BC5DF8AD
:104BF00014FB0000896C00087C010020490050EA89
:104C0000C12018BF04204A0D18BF40F0010040F237
:104C1000FF72B2EB515F08BF40F00200012808BFED
:104C20000520704702480068C0F30220704700006A
:104C30000CED00E010B5002804DB0A07130E054A4E
:104C4000135406E00A07140E034A00F00F031B1F5B
:104C5000D45410BD00E400E018ED00E02DE9F0416F
:104C60004F1E00EBC7010446D1E9000115461E4660
:104C700037F006020DD02A463346FBF7A4FC7F1E10
:104C800004EBC703D3E90023FBF7F6FB37F006027A
:104C9000F1D1022F25D0042F13D0062F18BFBDE865
:104CA000F0812A463346FBF78EFCD4E90A23FBF752
:104CB000E3FB2A463346FBF786FCD4E90823FBF7DF
:104CC000DBFB2A463346FBF77EFCD4E90623FBF7E1
:104CD000D3FB2A463346FBF776FCD4E90423FBF7E3
:104CE000CBFB2A463346FBF76EFCD4E90223FBF7E5
:104CF000C3FB2A463346FBF766FCD4E90023BDE834
:104D0000F041FBF7B9BB0122FBF7FDBEFBF7B4BBDB
:104D10000022134610461146FBF786BE024A0020C9
:104D20001107FBF7F0BE000001FDFFFF02E008C81D
:104D3000121F08C1002AFAD170477047002001E015
:104D400001C1121F002AFBD1704700000149086011
:104D500070470000800100202DE9FF4F89B09B467D
:104D60000446002506E025280BD05A460B999047AB
:104D7000641C6D1C20780028F5D10DB02846BDE8D4
:104D8000F08F0027B8460122474900E0074314F896
:104D9000013F203B02FA03F00842F7D120782E2889
:104DA00019D114F8010F47F004072A280ED06FF02C
:104DB0002F022078A0F1300109290CD808EB8801D6
:104DC00002EB410100EB0108641CF2E70A98641C45
:104DD00050F8048B0A9020780028CED0642808D0A0
:104DE000692806D075281ED05A460B9990476D1C2D
:104DF00058E00A994FF00A0901C90A91002802DA1D
:104E000040422D2102E0390504D52B218DF82010D8
:104E1000012103E0F90704D02021F7E78A4608AE14
:104E20000DE00021FAE70A994FF00A0901C90A9139
:104E3000F7E74946FBF7FCFC303106F8011D002876
:104E4000F7D1ADEB060000F12009780701D44FF04F
:104E50000108C84502DDA8EB090000E000208046FB
:104E6000002706E008A85A46C05D0B9990476D1CC4
:104E70007F1C5745F6DB04E030205A460B999047DB
:104E80006D1CB8F10001A8F10108F5DC05E016F889
:104E9000010B5A460B9990476D1CB9F10001A9F11D
:104EA0000109F4DC641C65E7092801002DE9FE4FC7
:104EB00006460F460025684601F0F4FE002442E055
:104EC00056F8240057F82410A0EB010ABAF1000F9D
:104ED00001DB514601E0CAF100010846FBF7E5FBA2
:104EE00083464FF08F41FBF789FA80465DF8240036
:104EF0000021FBF789FC16D05DF824104046FBF733
:104F00007DFA82464FF07E51FBF740FA814629F048
:104F1000004A0F48416A5046FBF780FC12D201203C
:104F2000A04005430EE00A48C1694046FBF76CFC0F
:104F300005D30748016A4046FBF770FC02D2012006
:104F4000A0400543641C032CBADB2846BDE8FE8F55
:104F500034A600082DE9F04D8D4F21F0004A86B0AF
:104F600005460C46BA452ADBAAEB070028430AD0BF
:104F70008848824501DC1AD1CDB106B02846BDE88B
:104F8000F04DFFF7C0BE844A844B2846FBF71BFB5D
:104F900007460E46824A834B28462146FBF713FB01
:104FA00006B03A463346BDE8F04DFBF765BA01203E
:104FB000FFF7CCFE06B0BDE8F04DFFF7A9BE7A487A
:104FC000824542DABAF1795F0BDA2846FFF716FE1E
:104FD000042808BFFFF7A2FE284606B02146BDE818
:104FE000F08D2A460B461046FBF7EDFA8346024643
:104FF0006E480E460B4606217844FFF72FFE5A46B0
:105000003346FBF7E0FA804669488A465A463346FB
:1050100004217844FFF722FE5A463346FBF7D3FAC1
:1050200000223B46FBF728FA02460B464046514613
:10503000FBF7FAFC2A462346FBF7C5FA06B02A46D8
:105040002346BDE8F04DFBF717BA284624F000418F
:1050500000223D463B46FBF7B3FA4FF0FF32FBF729
:1050600052FD0646024653480F460B460621784439
:10507000FFF7F4FD32463B46FBF7A5FACDE9000108
:105080004D4832463B4604217844FFF7E7FD32465F
:105090003B46FBF798FA00222B46FBF7EDF98346D7
:1050A00002913046394603F01FFF804643480D46C3
:1050B000504517DCDDE900015A46029BFBF7B4FCC2
:1050C00042462B46FBF77FFA42462B46FBF7D4F9C4
:1050D0000122FBF718FD304A304BFBF76EFA304ADD
:1050E000304B4CE04FF0000A52460B464046FBF76F
:1050F000C3F9CDE9031052462B4610461946FBF77B
:1051000062FA32463B46FBF75BFADDE90332FBF716
:105110008BFC06460F46DDE900015A46029BFBF771
:1051200083FC83460091012230463946FBF7EBFCB5
:10513000194A1A4BFBF744FA06460F46012240462D
:105140002946FBF7E0FC5A46009BFBF73CFA324647
:105150003B46FBF732FA06460F46012250462946E7
:10516000FBF7D1FC0E4DDFF858802A464346FBF78B
:1051700027FA32463B46FBF723FA2A464346FBF71B
:105180001FFA002CD8BF81F0004106B0BDE8F08DB9
:105190000000F03F0000F07F075C143326A6913C2E
:1051A000182D4454FB21F93F0000E03F5C620000F1
:1051B00072620000E6610000FC6100003333EF3FE3
:1051C000FB21E93F2DE9F84F04460D4621F0004050
:1051D00000917349814211DC7249884201DC06D199
:1051E0002CB120462946BDE8F84FFFF78CBD6E482C
:1051F000002DCCBF6D496E49BDE8F88F6D498142E5
:1052000011DD6D498142D8BF4FF0FF366DDD20467C
:105210002946FFF7F3FC042808BFFFF77FFD20466F
:105220002946BDE8F88F6549654F25F00045814264
:1052300033DD6449814219DD002632464FF0804358
:1052400020462946FBF718F980468A460122204667
:105250002946FBF758FC00223B46FBF7AEF94246D5
:105260005346FBF7E1FB04460D463EE001260022D3
:10527000BA463B4620462946FBF7FEF880460F46D5
:105280000022534620462946FBF797F942463B4603
:10529000FBF7CAFB04460D4627E04B4981421BDD64
:1052A000DFF828A102260022534620462946FBF7B4
:1052B0008AF900223B46FBF7DFF880460F460022C2
:1052C000534620462946FBF778F942463B46FBF712
:1052D000ABFB04460D4608E0032622462B46002081
:1052E0003B49FBF7A1FB04460D4622462B461046E0
:1052F0001946FBF768F98B46824602460B46FBF7D8
:1053000062F907460246334888460B460621784430
:10531000FFF7A4FC52465B46FBF755F982462E4840
:105320008B463A46434605217844FFF797FC3A46B8
:105330004346FBF748F902460B46002E50465946B5
:105340000CDAFBF799F822462B46FBF73CF901B043
:1053500022462B46BDE8F04FFBF732B9FBF78CF83D
:1053600022462B46FBF72FF91C4A7A4402EBC60370
:10537000D3E90023FBF721F922462B46FBF71DF961
:10538000174A7A4402EBC603D3E90023FBF718F966
:10539000009A002AB8BF81F00041BDE8F88F0000F4
:1053A000000010440000F07F182D4454FB21F93F09
:1053B000FB21F9BF0000DC3F0000203E0000F33F6E
:1053C0000000F03F0000E63F008003400000F83F8F
:1053D0000000F0BFFE5F0000BC5F00005A5F0000ED
:1053E000225F00002DE9F04D9446CCF1000423F03B
:1053F00000464CEA0404594F46EAD4749A4688465B
:1054000021F00042BC4206D8454240EA050442EA87
:10541000D474BC4204D9BDE8F04D6246FFF776BCB7
:10542000AAF14055A5F17F6555EA0C040BD0022482
:1054300004EAAA744A4DDFF82CE144EAD87452EA2F
:10544000000B04D00CE0BDE8F04DFFF7BBBE002C14
:1054500014BF012CBDE8F08D022C30D0032C32D0CB
:1054600056EA0C0B0AD0BE4220D1BA4209D126F02E
:10547000804622F080423346114617E000291ADBAD
:1054800025E0DFF8E4B0FB44002C04BFDBE90001B9
:10549000BDE8F08D012C02BFDBE9000181F0004185
:1054A000BDE8F08D022C0AD0032C0CD0BA4212D1E8
:1054B000B8F1000F0BDA2A482C49BDE8F08D2846D8
:1054C0002B49BDE8F08D28467146BDE8F08D244893
:1054D0002849BDE8F08D921B12153C2AC4BF204F0D
:1054E000244E10DCBAF1000FBEBF12F13C0F0027B2
:1054F0003E4608DB6246FBF797FA21F00041FFF7D2
:1055000061FE07460E4694B1012C08BF86F00046A6
:105510000DD0194A194B022C3846314615D0FBF7ED
:105520004CF82A46BDE8F04D114BFBF746B8002277
:10553000134638463146FBF7FDFA04BF0220FFF759
:1055400005FC38463146BDE8F08DFBF736F82A46B3
:10555000BDE8F04D064BFBF733B800000000F07FCC
:10556000182D4454FB2109C0B65E0000FB21F9BF91
:10557000FB210940FB21F93F075C143326A6A13C1F
:105580002DE9F04F99B004460D4616460027B8465F
:10559000B946BA4612A814A913AB0EAACDE9001059
:1055A00015A917A800F016FF18B1012019B0BDE821
:1055B000F08FBDF8500000F4807000287ED00E9867
:1055C000FBF773F883464FF09D41FAF717FF074644
:1055D0000F98FBF76AF883464FF09D41FAF70EFFEC
:1055E00080461098FBF761F883464FF09D41FAF72B
:1055F00005FF81461198FBF758F883464FF09D410F
:10560000FAF7FCFE824639464FF08040FAF7C4FEB6
:1056100049460590FAF7C0FE414607904FF04040DA
:10562000FAF7BAFE51460590FAF7B6FE06900799CA
:10563000FAF75AFE8346FBF79FF8CDE90801FFF71A
:1056400089FC4FF06632544BCDE90A01FAF7BBFFF3
:10565000CDE90C01FBF7BCF8206049464FF08040D3
:10566000FAF79AFE49460290FAF796FE41460490F0
:105670004FF04040FAF790FE41460290FAF78CFE58
:1056800003900499FAF782FE83464FF07E51FAF7B1
:105690002BFE0590FBF770F8CDE9080139464FF075
:1056A0008040FAF779FE41460390FAF775FE4946C5
:1056B00004904FF08040FAF76FFE00E068E051463A
:1056C0000390FAF769FE83460499FAF70DFE0590F8
:1056D000FBF752F8CDE90601DDE90823FFF782FE6A
:1056E0004FF066322C4BCDE90A01FAF76CFFCDE999
:1056F0000C01FBF76DF8286051465046FAF74CFE56
:10570000494604904846FAF747FE41460390404612
:10571000FAF742FE394601903846FAF73DFE00900E
:105720000199FAF7E1FD02900399FAF72FFE8346FB
:105730000499FAF72BFE0590FBF71EF8CDE9080156
:1057400051463846FAF728FE494604904046FAF793
:1057500023FE03900499FAF7C7FD4FF080410590AE
:10576000FAF71AFE8346FBF707F8CDE90601DDE9F3
:105770000823FFF737FE4FF06632074BCDE90A01E9
:10578000FAF721FFCDE90C01FBF722F8306001E0C8
:1057900001200BE7002009E766A64C402DE9F04107
:1057A000002001F047FFC4B2782002F02FFD204412
:1057B000C4B2782001F02CFE2044C4B2642002F070
:1057C000D7FC2044C4B200F0F9FD2044C4B2194D06
:1057D000284601F07FFD0646E81C01F07BFD46EA05
:1057E000C00086B2A81D01F075FD46EA801086B2A1
:1057F00000BF3746384601F03DF82044C4B240F2BD
:10580000731000F083FC2044C4B2642000F062FFF7
:105810002044C4B2012002F0A7FB2044C4B200F02F
:105820008DFA2044C4B214B10120BDE8F0810020FB
:10583000FBE70000700100202DE9FC4104460D4605
:1058400016466B4606223B21682000F027FA0746E1
:10585000BFB99DF801009DF8001040EA012000B298
:1058600020809DF803009DF8021040EA012000B25C
:1058700028809DF805009DF8041040EA012000B240
:1058800030803846BDE8FC8110B504460CB90120D3
:1058900010BDFCF723F920600020F9E72DE9FC4159
:1058A00004460D4616466B4606224321682000F04A
:1058B000F5F90746BFB99DF801009DF8001040EAD0
:1058C000012000B220809DF803009DF8021040EAFC
:1058D000012000B228809DF805009DF8041040EAE0
:1058E000012000B230803846BDE8FC8100B585B0AB
:1058F0000020019002900390049000BF00BF104868
:10590000806940F004000E4988610846806900F013
:105910000400009000BF00BF00BF01200190029072
:1059200003900320049001A90648FBF739FF00BF4C
:10593000002201210348FCF7CBF800BF05B000BDF1
:10594000001002400008014010B500BF00222021D5
:105950001048FCF7BDF800BF00F01EF800BF0122A0
:1059600010210C48FCF7B4F800BF00F015F800BF98
:10597000002210210748FCF7ABF800BF00F00CF83C
:1059800000BF012220210348FCF7A2F800BF00F06D
:1059900003F810BD0008014010B5022000F074FBB0
:1059A00010BD000000B585B000200190029003906A
:1059B000049000BF00BF1A48806940F004001849F5
:1059C00088610846806900F00400009000BF00BFB5
:1059D00000BF00BF00BF0846806940F00400886136
:1059E0000846806900F00400009000BF00BF00BFBF
:1059F000102001900120029003900320049001A93F
:105A00000848FBF7CDFE202001901120029001A94B
:105A10000448FBF7C5FE00F0B1F805B000BD00007A
:105A2000001002400008014010B500BF01222021F3
:105A30000C48FCF74DF800BFFFF7AEFF00BF012296
:105A400010210848FCF744F800BFFFF7A5FF00BF8E
:105A5000002210210348FCF73BF800BFFFF79CFF32
:105A600010BD00000008014070B505460024002666
:105A70001CE06006040E00BF012210211048FCF754
:105A800027F800BFFFF788FF20210D48FCF718F822
:105A900008B1601CC4B200BF002210210848FCF706
:105AA00017F800BFFFF778FF701CC6B2082EE0DBC6
:105AB00015B9FFF7B9FF01E0FFF746FF204670BDBB
:105AC0000008014070B50446002524E000BFE0094D
:105AD00028B1012220211548FBF7FAFF04E000223B
